:020000021000EC
:10800000004000201D160200591602005B160200F7
:108010000000000000000000000000000000000060
:108020000000000000000000000000005D160200DB
:1080300000000000000000005F1602006116020050
:108040006316020075B80100C9120200631602002F
:1080500063160200000000001D14020063160200F7
:1080600063160200310E02008D1302006316020037
:108070006316020063160200631602006316020014
:108080006316020063160200631602006316020004
:1080900063160200E5FD0100B50B02006316020045
:1080A00063160200631602000000000000000000DA
:1080B00000000000000000000000000000000000C0
:1080C00010B5064C2378002B07D1054B002B02D0AE
:1080D000044800E000BF0123237010BD20220020CF
:1080E00000000000488F0200044B10B5002B03D0A5
:1080F0000349044800E000BF10BDC0460000000076
:1081000024220020488F0200164B002B00D1144B74
:108110009D46402292029A1A924600218B460F46B3
:108120001348144A121A0FF091FC0F4B002B00D089
:1081300098470E4B002B00D09847002000210400E8
:108140000D000D48002802D00C4800E000BF0BF0E5
:1081500001FA200029000FF03EF80BF0E5F9C046C7
:1081600000000800004000200000000000000000A7
:1081700018220020842A00200000000000000000D7
:1081800010B50400034B036040300CF087F9200069
:1081900010BDC046A87C0200F0B58FB0614908A8A8
:1081A00003F0B0FC08A906A801F06EFD08A80CF0C9
:1081B00010FB5D4908A801F057FD08A906A80CF0BE
:1081C000E6F9040008A80CF069F9002C19D1574D04
:1081D000574E2B783478002B18D0002C00D074E048
:1081E000544908A801F040FD08A906A80CF0CFF9F1
:1081F000070008A80CF052F9002F02D001232C70C0
:10820000337006A80CF04AF90FB0F0BD002C5CD119
:108210000BF0E7FDC825060027006D00464908A8B9
:1082200001F022FD454C2A0008A9200002F056FE6C
:1082300008A80CF033F942480CF009FC002820D0C3
:1082400040480CF004FC00281BD020000DF006F87C
:10825000069B3D4C181D21000BF044FA0FF0BAFBB1
:108260003A4B2100186000200BF03CFA0FF0B2FBF3
:108270000122374B1860374B1A700022364B1A70A8
:10828000BFE70BF0AEFD002300900193009A019B25
:10829000921BBB411100002B02D1304B9942BDD93A
:1082A0002F4908A801F0E0FCC82208A952002000CC
:1082B00002F074FE08A80CF0F1F8AF20800001F085
:1082C000A1FA20000CF0CAFFD7E7069B1C1D0AABE1
:1082D0000893002C22D020000FF000FC25180790F6
:1082E0000F2807D9002207A908A809F0ABFA079BB5
:1082F00008900A932A00210008980FF095FA0022AE
:10830000079B089909931748CA5408A90FF0FDFA6A
:1083100008A80FF072FA144B0122B0E713480FF0CF
:1083200057FAC0461826002054870200AE290020C4
:10833000B12900208E87020096870200A423002026
:108340005C2200208422002098870200B0220020B6
:10835000AC220020AF290020B22900201027000005
:10836000118E020044220020B02900209A870200CA
:10837000F0B585B01F000AAB1B88060002911500FE
:108380000393002F1BD028200FF050F96B460400F8
:108390001989039BAAB200933B000CF01FF83368C5
:1083A00021005B6830009847002806D020000CF0C0
:1083B0002BF820000FF02FF9024805B0F0BD02485D
:1083C000FBE7C04616FCFFFF17FCFFFFF0B59DB0B2
:1083D00002AFF04800F034FEEF4803F091FA1C20A1
:1083E0000FF024F9F86100F0D7FB01200FF01EF91F
:1083F000B8620BF0FAFC30221023BA18D3184022CE
:10840000BB6300230124BA181370E44AFB631370A2
:10841000E34A1370E34A1370E34A1370E34A13709C
:108420001023E34D009322002B001D21E148FFF7AC
:108430009FFFE1480CF00BFB002801D0D84B1C70CB
:108440001023220000931D212B00DA48FFF790FF34
:10845000642001F0D7F9D44B1D78002D00D1C6E17E
:1084600030232025FB18D549581901F0FDFB302396
:10847000FB185919D2480DF0DEF93023FB185819B2
:108480000CF00CF80022C54B1C70C54B1A70C34D84
:108490002B78BB61002BC3D0CA4BBF4C196820009E
:1084A000C9B203F019FAC84B2000196803F066F945
:1084B000012300262B70BA4B20241E70B94BC349F0
:1084C0001E70B94B1E70B94B1E703023FB18181963
:1084D00001F0CAFB3023FB1878221919BC4802F0BE
:1084E000EDFD3023FB1818190BF0D8FF3023FB18D3
:1084F0001819B84901F0B8FB3023FB181919B04816
:108500000DF099F93023FB1818190BF0C7FF002460
:108510000023BB62FC62322001F074F90BF061FCB5
:1085200000231D0038627B62AB480CF090FA041EF9
:1085300000D0F5E10BF055FC002D4BD038607C608D
:108540003A687B68386A796A65246442E517121ACA
:108550008B41A4185D413C617D61BA60FB607B6921
:10856000002B00D0DEE195213B6949008B4200D908
:10857000D8E130232025FB18984958190CF074F8DD
:1085800030217B69924C01937B69791800937B6958
:1085900049191A00200002F0D7FC3023FB185819A3
:1085A0000CF055F82E2130220823BA18D0180FF0FD
:1085B000D1F9AF20800001F025F920000CF04EFE2B
:1085C0000BF00FFC0023B862FB620BF00AFCFB6AA5
:1085D00038627B62B86AF96A3A6A7B6A121A8B411E
:1085E0001100002B04D1FA23DB00994200D87FE070
:1085F000BB6AFA6A13437BD0302208232025BA18BD
:10860000D11850190FF0D2F93023FB185919F86915
:108610000BF0BBFC3023FB18040058190FF0EDF8E9
:108620003F2C00D1C9E12100F8690BF046FC302352
:108630002026FB180200F969981900F08DFA302302
:108640003022FB1899190823BA18D0180FF05DF9D9
:1086500030236D46FB1898190FF0CFF8FB6BB96B00
:108660000833DB08DB00EB1A9D4602AC20000FF05C
:108670002DFA34232100F81801F0F6FA3023FB1804
:108680002100981901F0F0FA3023FB1899194C4891
:108690000DF0D1F83023FB1898190BF0FFFE3023B2
:1086A000FB1898194E4901F0DFFA3023C822484CD4
:1086B000FB1899195200200002F010FC3023FB181F
:1086C00098190BF0EBFEAF20800001F09BF8200022
:1086D0000CF0C4FD3423F8180BF0E0FEAD46BE6983
:1086E0000023BA6BFB63002413700023BB62FC629F
:1086F000322001F087F81023012200931D212C4B1A
:108700002C48FFF735FE322001F07CF8274B1B7810
:10871000002B00D1FFE6002E00D0FFE03023202503
:10872000FB18304958190FF041F93023FB1859193B
:10873000F8690BF02AFC3023FB18040058190FF0DD
:108740005CF83F2C04D02100F8690BF0E9FB040031
:1087500030232025FB18210058190BF0C9FE3023C7
:10876000C8221B4CFB1852005919200002F0B6FB1E
:108770003023FB1858190BF091FEAF20800001F058
:1087800041F820000CF06AFD0023164A536012687D
:10879000137029E0B422002000260020B129002017
:1087A000B2290020AE290020AF290020B0290020E6
:1087B0009981010084230020842200208E870200FA
:1087C00018260020B0220020AC220020CC87020016
:1087D000A4230020548702005C22002040220020B5
:1087E000D587020044220020824A137093E6824B10
:1087F0001B78002B00D14AE630232026FB1898195D
:108800007E4901F031FA3023FB18991978227C480F
:1088100002F054FC3023FB1898190BF03FFE0BF0CC
:10882000E0FA01950090FF222900B86A0BF0DEFA09
:10883000744E3060642000F0E5FF0BF0D2FA019531
:10884000009064222900B86A0BF0D0FA6E4A030047
:10885000106034206D4A381800923268B96A0BF003
:10886000D2FA34232026F918043BFB1898190BF090
:1088700077FE3023FB18991965480CF0DCFF302394
:10888000FB1898190BF00AFE642000F0BBFF0BF0F8
:10889000A8FA604B38617D611C70102322000093A0
:1088A0001D215D4B5D48FFF763FD322000F0AAFFFC
:1088B0005B4B1D78002D09D00023564A13704E4A99
:1088C00013703423F8180BF0E9FDE0E50BF089FA9A
:1088D000FD60B860BA68FB6838697969121A8B4123
:1088E0001100002B02D14F4B9942D6D930232025BD
:1088F000FB184D49581901F0B7F93023FB187822BD
:1089000059193F4802F0DAFB3023FB1858190BF0D5
:10891000C5FD0023384A13703E4AD1E70026FAE528
:10892000BD6901E60125BA68FB68404C6D42121929
:108930006B413A617B617B69002B1FD1C7213B6989
:1089400049008B421AD830232025FB183849581982
:108950000BF08AFE30217B69294C01937B697918E1
:1089600000937B6949191A00200002F0EDFA3023C8
:10897000FB1858190BF06BFE2D2114E6FB68002B39
:1089800005D1C823BA689B009A4200D818E6302364
:108990002025FB185819274901F066F93023C82211
:1089A000174CFB1859195200200002F097FA302397
:1089B000FB1858190BF072FDFBE530232025FB183E
:1089C00058191D4901F050F93023C8220C4CFB18EE
:1089D00059195200200002F081FA3023FB1858196F
:1089E0000BF05CFDAF20800000F00CFF20000CF0CD
:1089F00035FC75E6B0290020B2290020C4870200AA
:108A0000A4230020B0220020AC220020988702007E
:108A100018260020AE29002099810100842300201F
:108A2000B129002010270000118E02006FFEFFFF09
:108A30003C220020D3870200D7870200F7B52348E5
:108A400000250300224C08330360220045600572B4
:108A500020490EF0E4FD204E300000F039FA2200EB
:108A60001E4930000EF0DBFD1D4E1E49300001F0A6
:108A700019FA1D4F2200390030000EF0D0FD1B4EB8
:108A80001B49300001F00EFA2200390030000EF0D0
:108A9000C6FD0123174E1A0000951121300001F088
:108AA00023FD154F2200390030000EF0B8FD134EA3
:108AB00000950123300002221A2101F015FD390032
:108AC000300022000EF0ABFDF7BDC046442200206E
:108AD00000200020FF780200B4220020018B01005A
:108AE00040220020208702004F4602003C22002046
:108AF000558702005C220020D1A4010084220020BE
:108B0000CA23144A9B0010B5C2501C330400C0187D
:108B10000BF0C4FCD0239B00E0180BF0BFFC20003E
:108B20009130FF3001F0D4FC20006930FF3001F0BB
:108B3000CFFC2000F03002F04DF82000D03002F0E1
:108B400051FC2000643008F079F8201DFFF718FB75
:108B5000200010BD3481020070B50C000D490500E5
:108B600016000BF081F9E368A361A169231D994206
:108B700008D00B0028331B78B34205D110312800F0
:108B80000EF057FE280070BD200018300BF08DF954
:108B9000EBE7C046D787020070B5A84CA849A544AA
:108BA000040068460BF060F941236A46A549137634
:108BB00007A80BF059F942220DAB1A70A2490EA872
:108BC0000BF052F9432214AB1A70A04915A80BF010
:108BD0004BF944221BAB1A709D491CA80BF044F9B9
:108BE000452222AB1A709B4923A80BF03DF946227F
:108BF00029AB1A7098492AA80BF036F9472230ABF6
:108C00001A70964931A80BF02FF9482237AB1A7029
:108C1000934938A80BF028F949223EAB1A709149C4
:108C20003FA80BF021F9FF234A226B445A758E4965
:108C300046A80BF019F998234B2269465B00CA54E9
:108C40004DA88A490BF010F9A6234C2269465B0017
:108C5000CA5454A886490BF007F9B4234D2269463B
:108C60005B00CA545BA883490BF0FEF8C2234E2276
:108C700069465B00CA5462A87F490BF0F5F8D0231F
:108C80004F2269465B00CA5469A87C490BF0ECF896
:108C9000DE23502269465B00CA5470A878490BF065
:108CA000E3F8EC23512269465B00CA5477A8754962
:108CB0000BF0DAF8FA23522269465B00CA547EA808
:108CC00071490BF0D1F88423532269469B00CA54A2
:108CD00085A86E490BF0C8F88B23542269469B0087
:108CE000CA548CA86A490BF0BFF8922355226946F2
:108CF0009B00CA5493A867490BF0B6F899235622F3
:108D000069469B00CA549AA863490BF0ADF8A023AA
:108D1000572269469B00CA54A1A860490BF0A4F8E9
:108D2000A723582269469B00CA54A8A85C490BF0A7
:108D30009BF8AE23592269469B00CA54AFA85949F3
:108D40000BF092F8B5235A2269469B00CA54B6A884
:108D500055490BF089F8BC23312269469B00CA545F
:108D6000BDA852490BF080F8C323322269469B000C
:108D7000CA54C4A84E490BF077F8CA233322694677
:108D80009B00CA54CBA84B490BF06EF8D123342278
:108D900069469B00CA54D2A847490BF065F8D8230E
:108DA000352269469B00CA54D9A844490BF05CF8A7
:108DB000DF23362269469B00CA54E0A840490BF0E5
:108DC00053F8E623372269469B00CA54E7A83D4979
:108DD0000BF04AF8ED23382269469B00CA54EEA8EE
:108DE00039490BF041F8F423392269469B00CA54F3
:108DF000F5A836490BF038F8FB23302269469B0072
:108E0000CA540023221D1C26E26022612371A36044
:108E10006361FCAA20000BF00FF97642F5AD6E44B9
:108E200028001C3D0EF0E9FCB542F9D100232000DA
:108E3000A361FC239B009D4470BDC04610FCFFFF56
:108E4000EF87020021880200D987020028880200EB
:108E500030880200DE8702002E8802001B88020094
:108E60002988020003880200EE870200E3870200DF
:108E7000358802002F88020034880200E88702004B
:108E8000ED870200DA87020022880200368802009D
:108E9000F38702000F880200F8870200F2870200C1
:108EA000F787020027880200FC8702000288020080
:108EB000088802000E880200148802001A88020046
:108EC00020880200268802002C88020032880200D6
:108ED0001423F0B5040093B0009319221821043034
:108EE00002F056FE2200250026006432B43513211C
:108EF00010001092B83607F0ADFE28000CF016FDF9
:108F000000221E2130000CF0AEF92000D03002F01B
:108F100089FA2200F03211920621464A119801F096
:108F20007DFE20000027012369301A0000971121DF
:108F3000FF3001F0D9FA200091300097012302227E
:108F40001A21FF3001F0D0FA2000B9301A23012194
:108F50000222FF3002F022FB300001F0D1F8E422BF
:108F60005200A050300001F019FBE6235B00E050F6
:108F70000100E42220005200D130119BA25800953C
:108F8000FF3001F05BFD2000E13029001C22FF30A2
:108F900002F096FF192320000F93013B0E93013B33
:108FA0000D93013B0C93013B0B93013B0A93013B57
:108FB0000993013B0893013B0793013B0693013B57
:108FC0000593013B0493013B0393013B0293013B57
:108FD0000193F930013B082200930721013BFF3048
:108FE0000CF062F9CA239B00E018290003F07AFF15
:108FF000D3239B00E0181D2102F0A0FBDD239B0082
:10900000E7501098277003210EF015F82300220076
:10901000200009499C33A0321C6011605760074A48
:1090200080305A610221012208F0AAFA200013B010
:10903000F0BDC046B07C0200E1400200CB4002001F
:109040000123F0B5067891B004001E4060D1030002
:10905000D0331800039300F0B7FA00F0DDF92820B0
:109060000EF0E4FA050010300BF0C4FA664B18203D
:109070002B600EF0DBFA0700644B0460082231001D
:109080000C300E930F960EF0E1FC0EA9381D08224D
:109090000EF0C0FC5E4BAF607B611223EE60AB80D4
:1090A0002E626E622900039802F030F9002805D084
:1090B00028000BF0A9F928000EF0ADFA0123227860
:1090C0005449134323702300B433180004930CF065
:1090D00033FC5149029004980CF02EFC00270690B6
:1090E000642000F08FFB3D003E0023006933FF3316
:1090F000180005930BF0ABFC00280BD1029B002B52
:1091000011D1069B002B0ED14449454800F05AFC72
:1091100011B0F0BD20009130FF300BF098FC00281A
:10912000ECD0182EEADC2000653029B23AB2FF23D9
:10913000FF30013500F048FEEDB2322000F062FB56
:109140000136052D02D100250137FFB2029B192EF1
:1091500006D0002BC9D02F49049802F045FE01E04B
:10916000002BF8D102980EF056FA06980EF053FA3A
:109170002A492C4800F026FCCA239B00E3180793D9
:10918000DD239B00E3580893002B36D100F058F8FC
:1091900001000AA800F068FD0BF027F808900BF01A
:1091A00024F86B460990198C0CA80BF094F9099BD4
:1091B0000DA8190C0BF08FF90DAA0CA90BA80BF038
:1091C000F6F90DA80BF06AF90CA80BF067F901236A
:1091D0000BAA0AA900930798039B03F0D9FE0BA8DA
:1091E0000BF05CF90AA80BF059F9CC239B00E3586B
:1091F0000893DD23089A9B00E2502100059AF03184
:10920000079804F0BFF870E7FD0300005341020027
:10921000134102006E8802007988020000200020BD
:1092200008000020001C0020BFF34F8F024B034AB0
:10923000DA60BFF34F8FFEE700ED00E00400FA05AF
:10924000F0B58DB005AF1922154938000EF0E2FBDC
:109250000022144B05245A7180225205566E0122B9
:1092600025000194029203930199300008F0BAFBA3
:109270000800029908F030FB019B03996B430193AE
:10928000029B361A6B430293631E2C1B6C433C19E2
:10929000225C1C1ECA54E7D108000DB0F0BDC046C8
:1092A00089880200B3290020F0B597B01822002168
:1092B000060010A80EF0CAFB132110A80DF0FAFF4B
:1092C000032110A80EF0C5F84C4B1B68002B00D1F1
:1092D0000133DBB202934A4A012300210BA808F0B4
:1092E00089F8484B9E4200D9002672B6464B64214D
:1092F0001D68464B30000793052408F077FB604358
:109300005030281808900A21300008F06FFB0A211D
:1093100008F052FC614350316918099130000A216C
:1093200008F04AFC802361430024503169189B01F6
:109330000A910193029B002B5DD0002500272E1F70
:1093400007AB9B190593032C03D1802300249B01B9
:10935000019307AB5B592E4A03936300D318049320
:109360000023190006205843049A16187678B4464C
:109370006246039EB25C10269446049A105C6246D4
:109380000641164202D00120984001430133092BC7
:10939000E8D1C9431F4B059A090119401268039B84
:1093A000934225D1312F23DC00210BA80EF012F9B6
:1093B000FA23159A1199DB00106801421BD0013B7A
:1093C000002BF9D1019B01345B000193FA23013793
:1093D000E4B25B009F42B6D10435102DAED1074BED
:1093E0001B68002BA6D0029F013FFBB20293A1E7AE
:1093F000019B1943D9E7FFF717FFC046302600202D
:10940000F0FF0000E703000004200020D8880200DD
:10941000A2880200F01F0000F8B50023124C236060
:109420000AF0D5FE002808D0042120000AF0CBFE67
:10943000002801D00D4B2360F8BD0122A12704258F
:109440000B4B0C491A602268FF0048604E68002EE2
:10945000FCD0DE591202013D3243002DF5D12260CD
:1094600001225A60E8E7C0462C260020ED5EBC0BC6
:1094700000D00040FCD000400B4B70B51C68002CA5
:1094800010D0656D00F0ACFBA36C002901D18342C4
:1094900006D820000AF0CEFE044920000AF0B8FEEB
:1094A0002C00ECE770BDC04638260020582600206E
:1094B000F0B593B007932A4B04AC1E680490059155
:1094C0000692002E4AD0274B258867881C68002307
:1094D0000293002C2ED0636D23480393A36C9AB2A1
:1094E000A36C1B0C99B2854214D12048824211D141
:1094F000002B01D0B9420BD1029B002B08D12000D8
:109500000AF098FE1A4920000AF082FE0123029315
:10951000039CDEE7002A01D09542F9D1002B01D04F
:10952000B942F5D120000AF085FE114920000AF069
:109530006FFEEDE70F4BEB18012B0FD910233A000C
:10954000009329000C4B08A80AF048FF336808A9CB
:109550009B683000984708A80AF056FF13B0F0BD8A
:109560003426002064260020FE030000FF030000D4
:109570005826002002FCFFFFB194010010B572B61E
:109580000B4B1C68002C08D020000AF053FE00236F
:10959000E364084B2000E36310BD62B65C200EF06C
:1095A00045F85C22002104000EF050FAEFE7C046B7
:1095B0005C26002000400020024B18780123184050
:1095C0007047C046B9290020F7B50600FFF7F4FF41
:1095D000051E33D11A4C2660FFF7D0FF194B1A49EC
:1095E00018600AF015FEFFF7C9FF184B1860184BFA
:1095F0004363184B8363206800280ED0C027164EA3
:109600002A00330015490097FEF7B2FE0097330099
:109610002A0013492068FEF7ABFE0C200EF006F876
:109620000023838083710F4B03600F4B836000F036
:10963000EFFA01230D4A11780B431370F7BDC046B2
:1096400034260020682600205826002060260020AE
:10965000FC3F0020FB420200B1940100FF03000028
:10966000FE030000D07C020079940100B92900209B
:10967000F7B506000D0017000193002802D1002461
:109680002000FEBD0029FAD0FFF778FF041EF6D0B7
:10969000074B019A4363066045608760054B002ACB
:1096A00000D0054BA363054920000AF0B1FDE7E7B0
:1096B000FC3F0020C5420200E34202005826002081
:1096C000024B1868434258417047C0465826002054
:1096D000002310B504499C006258002A01D00133D0
:1096E000F9E76050100010BD40260020002310B59F
:1096F000044A99008C58844201D00133F9E70020D4
:10970000885010BD4026002010B50024084BA20050
:10971000D058002802D003685B6898470134062CB3
:10972000F4D1044B1B68002B00D120BF10BDC046F4
:109730004026002058260020F8B5FFF73DFF0028FE
:109740001CD02A4D2C68E36CDA0718D502273B435E
:10975000E364274B1E680423F26C30001343F36468
:10976000636BF3630AF08CFD3000716C04F0FFF959
:109770002868C36C3B4201D004F033FAF8BD1D4F9A
:109780001D4E3A683168002A1ED129602A6891422C
:1097900008D11B0706D52C60FFF7B6FF3B68002BEE
:1097A000FAD02B6029688C42E8D03368994214D1F2
:1097B000124B4B63124B8B6320000AF061FD29684A
:1097C000626C4B6C20000DE0206DB84203D1606DDF
:1097D000002800D002002A60D8E79C42ECD1002289
:1097E00010004B6C04F082F9C8E7C04668260020E0
:1097F0003C2600205826002060260020FC3F002048
:10980000FB42020070B50500FFF7D6FE002803D129
:1098100028000DF012FE70BD0C4B1C68E36CDB07DA
:1098200006D5FFF7ABFE0A4B1860002800D00400F5
:1098300000F0D6F92D18A56420000AF0FBFC0549BC
:1098400020000AF0E5FCFFF777FFE4E76826002038
:109850003C26002038260020F0B51E4B1E4F1C6809
:109860003B6885B006000391002B30D0FFF7A4FEC3
:1098700000282CD0E36CDB070ED5FFF77FFE174BDB
:10988000051E186008D00AF0D5FC154928000AF01A
:10989000BFFC2C00FFF750FF039B20001B04334349
:1098A000A3640AF0C7FC20000E490AF0B1FC0E4B7D
:1098B0000024F318012B07D9C0230093039A0B4B04
:1098C00031003868FEF754FD200005B0F0BD084CAB
:1098D000FAE7C04668260020342600203C260020F7
:1098E000582600206426002002FCFFFFB1940100EE
:1098F00016FCFFFF10B5FFF75FFE002809D0054CEE
:1099000020680AF097FC044920680AF081FCFFF700
:1099100013FF10BD682600205C260020F7B5070065
:109920000D0000282ED0FFF747FE00282CD007247A
:10993000164E3068C36C1C4007D0154A2900380009
:109940000AF08FFC00242000FEBD04F032F9022151
:109950003268D36C1940019103D003218B43D36447
:10996000F1E701242343D3642800B8473268D36C5D
:109970001900A143D164019C5B07E4D528000AF0DB
:10998000A8FCE0E7034CDEE7034CDCE76826002098
:10999000D342020017FCFFFF16FCFFFF020010B5C8
:1099A000014B12CB12C210BD6C260020034B1A686B
:1099B000034B1A607E225A607047C0460420002084
:1099C0006C26002070B5114E3278022A1AD08142DE
:1099D0001AD90C1A072C17D90D00032305432B4065
:1099E00012D172B60A4DD2005051AA18516080228D
:1099F000A40812061443046032780132327062B651
:109A0000180070BD0348FCE70348FAE7BB290020B3
:109A10007426002013FCFFFF17FCFFFF70B5134CEA
:109A200006002378124D002B0CD1124912482B70DE
:109A3000FFF7C8FF114B984202D11E20FFF734FCFC
:109A40000123237000242B78A34209DD0C49E30095
:109A5000C91830000AF057FC002805D10134F2E79C
:109A60001420FFF721FC002070BDC046BA29002059
:109A7000BB29002000380020882A002017FCFFFFA7
:109A80007426002070B5002819D0104B10491C789E
:109A900000239C4216DDDA005558854210D28A1800
:109AA000526882420CD9041F2368002B02DC1E205E
:109AB000FFF7FAFB802322681B061343236070BD67
:109AC0000133E6E71E20FFF7EFFBF8E7BB29002094
:109AD0007426002070B5051E14DD0B4E0B4C336848
:109AE000002B02D020680DF023FBFA21206800240F
:109AF000074B89008361C462694335600DF020FB28
:109B0000200070BD0348FCE784260020B426002016
:109B1000BD9B010017FCFFFFF8B5114F06003D6823
:109B2000002D0AD130200DF081FD040007F0B6F8B9
:109B30000C4BA5612360E5623C600B4D2B68002B4C
:109B400009D110200DF072FD04000DF0BAFA2000CA
:109B50002C600DF090FA3000FFF7BCFFF8BDC04656
:109B6000B4260020D0840200B0260020014B1868E3
:109B70007047C0468426002070B50D4C2368002B2A
:109B800003D00C4B1B68002B02D10620FFF7C4FF4B
:109B900020680DF087FA02000749C3170D684E6868
:109BA0005219734120680A604B600DF081FA70BD54
:109BB000B0260020B42600201822002010B5FFF7A0
:109BC000DBFF0024054BA200D058002802D0036818
:109BD0001B68984701340A2CF4D110BD8826002058
:109BE00010B5FFF7C9FFFA22034B920018685968B5
:109BF000002308F021F810BD1822002010B5FFF74F
:109C0000BBFF024B1868596810BDC04618220020DF
:109C10000B4B10B51B680400002B03D0094B1B68CD
:109C2000002B02D10620FFF777FF0023064A990098
:109C30008858002801D00133F9E78C5010BDC04688
:109C4000B0260020B426002088260020002310B56E
:109C5000044A99008C58844201D00133F9E700206E
:109C6000885010BD8826002010B50400002902D0BD
:109C70000B78002B03D1034B2360200010BD0AF0AA
:109C800014FCFAE7E07C0200F8B5040008000D00BF
:109C90000AF0DBFD002803D1134B23602000F8BD40
:109CA00028000AF0D2FD0530FFF7B8FE20600AF068
:109CB000CFFD28000AF0C9FD2368588023682800DA
:109CC0001E1D0AF0BFFD070028000AF0BEFD390086
:109CD000020030000DF09EFE280026680AF0B5FD57
:109CE000002336183371D9E7E07C0200F8B5040090
:109CF0000E00150000290AD00B78002B07D0002A8F
:109D000005D0080097B20DF0E9FE874203D90B4B4E
:109D100023602000F8BD681DFFF780FE20600AF078
:109D200097FD23682A005F8023683100181D0DF01D
:109D300071FE23685D1900232B71EAE7E07C0200C5
:109D4000014B03607047C046E07C020010B5054837
:109D5000054C20600AF07FFD044A054920000DF003
:109D60005EFC10BDE07C0200B82600200020002030
:109D70009D440200084B73B51C680500002C0AD0F6
:109D8000010026680831082268460DF043FE0CCD1C
:109D900031682000884773BDBC260020014B03605A
:109DA0007047C046E87C020010B50400002903D1CA
:109DB000044B0360200010BD016008000AF04BFD59
:109DC000F8E7C046E87C020030B500684488A1424C
:109DD0000CDA8588AA4209DA002907DB002A05DBAC
:109DE0005443401800198371002030BD0048FCE73F
:109DF00017FCFFFFF0B5070085B00E001D0000291D
:109E000021DD002A1FDD002B1DD004686388039329
:109E10008B4200DD0391A3880293934200DD0292FE
:109E2000002306340193019B029A93420EDA290023
:109E30002000039A0DF0EEFD3B68AD195B88E41835
:109E4000019B0133EEE7024805B0F0BD0020FBE7BF
:109E500017FCFFFFF8B504000D0016001F000029D5
:109E600001DB002A02DA0E4B2360F8BD10004843E4
:109E70000630FFF7D3FD20600AF0EAFC23685D801E
:109E800023689E80002F06D03B003200290020006E
:109E9000FFF7B0FFE9E720000AF0FDFBE5E7C04669
:109EA000E87C0200F7B506000D1E03D1244B0360C9
:109EB0003000FEBD00200F000400010001903B783F
:109EC000002B1AD03022524294469C446246092A02
:109ED00011D90A2B0AD1019B241801330193A14205
:109EE00000DA2100002004000137E8E70028FBD059
:109EF00001340020F8E70120F6E70127019A09B2B2
:109F000012B230007F42FFF7A5FF39000A20336804
:109F10009A1D2C78002CCBD02300303B092B08D87D
:109F2000FB43DB173B4043431B19303B1F0001350C
:109F3000EFE7002FFBDB177001320F00F7E7C04699
:109F4000E87C0200F0B5040089B006A80E00029279
:109F50001D00FFF723FD236802995A88914235DAE4
:109F60009B889D4232DA1F2E30D9079B01939E4277
:109F70002CDC0523002273430393069B0493039B6D
:109F800004999B18A03BCB5C00210593AE18029B63
:109F9000CF1823685888019087420EDA9888B0421B
:109FA0000BDDDB1910270F41019870431B18059832
:109FB0000740781E87417F429F7101310529E6D114
:109FC0000132052ADBD1002009B0F0BD0048FBE7D3
:109FD00017FCFFFFF7B50468070063880E1E0193A6
:109FE0001EDD994218DA0023063400933B68009A7C
:109FF0009B889A4212DA019BA1199D1B2A0020001E
:10A000000DF008FD601931000AF028FB3B685B8801
:10A01000E418009B0133E8E70AF03DFB002000E074
:10A020000048FEBD17FCFFFF10B50548054C206039
:10A030000AF011FC044A054920000DF0F0FA10BDA9
:10A04000E87C0200C0260020002000204F460200CD
:10A0500010B5054C012120000AF0E5FB034A044934
:10A0600020000DF0DCFA10BDC426002000200020E6
:10A07000D34702000388074A10B50120934208D055
:10A08000834202D00020DB0703D41E20FFF70CF927
:10A09000002010BDFFFF00000048704716FCFFFFC6
:10A0A00010B53220FFF700F9004810BD16FCFFFF85
:10A0B00010B5124C002308348280046041620224EF
:10A0C0001422010083718472036383860281363116
:10A0D0000A78C360A243F134224003614361836183
:10A0E000C36103620A70020040321370021DD387FD
:10A0F000013343878387C38710BDC046087D0200B4
:10A10000F0B5544F97B03B6806000593002B00D084
:10A110008BE006AC0B331C222121200001F076FAE3
:10A120000EAD0B231D2222210AA801F06FFA0B238A
:10A130001B222321280001F069FA08200DF076FA8D
:10A140000122059B110004900BF021FF3A21300001
:10A150000BF077FC00281DD0A38812ADAB80A3794B
:10A160005C20AB713C4B1293A3681493237B2B733D
:10A17000637B6B73A37BAB730DF058FA04230193DD
:10A18000363300932A00049B3100040002F09CF94E
:10A190003C604AE0322130000BF081FC00281CD0EA
:10A1A000A38812ADAB80A3795C20AB712A4B1293CC
:10A1B000A3681493237B2B73637B6B73A37BAB73B9
:10A1C0000DF034FA042301932E3300932A00049BEC
:10A1D0003100040002F016FBDAE73C2130000BF0FE
:10A1E00019FC00282CD0AB8812ACA380AB79A4203A
:10A1F000A371194B1293AB6814932B7B23736B7B66
:10A200006373AB7BA3730DF011FA05230500029372
:10A21000013B0193383300932200049B310002F08C
:10A2200071F80E4B3D6044351D600C4B094C1868AD
:10A23000002802D021680AF078FC206817B0F0BD31
:10A2400044200DF0F3F9042204990400FFF730FFD5
:10A250009EE7C046C8260020F87C0200CC260020DD
:10A26000F0B56149C56885B08D4254DA0300022219
:10A2700036331B78134059D104698C4264DA0200EA
:10A2800036321278520768D4426901920200019E68
:10A2900040328E426FDA010036310978090774D4F2
:10A2A000002B7DD113780293002B16D006000127D6
:10A2B000011DCB8F363601339BB2CB8703963678A0
:10A2C000BC46374000D188E01D2B06D963469E432B
:10A2D000039B1E700023CB8713700AF006FB434AD2
:10A2E0000723904276D94249043B8D4272DBC82253
:10A2F0000133920095426DDC023B8C426ADB013BEC
:10A30000944267DC01980433884263DB0133904256
:10A3100060DC00235EE0C822002352009542ABDDE2
:10A32000030036331A7800239207A5D401230600D0
:10A330001F00363632785408A7433C0002279C4061
:10A34000BA432243327097E7C822520094429BDD01
:10A35000020036321278520796D4060001223636B1
:10A3600033789F08BA439700042293431A003A4374
:10A370003270012388E7C821019E49008E428FDD9B
:10A3800001003631097809078AD4010001263631E7
:10A390000B78DF08BE430827F600BB4333430B703E
:10A3A0001378032B00D97DE70133DBB21370012B47
:10A3B00003D10021031DD98774E7042B00D071E776
:10A3C000020036321178033B0B4313700023043034
:10A3D000C3870B33180005B0F0BD092B00D87CE70C
:10A3E000029BCF87013B77E770FEFFFFFF70020003
:10A3F000E0FCFFFF70B5C369C1681A68451D8AB0EB
:10A400000400EB7F114255D0002B58D1EB7F082B75
:10A410000DD90122A379134209D11343A371A18855
:10A42000130006A80AF0F0F8FFF7DAFB2062EB7FD2
:10A43000012B23D80123A2791A421FD00025A1881D
:10A44000A571022202A80AF0DFF8A31DDE7F012E0B
:10A4500014D1FFF7C5FB2B00226A801A99410090A6
:10A460000191019BA188AB4203D1174B009A9A42FC
:10A4700027D90123042206A80AF0C6F80322A379EB
:10A480001340012B14D1FFF7ABFB0023226A801A83
:10A490009941994202D10D4B984209D90223A279E0
:10A4A000A1881343A3710522012306A80AF0ACF882
:10A4B0000AB070BD0B2BA9D80133EB77A6E7013B9F
:10A4C000FBE733000322D6E7E7030000DB050000CB
:10A4D00010B50400034B08330360FFF7B7FB2000FF
:10A4E00010BDC0463C7D0200F0B5070000250E00FF
:10A4F000040085B002930AAB1B78083703930F4B17
:10A500000192083303608580857129001822380084
:10A510000DF09CFA039A310038000CF0D0FE019B3C
:10A52000029AA380A31DE671DA77631D25622000DD
:10A53000DD77FFF76DFB200005B0F0BD3C7D02002C
:10A540000048704716FCFFFF10B53320FEF7ACFE45
:10A55000004810BD16FCFFFF002310B504008380E7
:10A5600083710D482164083020608020C000A06104
:10A57000E0612062E3602000236163616362A362A3
:10A58000E36223636363A363E363636411000AF01C
:10A59000A4FA200010BDC046547D0200F0B5534F10
:10A5A00097B03B6806000593002B00D08BE00B337F
:10A5B0001C22212106A80AAC01F028F80EAD0B23BD
:10A5C0001D222221200001F021F80B231B22232130
:10A5D000280001F01BF808200DF028F80122059B47
:10A5E000110004900BF0D3FC1D2130000BF040FA59
:10A5F00000281DD0A38812ADAB80A3796020AB7179
:10A600003B4B1293A3681493237B2B73637B6B7375
:10A61000A37BAB730DF00AF8052301931833009365
:10A620002A00049B3100040002F022F83C604AE05A
:10A630003C2130000BF04AFA00281CD0A38812AD50
:10A64000AB80A3796020AB71294B1293A36814935C
:10A65000237B2B73637B6B73A37BAB730CF0E6FFE5
:10A6600005230193373300932A00049B3100040033
:10A6700002F06AF9DAE73C2130000BF0CBF9002850
:10A680002AD0AB8812ACA380AB79A420A371184B5D
:10A690001293AB6814932B7B23736B7B6373AB7B3D
:10A6A000A3730CF0C3FF052305000293013B019344
:10A6B000383300932200049B310001F023FE0D4B40
:10A6C0001D6044353D600B4B084A1B681068002B29
:10A6D00000D0436417B0F0BD48200CF0A7FF05225E
:10A6E00004990400FFF738FFA0E7C046CC260020FD
:10A6F000F87C0200C826002082B0F0B50400EDB05E
:10A700006420739372920CF098FE052210A8110039
:10A7100009F0CAFF974911A8FFF7C4FB002221AB3B
:10A720006CA91A605A609A600C339942F9D11922C7
:10A73000002113A80DF08AF9A0680AF08DFD00260B
:10A740000B90FF21A06800F047FD8B4FA06800F040
:10A750005DFB07960996884B9F4203D0874B9F422B
:10A7600000DBFDE0A0680AF079FDA56884491AA81D
:10A77000FFF77AFA78221AA9280000F075FC1AA8C7
:10A7800009F08CFE00267C4F0322099B6068013390
:10A790001A4009920AF041F9050060680AF044F98C
:10A7A0000022784B05929D4210DB013205922A006F
:10A7B000C8320BDBAA22042192000591954205DCE8
:10A7C00002220592C82D01DD013205920022069277
:10A7D000984210DB012306930300C8330BDBAA2346
:10A7E00004329B000692984205DC02230693C82897
:10A7F00001DD0133069310A809F04DFF002513ABCE
:10A80000EB5C012B08D160496B00CA185278C95C17
:10A8100010A8FF23FFF7D8FA0135192DEFD16B46A9
:10A8200018229A5E6B4610A81421595E099BFFF707
:10A83000CBFA002F01DB0F2E07D90023A06800936D
:10A8400074301A0010A909F03CFF01230893089BFB
:10A8500005995A004C4B9B189A1E12788A4226D1B1
:10A86000013B1B78069A934221D1089A6CAB9B1846
:10A87000663BFF3B0A931B78012B18D00C23079AE9
:10A88000216853431D0000220CA80AF050F921AAA8
:10A890002B0094460CAA634423CA23C301220A9BBB
:10A8A00001361A70079BF6B20133DBB20793089B9F
:10A8B000013308931A2BCAD164200CF0BEFD079B0C
:10A8C000643F3FB2182B00D845E71A0021A91AA807
:10A8D0000AF03BFB6A461DAB23CB23C21B68136007
:10A8E0001A991B9A1C9B20680AF009F9E568002D4B
:10A8F0000CD0264912A8FFF7B7F91C231AAA12A9EF
:10A9000028000BF052F812A809F0C8FDA0680AF060
:10A91000A5FC11A912A8A56809F0A6FE00221C4BEF
:10A92000009212A901932800130000F00DFB12A859
:10A9300009F08DFEFA2080000CF07FFDA0680AF07F
:10A940008DFC0B99A06800F047FC11A809F07FFE70
:10A9500010A809F07CFE6DB0F0BC08BC02B018472E
:10A96000002F02D00F2E00D00EE7A06800F04EFAA4
:10A970000AE7C046B88A02008C3C0000D18AFFFF7B
:10A98000FD8A020058FDFFFF1D8B0200128B0200A2
:10A99000DC050000F0B587B001930EAB1B88060004
:10A9A00003930D9B0D000093019B02920C9F002BC3
:10A9B0003CD0002F02D1009BDB0737D528200CF0BC
:10A9C00035FE0400103009F015FE029B182025808A
:10A9D00063800CF02BFE0500009B08220593019B71
:10A9E000002103600C3004970DF030F8082204A910
:10A9F000281D0DF00FF80E4B02226B610023039906
:10AA0000E3602362636233680A43A560A2805B68E7
:10AA1000210030009847002806D0200009F0F4FCFF
:10AA200020000CF0F8FD034807B0F0BD0248FBE73A
:10AA30006F4B020016FCFFFF17FCFFFF70B58CB0D8
:10AA40008360109B01604260C360040018491800D5
:10AA50000AF072FF051E14D001001C22103105A857
:10AA60000CF0D8FF6A4608AB43CB43C21B681360A7
:10AA700020680599069A079B0AF041F828000CF017
:10AA8000CAFD0C4B186800280ED00B4A05AB059286
:10AA900000220692C03202926A4622CB22C22300D2
:10AAA00003220521FFF776FF20000CB070BDC046E1
:10AAB000128B0200BC260020F9A60100F0B50400AC
:10AAC00085B0637A9C46002B04D120000AF05BFA23
:10AAD00005B0F0BDA37A266F01931023019AF356B7
:10AAE00000259B1801229A402900F36803920293E3
:10AAF000029BAB4231DDB368019A6B439B187269CC
:10AB00005B00E77AD3181A785878E379012F14D1CB
:10AB10005F1E3F1A10003A005B004343606F8218CB
:10AB2000D3189B79634500DD6346627B1A4202D0ED
:10AB30000123AB4019430135DAE7022F05D15F1E2F
:10AB4000BA1A277A013F381AE6E7032FE4D1277AA9
:10AB5000013FBF1A02003800DEE71123C943F35654
:10AB6000606C994023691940039B19430CF032FD36
:10AB7000A27B072AACD8637B0C495B006373531C30
:10AB8000DBB290004158A373022A03D808000CF0EE
:10AB900049FC96E7064B2000236300236363054BC3
:10ABA000E462236414300CF0CBFA91E7807D02005C
:10ABB000BDAA0100714F020010B50400044B0360F0
:10ABC0000CF0B6FA200006F07FF8200010BDC04659
:10ABD000D084020010B504000E4B08330360FFF769
:10ABE00035F82000743009F032FD2000603009F0A3
:10ABF0002EFD2000583009F051FC2000503009F0A3
:10AC00004DFC2000044B14306361FFF7D5FF20009A
:10AC100010BDC046A07D020004850200F8B50025E5
:10AC20000400324B858008330360857114301600B0
:10AC30000F0006F033F820002D4BE56263612564B8
:10AC40005030FFF77DF820005830FFF779F82000EA
:10AC50006030FFF7A3F820000423F25E3368266714
:10AC6000590009B2743009F01FFD3368226FE37197
:10AC700073680126237210236581A7802561D3564E
:10AC800091685918994204DD30009840013305431A
:10AC9000F8E711230120D356D1685918994206DDEF
:10ACA00002009A402669013332432261F6E71420FC
:10ACB0000CF0BCFC226900212A430123060006F0A7
:10ACC00099FBFF23220063720133A38100234832E2
:10ACD0006664A37320001370A366FEF799FF012337
:10ACE000A27920001343A371F8BDC046A07D0200E5
:10ACF00004850200F0B5437A85B00400002B04D12E
:10AD000020000AF040F905B0F0BD0122837A11005D
:10AD10009C461023066F0025F35603926344994026
:10AD200002912900F3680193019BAB422CDDB368CB
:10AD300072696B4363445B00E77AD3181A785878DA
:10AD4000E379012F10D15F1E3F1A10003A005B001B
:10AD50004343606F8218D3189B79002B02D0039B6A
:10AD6000AB4019430135DFE7022F05D15F1EBA1A48
:10AD7000277A013F381AEAE7032FE8D1277A013F03
:10AD8000BF1A02003800E2E71123C943F356606C92
:10AD9000994023691940029B19430CF01BFC667A09
:10ADA000B31EDBB2FC2B14D8FEF7E0FE0B4B050004
:10ADB000236300230A4863630A4BFF21E462236490
:10ADC000704306F013FE29004143200014300CF0BC
:10ADD000B7F9637A012B00D995E791E7874F020015
:10ADE000B6030000714F02001FB5012381881A00CD
:10ADF000684609F009FC012303491A00684609F076
:10AE000003FC05B000BDC046FE0300001FB50300F3
:10AE100048331A780400002A0DD000221A7001234A
:10AE200081881A00684609F0EFFB012304491A00E3
:10AE3000684609F0E9FB2000743009F02CFC1FBDC6
:10AE4000FF03000010B548300378002B06D00378CC
:10AE5000012B03D00121024809F02BFA10BDC04696
:10AE6000FF03000010B501210400062009F021FABB
:10AE7000064B984208D148342378002B04D023781D
:10AE8000012B01D020BFF7E710BDC04616FCFFFF25
:10AE900070B50600141E19DB050048352B78002B11
:10AEA00002D02B78012B13D1002330001A0074300C
:10AEB000FFF748F8002C07D033004A331C800024E9
:10AEC00007234C3634802B70200070BD014CFBE70B
:10AED000014CF9E717FCFFFF12FCFFFFF8B5170064
:10AEE0000A68050052880B00012A09D100211800C8
:10AEF00009F073FB002201002800FFF7C9FFF8BD2D
:10AF0000002F19DD060048363278002A02D0327848
:10AF1000012A13D12A00002428005C321900148071
:10AF2000583009F025FB2B004A331F8003234C3592
:10AF30002C8020003370E2E70148E0E70148DEE7BB
:10AF400017FCFFFF12FCFFFF73B5079C0500002CE8
:10AF50001CDB060048363078002802D03078012803
:10AF600016D106981BB2C0B20090280012B27430FD
:10AF700009F0A7FB002C07D02B004A331C800024CB
:10AF800007234C352C803370200076BD014CFBE745
:10AF9000014CF9E717FCFFFF12FCFFFFF7B50500B6
:10AFA0000E00171E26DDFFF74DFF2B0048331C78DF
:10AFB000E4B2002C20D133685B88012B09D1210039
:10AFC000300009F00AFB220001002800FFF760FFB3
:10AFD000FEBD310001A809F0C3FA3A0001A928001A
:10AFE000FFF77CFF01A809F059FA2800FFF73AFFA4
:10AFF0002000EDE70148EBE70148E9E717FCFFFF18
:10B0000011FCFFFFF0B587B00D9C06000F00029207
:10B010000393002C20DBFFF715FF330048331D7826
:10B02000EDB2002D1AD1390005A809F01DFB0C9BCB
:10B0300001940093029A039B05A93000FFF784FF57
:10B0400005A809F004FB002C03D03000FFF70AFF2D
:10B050002C00200007B0F0BD014CFAE7014CF8E7E6
:10B0600017FCFFFF11FCFFFFF8B50400171E1DDDE4
:10B07000060048363378002B02D03378012B17D1E5
:10B080002200E3795632013B137023000025200093
:10B0900054331D80503009F06BFA23004A331F806F
:10B0A000022328004C3425803370F8BD0148FCE7AA
:10B0B0000148FAE717FCFFFF12FCFFFFF7B5050098
:10B0C0000F00161E18DDFFF7BDFE2B0048331C785D
:10B0D000E4B2002C12D1390001A809F041FA320083
:10B0E00001A92800FFF7C0FF01A809F0D7F928003F
:10B0F000FFF7B8FE2000FEBD0148FCE70148FAE773
:10B1000017FCFFFF11FCFFFFF8B50400171E2DDD33
:10B11000060048363278002A02D03278012A27D138
:10B120005D42069BFF331FD16B1D22001BB26432B0
:10B1300013802300200066331D70603009F09CFAF4
:10B14000230000226C331A70954200D03D0023008A
:10B150004A331D80079B00205A1E9341013F4C3407
:10B16000053327803370F8BD069BDEE70148FAE718
:10B170000148F8E717FCFFFF12FCFFFFF0B587B0AE
:10B1800005000F00161E03931EDDFFF75BFE2B006C
:10B1900048331C78E4B2002C18D1390005A809F016
:10B1A00063FA0D9B320001930C9B05A900932800C4
:10B1B000039BFFF7A9FF05A809F049FA2800FFF74C
:10B1C00051FE200007B0F0BD0148FBE70148F9E758
:10B1D00017FCFFFF11FCFFFFFF2902D8417200207E
:10B1E00070470148FCE7C04617FCFFFF13B5040099
:10B1F00004A80078009020000BF0C8FF002801D1BF
:10B20000207516BD0048FCE70EFCFFFF13B50400D7
:10B2100004A80078009020000BF0A0FF002801D1C6
:10B22000207516BD0048FCE70EFCFFFF7FB50D0042
:10B2300011000F226A4404001E1E117016D0089BD4
:10B24000002B13DD012329000093FFF7DFFF002807
:10B2500002D0074804B070BD0090089B320029005E
:10B260002000FFF7C3FF0028F4D0F2E70148F1E720
:10B270000EFCFFFF17FCFFFFF7B507000D1E3FD0C8
:10B280000023022604690193002C35D0AA88A388E4
:10B290005340334204D1324204D1AB88334226D0EA
:10B2A000646AF1E7A968A0680AF056FE0028F4D0A5
:10B2B0002B88002B02D022889A42F1D16B88002B78
:10B2C00002D062889A42EBD1EB68E268934201D0E7
:10B2D000002BE5D17B68002B01D020009847A28885
:10B2E000084B1343A380019B01330193D8E7A36864
:10B2F000AA689342D4D1DBE7019B2000002B00DC3D
:10B300000148FEBD0080FFFF17FCFFFFF0B50600FF
:10B3100085B00D1E5DD001270469002C26D00221C6
:10B32000AA8800230A4202D0A3885B083B40226817
:10B3300029688A4214D1A068A968002B0ED00AF0AF
:10B340000BFE00280CD0EB68E268934208D1A3887A
:10B350001AB2002A06DB204805B0F0BD8842F2D0C0
:10B36000646ADAE75B045B0CA380F4E730692A883F
:10B37000002807D1356101231849684609F044F9CE
:10B380000020E9E7010003001C88944206D25C6AB1
:10B390001900002C0DD02300F6E723001C889442EE
:10B3A00007D15F886C88A74203D85C6A1900002C1B
:10B3B000F3D1884209D10B889A4204D305D1488839
:10B3C0006B88984201D96962D4E74B6A6B624D621F
:10B3D000D1E70348C0E7C04616FCFFFFFD030000AD
:10B3E00017FCFFFF064B10B51A00040008322C337F
:10B3F000026083600830FEF779F9200010BDC04676
:10B40000B87D020008B4024B9C46083808BC60476F
:10B41000E5B3010008B4024B9C46083808BC6047FD
:10B42000CF5302000C4A002311002C32083110B512
:10B430004360838183738260036143618361C3835B
:10B44000016004000830FEF743F9044B1A68002A33
:10B4500000D11C60200010BDB87D0200BC26002079
:10B46000F7B50E00012504690192002C36D023881F
:10B4700032889A4201D0002B23D1638872889A4285
:10B4800001D0002B1DD1FEF797F80123002806D02C
:10B49000C022A3881340C03B5A425341DBB2019AF9
:10B4A000934219D1A7883BB2002B15DB1022310043
:10B4B000A0180CF0AFFA40231F4204D0200009F07E
:10B4C0008FFF646AD1E7FEF777F80028F6D02100F5
:10B4D0000348FEF723FAF4E70025F2E72800FEBD53
:10B4E000E153020008B4024B9C46083808BC604790
:10B4F00069550200F0B587B001930EAB1B880600BA
:10B5000003930D9B0D000093019B02920C9F002B57
:10B510003CD0002F02D1009BDB0737D528200CF050
:10B5200085F80400103009F065F8029B182025808A
:10B5300063800CF07BF80500009B08220593019BBB
:10B54000002103600C3004970CF080FA082204A953
:10B55000281D0CF05FFA0E4B02226B610023039949
:10B56000E3602362636233680A43A560A2805B687C
:10B57000210030009847002806D0200008F044FF42
:10B5800020000CF048F8034807B0F0BD0248FBE784
:10B59000A355020016FCFFFF17FCFFFFF0B50400E7
:10B5A000160000258380164A164B857102602181A2
:10B5B00046810573186889B08C46A8421DD0124A8E
:10B5C00005950492C02202926A4604AB82CB82C2E5
:10B5D00023002A006146FFF78DFFC022094B0A496C
:10B5E000186802926A46069106AB079582CB82C222
:10B5F00023002A003100FFF77DFF200009B0F0BDD5
:10B60000FC7D0200BC260020CD56020030B500248F
:10B6100003730123034D847105608180827343733A
:10B62000846030BDF87C020070B583790400DB07CC
:10B6300002D580680BF0EFFFA3799B0702D5A068C5
:10B640000BF0E9FFA3795B0707D5A0230021144A7B
:10B65000DB00D150A0680BF0DEFFA3791B0708D5F3
:10B66000A568002D05D028000AF0E7FC28000BF0A3
:10B67000D2FFA379DB0605D5A068002802D00368B5
:10B68000DB6898476023A2791A4205D0A068002899
:10B6900002D003685B6898470023A360A37170BD64
:10B6A00000700040F7B50126037B040033422AD026
:10B6B000612385791D4017D1FFF7B6FF18200BF0E5
:10B6C000B5FF0E230700E35618220093637B290081
:10B6D00001930CF0BBF9019A009938000BF0EFFDD3
:10B6E000A379A7603343A3716023A279A0681A42AB
:10B6F00002D00BF099FCFEBD436940681B681840FE
:10B70000431E9841F7E70148F5E7C04616FCFFFFE6
:10B7100010B50124837941731C4004D080680BF07C
:10B7200098FE002010BD6022134203D080680BF009
:10B7300082FCF6E70048F5E716FCFFFF70B5040051
:10B7400000250C4B0E0008338580857103602100B5
:10B7500018300AF06CF82000210020300AF092F82E
:10B76000054BA680E5802572E560256165612000B6
:10B770001C6070BD0C7E0200D026002010B50C00AD
:10B7800008F025FD002821D1532C21D802220121C7
:10B79000104BDA67104A114B586111615969002941
:10B7A000FCD0A121C90054500021596001315160E1
:10B7B00059680029FCD0002018610123C021936042
:10B7C0000222074B49005A501A6010BD0548FCE799
:10B7D0000548FAE704E100E000100040FC100040DA
:10B7E00000E100E016FCFFFF17FCFFFF8379DB0799
:10B7F00002D5C160002070470048FCE716FCFFFF3F
:10B800008379DB0701D5C06870470148FCE7C04673
:10B8100016FCFFFF70B545690400002D22D0037AA5
:10B82000032B21D8FFF7ECFFA8622C200BF0FEFEC3
:10B830002C22002105000CF009F9002263695A62EC
:10B840002369934208D1636923610020237A6561EB
:10B850000133237270BD13005A6A002AFBD162695A
:10B860005A62F2E70148F5E70148F3E717FCFFFFEA
:10B8700013FCFFFF144B70B55A68144C002A03D018
:10B8800000225A600132A2601A69002A17D00021F2
:10B8900019618023DB000E4DE3582868012B0FD17E
:10B8A000A923DB00E1584942FFF7A0FF2868FFF712
:10B8B000B1FF2B685A69074BE2500123A36070BDAA
:10B8C000FFF794FFF9E7C046FC100040001000406D
:10B8D000D02600200405000070B505000C0008F01B
:10B8E00076FC002804D1034A034BEC71D45070BDA0
:10B8F0000248FCE7001000402405000016FCFFFF92
:10B90000F8B5837905000020DB0768D408F05FFCF8
:10B91000002865D16E69002E08D12C300BF086FE10
:10B9200004002C2231000CF091F86C616B69002B43
:10B9300058D000222C4B01215A608022D205116080
:10B940005A68002AFCD00622284B294C9A56294BCB
:10B950000026E2500722043BE2500833E650264A14
:10B96000264B2800E250E979FFF7B6FF01220821B3
:10B97000234B2448E6500433E250234B234FE1503D
:10B980000433E05002232248235022482750224FFC
:10B99000043827501827214827506F69204827501E
:10B9A000C120800021501F498538FF380B500B60A3
:10B9B0008021890060580E33034363501A4B5E6048
:10B9C00062605A68002AFCD0002601271E61280008
:10B9D000A760FDF77DFE3000AB791F43AF71F8BD66
:10B9E0001248FCE71248FAE7FC000040DA8B02003C
:10B9F000001000400C050000746962751C05000011
:10BA00002C0500002000040214050000FFFF0000C8
:10BA1000340500003C050000211001005405000021
:10BA20000405000000E100E0FC10004016FCFFFFF0
:10BA300013FCFFFF03000069002809D00221054A1A
:10BA4000D167426A1A611A7A013A1A72024B196076
:10BA50007047C04604E100E000E100E070B504007A
:10BA60000D0008F0B4FB00283AD1002D3AD02B7815
:10BA7000232B37D802221C4B1C49DA671C4B013A96
:10BA800058610A615A69002AFCD00020194A8D5079
:10BA900058600130086058680028FCD00020186108
:10BAA0000130886018690028FCD060698850002245
:10BAB0005A6101320A615A69002AFCD000225A6098
:10BAC00001324A605A68002AFCD000201861012324
:10BAD0008B60C0210222084B49005A501A6070BD89
:10BAE0000648FCE70648FAE704E100E000100040E1
:10BAF000FC1000400405000000E100E016FCFFFF20
:10BB000017FCFFFF37B54C680500002C04D10C4929
:10BB100008F066FE28003EBD636A01A84B602278EB
:10BB2000211D033AA36A08F087FE20000BF073FD85
:10BB300001A9280008F054FE01A808F04AFEE9E730
:10BB4000C426002030B505008DB0002912D0232A6C
:10BB500010D801ACD31C002023700123A07002A8D0
:10BB60006370E3700BF056FF21002868FFF776FF43
:10BB70000DB030BD0048FBE717FCFFFF10B50029F2
:10BB800003DB024B19600BF051FB10BDD4260020E3
:10BB900070B504001E0004AB1D7805F0C7F8200046
:10BBA0000E4B40302360FEF7CBF8230001364C33B8
:10BBB000013522001E701D730023E1214E32A36463
:10BBC0006365138053809381D381013B20006364BC
:10BBD0004902FFF7D3FF200070BDC046A87C0200D9
:10BBE000F7B580277F053D697C690822113C6C43CD
:10BBF0000600210068460BF00DFF104B009A9A4298
:10BC000019D00093002301937969300013396943F7
:10BC100009F04DFE019A0099300009F060FE210004
:10BC2000300009F044FE7969AB08133969432200FA
:10BC3000300009F046FE0198FEBDC046FECA000075
:10BC4000F0B50D00A9B00D9200213022060010A819
:10BC50000B930BF0FBFE28000BF040FF431C0C93F2
:10BC6000102B00D9B5E00B9B202B00D9B1E02900A7
:10BC7000300009F061FE071E50D129000C9A10A86F
:10BC80000BF0C8FE0D990B9A14A80BF0C3FE80238D
:10BC90005B051A695F690C92113F7A4330005D6958
:10BCA0000B92FFF79DFF3022002104001CA80BF02F
:10BCB000CDFE290000270C9B13395943300009F0B1
:10BCC000F6FD0D9730257D430B9B0833ED18A742F9
:10BCD00042DA290030221CA80BF09CFE10A91CA8F7
:10BCE0000BF0EAFE002827D13C49300022000E91DB
:10BCF0000F9409F0F4FD6A46099513AB23CB23C2D8
:10BD000023CB23C223CB23C23000129B1099119A5C
:10BD100009F0F3FD01230D930137D3E710300B9A9F
:10BD20000D990BF068FE040038000BF074FC002C39
:10BD3000A3D1200029B0F0BD6A4609951FAB23CBE3
:10BD400023C223CB23C223CB23C230001C991D9ACC
:10BD50001E9B09F0D2FDDFE7E5433023ED172540B8
:10BD60005D430B9B08355D190D9B002B1DD10C9B72
:10BD70003021981E05F0B0FDA0422CD017490134A7
:10BD8000300022000E910F9409F0A9FD6A46099532
:10BD900013AB23CB23C223CB23C223CB23C230003C
:10BDA0001099119A129B09F0A8FD0B99300009F027
:10BDB0007EFD80235B0559690C230C9A133963437C
:10BDC0004A430233110030000B9A09F07AFD002437
:10BDD000AFE7034CADE7034CABE7C046FECA00003B
:10BDE00017FCFFFF13FCFFFF8023F0B55B051A690A
:10BDF00095B003925A6905910399113A51435D69CF
:10BE0000039B133D040002915D43FFF7E9FE061E0C
:10BE10003BD0002730220021083508A801950BF0FF
:10BE200015FE0199200009F042FD049730237B4361
:10BE3000029D0835ED18B7421FDA2900302208A804
:10BE40000BF0E8FD059908A80BF036FE00280AD192
:10BE50001949721E20000691079209F040FD012346
:10BE600004930137E2E70C23019A2900200009F02E
:10BE700028FD019B30330193F3E7049B002B06D18F
:10BE80000D493200200009F02AFD0C4812E0029909
:10BE9000200009F00CFD80235B0559690C23039AEF
:10BEA00013394A437343110020000233029A09F008
:10BEB00008FD002015B0F0BDFECA00000CFCFFFF1D
:10BEC00070B50400A280FA22002308000C499200F9
:10BED00008312160A3716061E260A3606382094957
:10BEE00009F02AFD051E09D00100200010310222B0
:10BEF00012300BF08FFD28000BF08DFB200070BD81
:10BF0000247E02004F8B020030B50225837987B072
:10BF100004002B4204D1FDF7DBFBA3791D43A5717F
:10BF2000200009F053FD00281CD06B46DD1C2800C2
:10BF300009F043FD2B78002B17D001A809F03BFD39
:10BF40000321019AD3170B409B189B102382FDF706
:10BF500047FEE368A18818180123A0601A0002A810
:10BF600008F052FB002007B030BD0122064B1A60DA
:10BF7000064A51680029FCD000215160044A126829
:10BF8000019201225A60DBE700C00040FCC0004083
:10BF900008C50040022802D10122014B1A707047E7
:10BFA000BC29002070B5064C05002378002B04D175
:10BFB000044802F0A7FC01232370280070BDC0468E
:10BFC000BD29002095BF010070B50C0008F0FFF8F6
:10BFD000002810D00023144DA40A2B70200009F073
:10BFE00009FD002803D00A200BF027FAF6E72B788A
:10BFF000002BFCD070BD02210C4B0D4A99508021C2
:10C00000C90008005D58002DFCD0A121C9005C507A
:10C0100019580029FCD0002199508021C9005A5894
:10C02000002AFCD0E6E7C046BC29002000E0014021
:10C0300004050000F8B50C0015001E0008F0C7F854
:10C04000002811D00023174F3B7032002900200038
:10C0500009F0CEFC002803D00A200BF0EEF9F4E73B
:10C060003B78002BFCD0F8BD01210F480F4B8446D4
:10C0700019508021C9005A58002AFCD0802700227C
:10C08000FF00964207DD910068586050D959002999
:10C09000FCD00132F5E7002261465A50DA59002AF5
:10C0A000FCD0E0E7BC2900200405000000E00140CE
:10C0B00008B4024B9C46443808BC6047F95902005A
:10C0C000FA21F8B50389C90004005943324809F040
:10C0D00059FFFA21890005F0FFFB304F2081A17A3A
:10C0E000380009F04FFF23002600250022894C3339
:10C0F000A072A0361A808C35317800232A22286855
:10C1000009F0B9F8002801D02548F8BD31781F237F
:10C110005B22286809F0AFF80028F5D13178202398
:10C120005C22286809F0A7F80028EDD131780123B6
:10C130002C22286809F09FF80028E5D131780123E6
:10C140002D22286809F097F80028DDD131780123E5
:10C150002E22286809F08FF80028D5D1A17A38005E
:10C1600009F00BFF3178C3B20E22286809F083F87A
:10C170000028C9D1FA21238989005943064809F0CA
:10C18000FCFE01230343DBB231782A22286809F040
:10C1900072F80028B9D0B7E7447E02003C7E020066
:10C1A0000EFCFFFF08B4024B9C46443808BC6047B5
:10C1B000C1C00100074B10B51A00040008323C331F
:10C1C00002604364443008F056FC200008F07FFB16
:10C1D000200010BDA47E020008B4024B9C464438E7
:10C1E00008BC6047B5C1010008B4024B9C46443806
:10C1F00008BC6047035A0200F0B5042583798BB070
:10C2000004002B4204D1FDF763FAA3791D43A57105
:10C2100020009030FFF746FA0026B0420FD12300ED
:10C22000A033197820000C2307AD00938C302B002D
:10C2300001220068FEF7FAFF061E03D02C4E3000E4
:10C240000BB0F0BD0A2304AA9B182A785A706A78AA
:10C250001A700022985EAA785A70EA781A70002242
:10C26000995E03912A795A706A791A7000229F5E4A
:10C27000AA795A70EA791A7000215A5E04922A7AD1
:10C280005A706A7A1A7000215A5E0592AA7A5A7018
:10C29000EA7A1F251A7000229B5EA27A03999C46B7
:10C2A000514349425043CB172B407A435B185B11F3
:10C2B000A361C3172B401818D3171D406423AD1872
:10C2C000059A5B425343A36764236146049A401175
:10C2D0005A434B43E2676D11221DE0612562200045
:10C2E000D36708F06DFB2000443008F0CBFBA6E7D5
:10C2F0000EFCFFFF08B4024B9C46443808BC604764
:10C30000F9C10100F7B51E00040008AB1B88150039
:10C31000019309AB00911A8831000AAB1F88FDF721
:10C32000C7FE20003A0031004430FEF715F9134BE8
:10C3300020001A003C336364230008322260009A14
:10C340008C331A60AB8890308380AB79019A83710B
:10C350000B4B03210360AB6883602B7B03736B7B08
:10C360004373AB7B83732300A0331A80FFF7D0F9AC
:10C370002000FFF7A5FE2000FEBDC046A47E0200FF
:10C38000F87C0200F8B5FA260189B6000400714372
:10C39000264809F0F7FD310005F09EFA244F208170
:10C3A000A17A380009F0EEFD2500A07258352978F1
:10C3B00000232A22606C08F05EFF002801D01D488F
:10C3C000F8BD297810232B22606C08F054FF002858
:10C3D000F5D1297801232D22606C08F04CFF00284C
:10C3E000EDD1297801232E22606C08F044FF00284B
:10C3F000E5D1A17A380009F0C0FD2978C3B20E2238
:10C40000606C08F038FF0028D9D1218907487143B2
:10C4100009F0B3FD01230343DBB229782A22606CC3
:10C4200008F029FF0028CBD0C9E7C0460C7F0200E6
:10C43000047F02000EFCFFFF10B50400034B08331D
:10C44000036008F044FA200010BDC0466C7F020073
:10C450007FB50425837904002B4204D1FDF738F918
:10C46000A3791D43A57120004830FFF71BF9002573
:10C47000A8420DD1230058331978062302AE009349
:10C4800001223300606CFEF7D1FE051E03D00D4D76
:10C49000280004B070BD022300210420F356A27AC4
:10C4A000DB00715630565343C000C900514342432C
:10C4B0005B42A3612368E16122629B6A2000984786
:10C4C000E6E7C0460EFCFFFFF8B50400150006AA1B
:10C4D000168807AA0F0012881900FDF7E9FD0F4B17
:10C4E0006764083323602300AA8848339A80AA79B6
:10C4F00020009A710A4AA264AA6822652A7B1A73EC
:10C500006A7B5A73AA7B9A730023A3712300583362
:10C510001E80FFF737FF2000F8BDC0466C7F020089
:10C52000F87C020010B50400034B0833036008F0E8
:10C53000A2FA200010BDC04600800200F0B507003E
:10C540005C3787B00400397800231022806C08F033
:10C5500092FE0326002802D01F4807B0F0BD0F2529
:10C5600002ABED180123397808220093A06C2B0050
:10C57000FEF75CFE184B9842EED02B78334203D086
:10C580006420FDF73FF9EAE7FA262189134DB6004A
:10C590007143280009F0F6FC310005F09DF9208177
:10C5A0003978A0231122A06C08F065FE0028D3D1B1
:10C5B000A36C21890393714328003F7809F0DDFCC7
:10C5C00001231843C3B210223900039808F053FE28
:10C5D0000028C2D0C0E7C0460EFCFFFFA07F0200CB
:10C5E00070B50825837986B004002B4204D1FDF78D
:10C5F0006FF8A3791D43A57120004C30FFF752F866
:10C60000061E0DD023005C331978062304AD009379
:10C6100001222B00A06CFEF709FE061E03D0134E6C
:10C62000300006B070BD0E232A786B445A706A78C9
:10C6300020001A700022995E64224A43A263AA78FD
:10C640005A70EA781A700022995E6422524251436D
:10C650006163297959706979197000215B5E5A43C9
:10C660002368E2631B6A9847DAE7C0460EFCFFFFC7
:10C67000F8B50400150006AA168807AA0F0012884C
:10C680001900FDF769FF0D4BA764083323602300F1
:10C69000AA884C339A80AA7920009A71084AE264E9
:10C6A000AA6862652A7B1A736A7B5A73AA7B1E8208
:10C6B0009A73FFF743FF2000F8BDC04600800200D8
:10C6C000F87C0200F7B5FA250189204FAD0004007F
:10C6D0006943380009F056FC290005F0FDF8A17AFD
:10C6E00020811B4809F04EFC2600636CA072009369
:10C6F00021895836337869433800019309F03DFCAD
:10C7000007230343DBB220220199009808F0B3FD10
:10C71000002801D00F48FEBD317810232222606C22
:10C7200008F0A9FD0028F5D1A17A0948656C377891
:10C7300009F023FC80235B420343DBB22322390050
:10C74000280008F098FD0028E5D0E3E734800200D7
:10C750002C8002000EFCFFFF10B50400034B0833D1
:10C76000036008F0B4F8200010BDC046A4800200A9
:10C77000F0B50425837985B004002B4204D1FCF781
:10C78000A7FFA3791D43A57120004830FEF78AFF5B
:10C79000061E0DD0230058331978062302AD0093EE
:10C7A000A8222B00606CFEF741FD061E03D0144E3C
:10C7B000300005B0F0BD1F200023EA5ED317034010
:10C7C0009B180222A95E5B11CA170240521804216D
:10C7D0006F5E5211F9170140C91949112B806A8007
:10C7E000A980A07A4343424341435B42E36123680B
:10C7F0005242A26121629B6A20009847D8E7C04656
:10C800000EFCFFFFF8B50400150006AA168807AA5B
:10C810000F0012881900FDF74BFC0F4B67640833BB
:10C8200023602300AA8848339A80AA7920009A714D
:10C830000A4AA264AA6822652A7B1A736A7B5A7321
:10C84000AA7B9A730023A371230058331E80FFF73D
:10C8500039FF2000F8BDC046A4800200F87C020029
:10C86000F7B5FA2504000189134EAD006943300085
:10C8700009F088FB290005F02FF82700A36C208120
:10C8800000935C373B7881B269433000019309F033
:10C8900074FB6022C3B20199009808F0ECFC0028F8
:10C8A00001D00648FEBD397801236222A06C08F051
:10C8B000E2FC0028F6D0F4E7D88002000EFCFFFF6F
:10C8C00010B50400034B0833036008F0D4F82000CF
:10C8D00010BDC046008102007FB5082583790400A1
:10C8E0002B4204D1FCF7F4FEA3791D43A57120006F
:10C8F0004C30FEF7D7FE051E0DD023005C331978AF
:10C90000062302AE0093E8223300A06CFEF78EFCF3
:10C91000051E03D00B4D280004B070BD0223F25E4B
:10C9200096235B425A4362630021725E20005343A8
:10C93000A3630423F25E96235343E36323681B6AD5
:10C940009847E8E70EFCFFFFF8B50400150006AABB
:10C95000168807AA0F0012881900FDF7FDFD0D4B80
:10C96000A764083323602300AA884C339A80AA79ED
:10C9700020009A71084AE264AA6862652A7B1A73E9
:10C980006A7B5A73AA7B1E829A73FFF769FF2000A5
:10C99000F8BDC04600810200F87C020010B504001A
:10C9A000054B083303601C3007F078FD2000183079
:10C9B00007F074FD200010BD2C810200FF23F0B5AC
:10C9C0002C4D8DB02B700023040069460088009325
:10C9D00004F032F8002802D16B469B782B70264E6B
:10C9E0003368DB68002B07D1002320881A00190068
:10C9F00009F077F80DB0F0BD2B78032BF4D81F4960
:10CA000001A8FDF731F9336801A9DE6804A807F031
:10CA1000A7FD04A9300008F0C2FF0027060004A803
:10CA200007F03CFDBE421ED031002022103104A888
:10CA30000AF0F0FF30000AF0EEFD297804ABC900DF
:10CA40005918082202A80AF0E5FF208801230822CD
:10CA500002A909F046F80137002804D12088084AC5
:10CA60000C2109F03CF801A807F018FD002FBBD0FD
:10CA7000C0E7C046EC210020E4260020E28B020043
:10CA8000FFFF0000F0B5837991B004005B071BD570
:10CA9000FDF7A6F800232269801A9941994203D133
:10CAA000F423FF3398420FD9A068002808D0364BF2
:10CAB0001D8809F0DFFA036815221B6A29009847D0
:10CAC0000422A3799343A371A3799B0759D52F4DD2
:10CAD0002B68DB68002B50D02D4B1B78032B4CD8D8
:10CAE000294B2C491B8804A80193FDF7BDF82B683E
:10CAF00004A9DE6808A807F033FD08A9300008F093
:10CB00004EFF070008A807F0C9FC02AB9E1D0823D2
:10CB10003200338006A9073B019808F0E4FF002F9C
:10CB200008D039002022103108A80AF073FF38001D
:10CB30000AF071FD164B32881B7806A9DE0008AB9F
:10CB40009E1930000AF057FF002813D0082206A9CA
:10CB500030000AF05FFF2B6804A9DD6805A807F024
:10CB6000FFFC202308AA05A9280008F01EFF05A83D
:10CB700007F094FC04A807F091FC0222A3799343E8
:10CB8000A37111B0F0BDC04660290020E42600204A
:10CB9000EC210020E28B0200F7B5089E0500152964
:10CBA00022D8012007008F40244C27421CD0E97F67
:10CBB000CC181F2C41DC69183418A14210D8002170
:10CBC000C8B2834204D9545C701884700131F7E70D
:10CBD00032789A183270EA7F9B18EB7700202CE0AD
:10CBE0000878C8540139E8E73478013CE4B2A3423C
:10CBF00008D10023D9B28C42F0D9D05CF1188870EA
:10CC00000133F7E7EF7F0120FF183F1B1F2F14DCD4
:10CC10000227A01C7F423618381B0190E87F2F188E
:10CC2000BE4204D23078019FF0550136F6E7041B6E
:10CC3000023CEC77280008F0A0FFFEBDFC002000BD
:10CC4000F0B5040085B001930AAB1E880BAB1B78CE
:10CC5000451C02930EAB1B78170003930B78102230
:10CC600003704B8A0131438228000AF0D3FE2683E9
:10CC700000260122019B67616383039BE683237780
:10CC8000029B2000EB77A31CDA770C9B0C256362D8
:10CC900023000D9A28331A705E709E702A003100AE
:10CCA0002C300AF0D3FE2000064BE663A3632A0073
:10CCB000310040300AF0CAFE2000034B2665E364D1
:10CCC00005B0F0BDFD5A0200EF5A020070B50D002C
:10CCD00009F0D0F904000368002D09D15B69984779
:10CCE000FA2080006843074904F0F6FDE08070BD3B
:10CCF0009B6898478542F3D2236820009B68984739
:10CD00000500EDE771020000F0B507001600A1B0C4
:10CD100002C704006B4918A81D0008F075FF331EF8
:10CD200003D030000AF0DAFE83B20122049200221E
:10CD300003920292023201920093320018A9380045
:10CD4000FFF77EFF23006049583318A8079308F0C7
:10CD50005BFF2B1E03D028000AF0C0FE83B2012225
:10CD600004920022039202920232019200932A005E
:10CD700018A90798FFF764FF23005449AC3318A89B
:10CD8000089308F041FF269B002B03D018000AF0FF
:10CD9000A5FE83B201220492002203920292023283
:10CDA00001920093269A18A90898FFF749FF631C7F
:10CDB000FF33474918A8099308F026FF279B002B4B
:10CDC00003D018000AF08AFE83B2012204920022E6
:10CDD000601C03920292023201920093279A18A9D2
:10CDE000FF30FFF72DFF23005533FF33394918A8D3
:10CDF000099308F009FF289B002B03D018000AF0C4
:10CE00006DFE83B20122049200220392029202324A
:10CE100001920093289A18A90998FFF711FF23009F
:10CE2000A933FF332C4918A80A9308F0EDFE299B7B
:10CE3000002B03D018000AF051FE83B201220492A5
:10CE4000002218AD03920292023201920093299AB5
:10CE500029000A98FFF7F4FE204B1B780B93002B58
:10CE60002CD1079B12971393089B0DAF1493631C4F
:10CE7000FF331593099B1A4916930A9B38001793A1
:10CE800008F0C2FE1D2149203B7810222B707B8ABE
:10CE900012AE6B8206ABC918C0180AF0BBFD0623A0
:10CEA0002B750B9B2068AB83AE6109F0E7F8036834
:10CEB00029001B6898470122084B1A70200021B0F6
:10CEC000F0BDC046292A0000242A0000252A0000BF
:10CED000272A0000262A0000282A0000BE29002058
:10CEE0000A18000070B5002504000B4B858008333C
:10CEF00085710360C1601830FCF722FF20001C30F0
:10CF0000FCF71EFF0123621CD377044AA56065610C
:10CF100020001460A37170BD2C810200E426002063
:10CF2000FA2130B585B00500012302228900684648
:10CF300007F06AFB074C2068002809D008F09DFE26
:10CF40002988054B22681980022391790B4393713C
:10CF500005B030BDE42600206029002010B50C008B
:10CF600007290DD8806809F085F8064B1957036822
:10CF70005B6C9847431E9841034B4042184010BDDC
:10CF80000248FCE7DA8B020016FCFFFF17FCFFFFEC
:10CF9000F0B5A44C0D00A544040007939AAB1B7890
:10CFA000A14909A804930692FCF75EFE200029001F
:10CFB0001C3007F0DDFAC020800001F099FC082049
:10CFC0000AF034FB0600002100F0AEFE15ADA660AD
:10CFD00000210C220EA80AF039FD2B000EAA83CAEC
:10CFE00083C3924B2900EB60002330002B6109F0D2
:10CFF0002AF8A06809F03EF808220021059016A83A
:10D000000AF024FD14200AF011FB29000200884BCD
:10D010001593C8C9C8C2874B059EC3600023A436B8
:10D0200003613368002B00D0F5E03060A06809F0A0
:10D0300025F808220021060016A80AF007FD142092
:10D040000AF0F4FA7C4B1593030086CD86C37B4B24
:10D05000C36000230361336B002B00D0DDE030633D
:10D06000A06809F007F808220021050016A80AF0B8
:10D07000EDFC14200AF0DAFA714B15AE159303009B
:10D0800086CE86C36F4B9835C360002303612B683F
:10D09000002B00D0C3E02860012504AB1B7C04AA50
:10D0A0002B4308A92800137408F01FFDA06808F09E
:10D0B000E9FF036864495B6A9847A06808F0E2FFEB
:10D0C000036862499B699847A06808F0DBFF00236A
:10D0D00002680093166804992A00B047049B002B4D
:10D0E0000AD0200008F0D2FD032805DDA06808F072
:10D0F000C9FF0368DB6898470EA808F035FD2F20AC
:10D1000004ABC01808F030FD362004ABC01808F09E
:10D110002BFD3D20042504ABC01808F025FD0EAB07
:10D120000A93A06804AB5D7708F0ACFF03680AA916
:10D130001B699847A06808F09DFF03680AA95B6D0A
:10D140009847A06808F096FF03680021DB6D9847B8
:10D15000A06808F08FFF036802219B6D98470021AB
:10D160002000FFF7FBFE18200AF060FAA16800F02B
:10D1700055FA374B374A1B68A1680393364B15A8FD
:10D180001B6800260293354B0CAF1B680193069B6E
:10D190001B685B190093324B12681B68FFF7B4FDE4
:10D1A00030200AF043FA079AA16800F0F7FAA06865
:10D1B00008F060FF036839009B6A9847294BBE80DE
:10D1C000A0680C9308F056FF03683900DB6A9847A3
:10D1D0002900A06808F024FD099A09219378A06825
:10D1E000521908F030FDA06808F044FF32210671A2
:10D1F000A068FFF76BFD04AB1B7FB34204D0A068AF
:10D2000008F038FF08F0F6FC09A807F047F9952365
:10D210009B009D44F0BD036107E703611FE70361C5
:10D2200039E7C046ACFDFFFFC78C02000B5B020074
:10D2300021CF0100195B0200BDC90100275B02007C
:10D24000555B0200355B020069D201009DD20100EE
:10D25000E0260020DC26002008200020D826002020
:10D260000C2000200800100013B506226846FCF7C9
:10D270003DFD094B1C68002C0AD0694601A807F047
:10D280006FF9200001A908F022FD01A807F006F9B6
:10D29000684607F003F913BDE4260020002373B5A8
:10D2A00001AE0C0031000500019303F0C5FB00281E
:10D2B00002D1B278064B1A70064B1868002806D0C7
:10D2C00061426141044BC9B21D8008F008FD73BD85
:10D2D000EC210020E42600206029002030B5284CF5
:10D2E000A9B06A220D000DA821000AF093FB0DA938
:10D2F00003A8FCF759FD03A906A807F0B5F9012317
:10D300000193013BFF3B00930533FF33642206A9E1
:10D310002800FDF733FF06A807F099F9210019222C
:10D320006A3106A80AF076FB05220024110006AB3C
:10D3300004A807F0C0F904A905A807F095F901941D
:10D3400000942300220005A92800FDF75BFE05A834
:10D3500007F07DF921002800FDF73EFF0534052088
:10D36000FCF750FAFF2CF5D1FA208000FCF74AFABE
:10D3700004A807F06CF903A807F069F929B030BDDB
:10D38000578B0200F0B59C4B95B005921A680823A4
:10D3900004000391D16C06A80B43D3649749FCF7B2
:10D3A00063FC974907A8FCF75FFC220000250DAE3F
:10D3B00030001C3206A907F0FAF807AA310008A8C5
:10D3C00007F0F5F8300007F069F8631CDD77A06816
:10D3D00008F050FE03680BAF5B699847300008F017
:10D3E000C3FB2B2004ABC01808F0BEFB322004ABFB
:10D3F000C01808F0B9FB392004ABC01808F0B4FB22
:10D400008023DB00BB80A0680B9608F033FE036826
:10D4100039005B6D9847A06808F02CFE036829006E
:10D420009B6D9847A06808F025FE070006000A37A4
:10D430001F22290038000AF009FBFD77300008F0B0
:10D44000D0FB0621A06808F0EBFB089A092193782D
:10D45000A068043208F0F7FBA06808F00BFEC821B2
:10D460000571A068FFF732FCA06808F003FEFF27F3
:10D470002E000581A06808F0FDFD08F0BBFB0398B5
:10D48000FDF7C4FC2000FCF723F903992000FFF707
:10D4900025FF0399200008F035FC049501256369F8
:10D4A0001D402DD0574909A8FCF7FCFC09A90AA882
:10D4B00007F0DAF800220AA91300019200920398FB
:10D4C000FDF7A0FD0AA807F0C2F8049B002B42D18B
:10D4D000043F282F41DD0025FE2F00DC049D059828
:10D4E00007F0B5FA002806D0012362699A431300B9
:10D4F000042213436361002609A807F0A8F80495E5
:10D5000004226369134233D0FF210398C826FDF734
:10D5100063FE0025B600A36902229B5EAB4222DDBA
:10D52000200029B2183007F058F8002301000398B2
:10D530001A007430FCF706FD3000FCF763F903981D
:10D5400007F08CFEC820FCF75DF9022263691342E4
:10D5500009D10135DFE70437BBE7039807F07EFE0A
:10D56000002FBCDDBAE7FA208000FCF74BF900265B
:10D57000022365691D421CD006331D4024D0224978
:10D5800009A8FCF78FFC09A90AA807F06DF800228A
:10D590000AA90192009213000398FDF733FD0AA82F
:10D5A00007F055F81948FCF72DF909A807F04FF8CE
:10D5B000174E6420FCF726F9164B01369E4200DC1C
:10D5C0006CE706F016FE69E7134909A8FCF76AFC48
:10D5D00009A90AA807F048F82B002A000AA9019512
:10D5E00000950398FDF70EFD0AA807F030F809A88A
:10D5F00007F02DF8DDE7C04668260020EE8B02001C
:10D60000FE8B0200008C0200458C0200983A00005C
:10D610008C0A00008B0A0000828C02000022594B09
:10D62000F0B50833060003600F001000A9B0B16028
:10D630000BAB991801324870102AFAD10F3A524CAC
:10D640001A700E32105D991A0874013AFAD2997B59
:10D650005A7B09020A4331000C31039125211B78C2
:10D6600013AD2B7002ABC918452302A81B186A82A0
:10D67000180010220AF0CEF9039B64216B6101238C
:10D68000002402AA2B7752181993093313701DAB8B
:10D690001C706D2302AA9B181C706E2321009B181E
:10D6A0001EA80C22EC836C621C700AF0CFF9374B79
:10D6B0000C22210023A8AB63EC630AF0C7F9344BBA
:10D6C00002AAEB6446239B180322DA7722002C651A
:10D6D0000595347306AD2B1901345A70102CFAD10C
:10D6E00001232C482B700E33195CEA1A1174013B8C
:10D6F000FAD211212520AA7B6B7B12020BAC1343BB
:10D700002A78638202ABC9182270C01810220AF06E
:10D7100081F90123237505ABA36100233800A3839E
:10D7200008F0ACFC036821001B68984713ABDB8B47
:10D73000B068B38208F0A2FC002203680092B18AAC
:10D74000039ADC680123A047B06808F097FC070043
:10D75000142009F06BFF00220123040002610692ED
:10D7600040C00832290007930AF054F90A4BE360DD
:10D77000BB69002B03D13000BC6129B0F0BD23612F
:10D78000F9E7C04644810200DB8C0200FD5A02002A
:10D79000EF5A0200EB8C0200655D0200F0B5002636
:10D7A0000400724BDDB0083303608160C260868084
:10D7B000867132006E4947A808F074FB23001433C9
:10D7C0000125042708931223009704950193089AD2
:10D7D000330047A9039602961DA8FFF731FA3200DD
:10D7E000644947A808F05EFB0C2322000097103222
:10D7F00015AF0495019347A933000396029632A80A
:10D80000FFF71EFA32005C49380008F04BFB21009C
:10D810001C310991042308210495019100933900DA
:10D820003300099A0396029647A8FFF709FA3200D7
:10D830005249380008F036FB542009F0F7FE210069
:10D8400012220423183107910495019200930A00D3
:10D8500033003900039602960690FFF7F1F9069A15
:10D86000474B1000A262D4620AA9082230300A9302
:10D870000B960AF0CFF8434B069A09999363293225
:10D88000157026610422E66107980AF0C3F80422A5
:10D89000079908980AF0BEF86622032304A95218D3
:10D8A000D377BA225218D377872252005218D377EF
:10D8B000069A35490232D3771DAA0C9232AA0D92EC
:10D8C00047AA0E92069AA6850F9210A8320008F079
:10D8D000E9FA3021452004AA52181378123104AA1B
:10D8E0003B705218138811397B8204AB1022C9187F
:10D8F000C0180AF08FF804230CADA0683B75BD6119
:10D90000BE8308F0BBFB036839001B68984782227E
:10D9100004AB9B181B885432238404AB9B181B88D0
:10D920005432A38404AB9B181B88A068638408F05E
:10D93000A5FB0700142009F079FE0500134B0661D2
:10D94000082210C010A9109311960AF063F8104B2A
:10D95000EB60BB69B34206D1BD612000FBF7B8FEA6
:10D9600020005DB0F0BD2B61F6E7C046508102009B
:10D970001B8D0200FB8C02000B8D02002B8D020020
:10D98000775E0200E35D02003B8D0200FDD90100DD
:10D990000D5E0200F0B504000E00150085B01F00FA
:10D9A0000CAB1B881030019306F024FE26806580A6
:10D9B000182009F03BFE02AE050033000AAA03CA94
:10D9C00003C32F602800082700213A000C300AF01A
:10D9D0003DF83A003100281D0AF01CF8064B0222DF
:10D9E0006B61200000230199A5600A43E360A280D7
:10D9F0002362636205B0F0BD375E0200F0B50B89AB
:10DA00008DB00593CB68050004934B88828C9A42B5
:10DA10000ED1049C049B059A9B181B1B032B39DD1C
:10DA200062882188012308A806F0EEFD0434F1E79E
:10DA3000428C9A422ED1049C049B059A9B181B1B76
:10DA4000032B27DD2388282006936388EF6807933C
:10DA5000114B08930023099309F0E8FDC0236A469F
:10DA60000600029308AB03CB03C22B000699079A6A
:10DA70003000FFF78FFF3B6831005B683800984744
:10DA8000002805D0300006F0BFFC300009F0C3FDCF
:10DA90000434D1E70DB0F0BDF55E020070B50400AE
:10DAA00090B0806808F021FA022101401AD1A38DBC
:10DAB000002B17D00C4B6A4604931023E568A18510
:10DAC0000591029304AB41CB41C20A00230006A892
:10DAD000FFF760FF2B6806A99B682800984706A8F7
