:020000021000EC
:1080000000400020DD080200190902001B090200DF
:108010000000000000000000000000000000000060
:108020000000000000000000000000001D09020028
:1080300000000000000000001F09020021090200EA
:108040002309020049B301000105020023090200CF
:108050002309020000000000550602002309020067
:108060002309020069000200C5050200230902007D
:108070002309020023090200230902002309020048
:108080002309020023090200230902002309020038
:1080900023090200CDE1010059E301002309020098
:1080A0002309020023090200000000000000000074
:1080B00000000000000000000000000000000000C0
:1080C00010B5064C2378002B07D1054B002B02D0AE
:1080D000044800E000BF0123237010BD20220020CF
:1080E0000000000098B40200044B10B5002B03D030
:1080F0000349044800E000BF10BDC0460000000076
:108100002422002098B40200164B002B00D1144BFF
:108110009D46402292029A1A924600218B460F46B3
:108120001348144A121A11F04AFE0F4B002B00D0CC
:1081300098470E4B002B00D09847002000210400E8
:108140000D000D48002802D00C4800E000BF0CF0E4
:10815000BFFF2000290011F06BFA0CF0A3FFC0460E
:1081600000000800004000200000000000000000A7
:1081700018220020482B0020000000000000000012
:1081800010B50400034B036040300DF0DDFF20000C
:1081900010BDC04650A002000300083373B50400B0
:1081A0000D1E03601AD0080011F049FE2E18019030
:1081B0000F2807D9002201A9200008F037FC019BF5
:1081C0002060A36032002900206811F050FD0022D9
:1081D000019B216863602000CA5476BD014811F0FC
:1081E0001AFDC04665AD02000368426810B5D21A98
:1081F0005210914202D3034808F0FAFB4900581884
:1082000010BDC0461BAD0200F7B543680568040009
:108210005B1B009101925B100126002B00D01E0019
:10822000009A9E19551BB3422FD8002E2DDB002734
:10823000BE422BD17D19002D03D0019B00229B5EF5
:108240002B802168009B5D1A994203D02A003800D8
:1082500011F0A2FD6368009A02359A1A0192009A01
:108260007D19934204D0019A0099280011F094FDE1
:10827000019B2068ED18002801D001F04FF9730030
:10828000FB1827606560A360F7BD034E700001F026
:1082900025F90700CEE7C046FFFFFF7F70B586B027
:1082A00001006846FFF778FF114EB568341D002DB8
:1082B0000BD02800694610300DF0DCFC002802D1FC
:1082C0002C00AD68F3E7ED68F1E70436B44207D05F
:1082D0002100684610310DF0CDFC002800D034009C
:1082E00028342478684611F0ABFC200006B070BD3D
:1082F0003C22002037B500240625184B1B680133AB
:10830000A34213DD2B00634315480134C018FFF767
:10831000C5FF010001A80DF041FF782201A9114815
:1083200002F0D6FB01A80DF00FFFE6E70E4A136836
:10833000516800228B4202D01A800233FAE70B4ABE
:108340001368516800228B4202D01A800233FAE788
:1083500078220021024811F032FD37BD6C22002046
:10836000FE290020702300205422002060220020DB
:108370000023F7B52D4D01932A686B689B1A019A6B
:108380005B109A424FD211002948FFF72DFF0022BF
:10839000835E284E284F632B1DDDFA2B18DC3368D3
:1083A00001995C1C28003460FFF71EFF0623028839
:1083B0003968323A4B430A2A03D9204AD3182D226E
:1083C00002E01E4AD3182E221A55019B0133D1E731
:1083D0001B4A934213DD78220021184811F0EFFC6C
:1083E0000023019928003B603360FFF7FDFE0388FE
:1083F000323B0A2B14D92D22104B1A70E5E73B684B
:1084000001995C1C002328003C603360FFF7ECFE00
:10841000062302885C43323A084B0A2AD3D9CEE7B6
:10842000064B2E22E9E7FFF765FFF7BD5422002037
:1084300060220020782200206C220020FE290020EB
:10844000E7030000F7B501242C4800F027FB0121C9
:108450002B480EF0DDFA00262500002C03D001F099
:1084600005F9284B186001F001F90024264F386007
:10847000264802F0CFFE012810D1002CF8D101F0DF
:10848000F5F8204B1B68C01A214B1860BB23FB3842
:108490009B00834264412D190124E9E7002C15D08B
:1084A00001F0E4F83B68C01A1A4B18606B469E1D39
:1084B000D880310018480DF0CCFB154B31001B68FB
:1084C000164833800DF0C5FB2600C6E701F0CEF854
:1084D000FA239B000B4A6B431268801A8342C2DA6C
:1084E000002EC0D0FFF744FF0B4B26001A68012571
:1084F0005A600A4B1A685A60B5E7C04684220020C9
:1085000070230020802200207C22002010250020E3
:1085100074220020702200205422002060220020BB
:10852000F0B5B64C1C27A544B54C7F42200000F0A6
:10853000F5F920000024B34EB349320011F0A4FA3B
:10854000B248B34D0460290044608460320011F0E9
:108550009BFAB0483200290004604460846011F046
:1085600093FAAD496846FFF717FE41236A46AB49C7
:10857000137607A8FFF710FE42220DAB1A70A84928
:108580000EA8FFF709FE432214AB1A70A54915A8DF
:10859000FFF702FE44221BAB1A70A3491CA8FFF789
:1085A000FBFD452222AB1A70A04923A8FFF7F4FD7A
:1085B000462229AB1A709E492AA8FFF7EDFD4722F3
:1085C00030AB1A709B4931A8FFF7E6FD482237AB64
:1085D0001A70994938A8FFF7DFFD49223EAB1A709F
:1085E00096493FA8FFF7D8FDFF234A226B445A75EE
:1085F000934946A8FFF7D0FD98234B2269465B00BC
:10860000CA544DA88F49FFF7C7FDA6234C226946DF
:108610005B00CA5454A88C49FFF7BEFDB4234D2219
:1086200069465B00CA545BA88849FFF7B5FDC223C1
:108630004E2269465B00CA5462A88549FFF7ACFD2B
:10864000D0234F2269465B00CA5469A88149FFF7CD
:10865000A3FDDE23502269465B00CA5470A87E4900
:10866000FFF79AFDEC23512269465B00CA5477A8B4
:108670007A49FFF791FDFA23522269465B00CA54FA
:108680007EA87749FFF788FD8423532269469B0023
:10869000CA5485A87349FFF77FFD8B23542269468E
:1086A0009B00CA548CA87049FFF776FD922355228F
:1086B00069469B00CA5493A86C49FFF76DFD992346
:1086C000562269469B00CA549AA86949FFF764FD7F
:1086D000A023572269469B00CA54A1A86549FFF709
:1086E0005BFDA723582269469B00CA54A8A862498B
:1086F000FFF752FDAE23592269469B00CA54AFA82A
:108700005E49FFF749FDB5235A2269469B00CA54CA
:10871000B6A85B49FFF740FDBC23312269469B00A8
:10872000CA54BDA85749FFF737FDC3233222694613
:108730009B00CA54C4A85449FFF72EFDCA23332214
:1087400069469B00CA54CBA85049FFF725FDD123A9
:10875000342269469B00CA54D2A84D49FFF71CFD3C
:10876000D823352269469B00CA54D9A84949FFF746
:1087700013FDDF23362269469B00CA54E0A8464910
:10878000FFF70AFDE623372269469B00CA54E7A893
:108790004249FFF701FDED23382269469B00CA5488
:1087A000EEA83F49FFF7F8FCF423392269469B0005
:1087B000CA54F5A83B49FFF7EFFCFB23302269467A
:1087C000394D9B00CA542B1D2C71AC606C61EB6061
:1087D0002B61FCAA28000DF084FAF5AC6F44200050
:1087E0001C3C11F02DFAA742F9D132002F49280084
:1087F00011F04AF9FD239B009D44F0BD0CFCFFFFE6
:108800008422002000200020B18801005422002092
:108810000B5C020060220020D2AC020004AD02001A
:10882000BCAC02000BAD020013AD0200C1AC0200F3
:1088300011AD0200FEAC02000CAD0200E6AC02007D
:10884000D1AC0200C6AC020018AD020012AD0200AD
:1088500017AD0200CBAC0200D0AC0200BDAC0200F0
:1088600005AD020019AD0200D6AC0200F2AC020068
:10887000DBAC0200D5AC0200DAAC02000AAD0200AB
:10888000DFAC0200E5AC0200EBAC0200F1AC020090
:10889000F7AC0200FDAC020003AD020009AD02001E
:1088A0000FAD020015AD02003C220020455C020025
:1088B000EB23194A9B0010B5C2501C330400C018AA
:1088C0000DF042FCF1239B00E0180DF03DFC8423E9
:1088D0009B00E01801F076FA2000C530FF3000F070
:1088E00095FF20008D30FF3001F032FA2000653016
:1088F000FF3001F02DFA2000EC3001F005FF2000E0
:10890000D03002F025FB2000643007F00BFA201D68
:10891000FFF736FC200010BD4CA202001423F0B576
:10892000040095B0009319221821043002F05CFD78
:10893000220027006432B43713211000119207F08F
:10894000FDF938000EF008FC2200B83210921E210A
:10895000002210980EF07FF82000D03002F018FBB3
:108960002200EC3212920621494A129801F0F0FEE0
:1089700020000026012365301A0000961121FF30E7
:1089800001F0F2F920008D300096012302221A2115
:10899000FF3001F0E9F925002000C535B530FF357D
:1089A0001A2302220121FF3002F0B0FB10990423A8
:1089B0003A22280000F0DAFF84229200A2181392D3
:1089C00005231D22019300923B002A001099139861
:1089D00001F0EEFB96229200129BA01813992A0038
:1089E00001F0C0FD99229200A01839001C2202F06B
:1089F00027FE19239F220F93013B0E93013B0D93FA
:108A0000013B0C93013B0B93013B0A93013B099300
:108A1000013B0893013B0793013B0693013B059300
:108A2000013B0493013B0393013B0293013B019300
:108A30009200013BA01800930822013B07210EF091
:108A400012F8EB239B00E018390003F099F9F323A7
:108A50009B00E0181D2102F013FCFD239B00E65053
:108A600011982670032110F013FD2300220020002E
:108A700008499C33A0321C6011605660064A803061
:108A80005A610221012207F097FE200015B0F0BDC7
:108A900058A00200975D0200815D02000123F0B53D
:108AA000067889B004001E4000D0ADE0FD208005AE
:108AB00000F0DCFC2300D0331800029300F0B0FA81
:108AC00000F0A6F9282000F009FD050010300DF097
:108AD000D7FB4E4B18202B6000F000FD07004C4BDD
:108AE0000460082231000C300693079611F067F9F4
:108AF00006A9381D082211F046F9464B29007B6172
:108B00001223AF60EE60AB802E626E62029802F0BC
:108B1000B7F9002805D028000DF0CCFA280000F0A5
:108B2000FDFC0123227864201343237000F094FBA2
:108B3000002523006533FF33180003930DF04BFD30
:108B400000283CD020008D30FF300DF044FD00287F
:108B500035D00A2D33D06420013500F07DFB0A2D7D
:108B6000E7D12D492D4800F057FCFD27EB23BF002E
:108B70009B00E618E359002B1AD100F05DF80100C4
:108B800004A800F0B7FD05A80DF077F9012305AAA8
:108B900004A900933000029B03F046F905A80DF0EC
:108BA000D3FA04A80DF0D0FAED239B00E358E3516B
:108BB0002100039AEC31300003F0DCFAB9E7FD251F
:108BC00015491648AD0000F027FC6659002E1BD150
:108BD00000F032F8010004A800F08CFD05A80DF0AB
:108BE0004CF9EB239B00E01805AA029B04A9009610
:108BF00003F01AF905A80DF0A7FA04A80DF0A4FADD
:108C0000ED239B00E358635109B0F0BDFD03000064
:108C1000095E0200C95D020000200020001C002047
:108C2000BFF34F8F024B034ADA60BFF34F8FFEE76B
:108C300000ED00E00400FA05F0B58DB005AF192293
:108C40001549380011F09FF80022144B05245A7181
:108C500080225205566E0122250001940292039350
:108C60000199300008F012F80800029907F088FF17
:108C7000019B03996B430193029B361A6B4302934A
:108C8000631E2C1B6C433C19225C1C1ECA54E7D18A
:108C900008000DB0F0BDC046C5AD0200762A002028
:108CA000F0B597B018220021060010A811F087F83F
:108CB000132110A810F02BFD032110A810F0F6FDD1
:108CC0004C4B1B68002B00D10133DBB202934A4AA4
:108CD000012300210BA807F0A9FC484B9E4200D9B4
:108CE000002672B6464B64211D68464B3000079340
:108CF000052407F0CFFF60435030281808900A2160
:108D0000300007F0C7FF0A2108F0AAF8614350318C
:108D10006918099130000A2108F0A2F88023614304
:108D20000024503169189B010A910193029B002B8A
:108D30005DD0002500272E1F07AB9B190593032C40
:108D400003D1802300249B01019307AB5B592E4A7A
:108D500003936300D318049300231900062058439B
:108D6000049A16187678B4466246039EB25C1026C2
:108D70009446049A105C62460641164202D00120D5
:108D8000984001430133092BE8D1C9431F4B059A91
:108D9000090119401268039B934225D1312F23DC2E
:108DA00000210BA810F05AFEFA23159A1199DB0046
:108DB000106801421BD0013B002BF9D1019B01340B
:108DC0005B000193FA230137E4B25B009F42B6D106
:108DD0000435102DAED1074B1B68002BA6D0029F87
:108DE000013FFBB20293A1E7019B1943D9E7FFF7CB
:108DF00017FFC04680260020F0FF0000E7030000B8
:108E00000420002014AE0200DEAD0200F01F0000BE
:108E1000F8B50023124C23600DF050F8002808D05C
:108E2000042120000DF046F8002801D00D4B2360EE
:108E3000F8BD0122A12704250B4B0C491A602268BA
:108E4000FF0048604E68002EFCD0DE591202013D42
:108E50003243002DF5D1226001225A60E8E7C04676
:108E60007C260020ED5EBC0B00D00040FCD0004012
:108E7000F0B585B01F000AAB1B88060002911500F3
:108E80000393002F1CD0282000F028FB6B46040021
:108E90001989039BAAB200933B000DF0F4F83368E4
:108EA00021005B683000984700280AD0002C05D0CC
:108EB00020000DF0FFF8200000F030FB024800E039
:108EC000024805B0F0BDC04616FCFFFF17FCFFFFCF
:108ED0000B4B70B51C68002C10D0656D00F0C6FB04
:108EE000A36C002901D1834206D820000DF019F8A7
:108EF000044920000DF003F82C00ECE770BDC046DB
:108F000088260020A8260020F0B593B007932A4BAE
:108F100004AC1E68049005910692002E4AD0274B9F
:108F2000258867881C6800230293002C2ED0636D6F
:108F300023480393A36C9AB2A36C1B0C99B285428D
:108F400014D12048824211D1002B01D0B9420BD15B
:108F5000029B002B08D120000CF0E3FF1A492000EF
:108F60000CF0CDFF01230293039CDEE7002A01D021
:108F70009542F9D1002B01D0B942F5D120000CF077
:108F8000D0FF114920000CF0BAFFEDE70F4BEB18B2
:108F9000012B0FD910233A00009329000C4B08A88D
:108FA0000DF071F8336808A99B683000984708A84D
:108FB0000DF080F813B0F0BD84260020B426002008
:108FC000FE030000FF030000A826002002FCFFFFB4
:108FD000098F010010B572B60B4B1C68002C08D02D
:108FE00020000CF09EFF0023E364084B2000E363A5
:108FF00010BD62B65C2000F071FA5C220021040012
:1090000010F0DDFEEFE7C046AC2600200040002057
:10901000024B1878012318407047C0467C2A002074
:10902000F7B50600FFF7F4FF051E33D11A4C266092
:10903000FFF7D0FF194B1A4918600CF060FFFFF7DB
:10904000C9FF184B1860184B4363184B83632068A3
:1090500000280ED0C027164E2A003300154900976D
:10906000FFF706FF009733002A0013492068FFF737
:10907000FFFE0C2000F032FA0023838083710F4B37
:1090800003600F4B836000F009FB01230D4A117848
:109090000B431370F7BDC04684260020B82600207D
:1090A000A8260020B0260020FC3F0020E95F020037
:1090B000098F0100FF030000FE03000078A00200FA
:1090C000D18E01007C2A0020F7B506000D001700A4
:1090D0000193002802D100242000FEBD0029FAD00F
:1090E000FFF778FF041EF6D0074B019A4363066032
:1090F00045608760054B002A00D0054BA3630549F6
:1091000020000CF0FCFEE7E7FC3F0020B35F02000C
:10911000D15F0200A8260020024B18684342584144
:109120007047C046A8260020002310B504499C00C3
:109130006258002A01D00133F9E76050100010BDD9
:1091400090260020002310B5044A99008C588442D0
:1091500001D00133F9E70020885010BD902600208F
:1091600010B50024084BA200D058002802D0036894
:109170005B6898470134062CF4D1044B1B68002B24
:1091800000D120BF10BDC04690260020A826002098
:10919000F8B5FFF73DFF00281BD0294D2C68E36C84
:1091A000DA0717D502263343E3640423254F3868D2
:1091B000C26C1343C364636BC3630CF0D8FE38689E
:1091C000416C03F0D4FB2868C36C334201D003F038
:1091D00008FCF8BD1C4F1D4E3A683168002A1ED1AC
:1091E00029602A688A4208D11B0706D52C60FFF740
:1091F000B7FF3B68002BFAD02B6029688C42E8D07F
:109200003368994214D1124B4B63124B8B6320008D
:109210000CF0ADFE2968626C4B6C20000DE0206DF7
:10922000B84203D1606D002800D002002A60D8E760
:109230009C42ECD1002210004B6C03F057FBC8E7B6
:10924000B82600208C260020A8260020B02600206A
:10925000FC3F0020E95F020070B50500FFF7D8FE73
:10926000002803D1280010F015FB70BD0C4B1C68C2
:10927000E36CDB0706D5FFF7ADFE0A4B186000284C
:1092800000D0040000F0F2F92D18A56420000CF0C5
:1092900048FE054920000CF032FEFFF779FFE4E7B5
:1092A000B82600208C26002088260020F0B51E4B12
:1092B0001E4F1C683B6885B006000391002B30D020
:1092C000FFF7A6FE00282CD0E36CDB070ED5FFF7D6
:1092D00081FE174B051E186008D00CF022FE1549C0
:1092E00028000CF00CFE2C00FFF752FF039B20001F
:1092F0001B043343A3640CF014FE20000E490CF051
:10930000FEFD0E4B0024F318012B07D9C023009358
:10931000039A0B4B31003868FFF7AAFD200005B017
:10932000F0BD084CFAE7C046B8260020842600208D
:109330008C260020A8260020B426002002FCFFFF77
:10934000098F010016FCFFFF10B5FFF761FE002832
:1093500009D0054C20680CF0E4FD044920680CF0AD
:10936000CEFDFFF715FF10BDB8260020AC2600206B
:10937000F7B507000D0000282ED0FFF749FE0028A2
:109380002CD00724164E3068C36C1C4007D0154AF9
:10939000290038000CF0DCFD00242000FEBD03F0A5
:1093A00008FB02213268D36C1940019103D00321DC
:1093B0008B43D364F1E701242343D3642800B847E7
:1093C0003268D36C1900A143D164019C5B07E4D5DA
:1093D00028000CF0F5FDE0E7034CDEE7034CDCE78A
:1093E000B8260020C15F020017FCFFFF16FCFFFF3C
:1093F000020010B5014B12CB12C210BDBC260020DA
:10940000034B1A68034B1A607E225A607047C046AD
:1094100004200020BC26002070B5104D2B78022BB4
:1094200018D0814218D90B1A072B15D90C00032329
:1094300004431C4010D172B62A78094BD200D05098
:10944000981841600CF0D6FD2B7801332B7062B672
:10945000200070BD0348FCE70348FAE77D2A00209E
:10946000C426002013FCFFFF17FCFFFF70B500218E
:10947000041C07F017FD002828D1FE21201C8905B7
:1094800007F01AFD002821D104300BF045FE05003D
:109490000F48401B08F0F0FC211C08F08DF907F084
:1094A0003FFD03239843040028000BF03FFE2000FB
:1094B0000BF032FE002804D1203C002CF7D10548E7
:1094C00003E00119FFF7A8FF002070BD0248FCE788
:1094D0000038002013FCFFFF17FCFFFF70B50600EB
:1094E00000250C4B1B78AB4209DD0B49EB00C9187A
:1094F00030000CF087FD041E09D10135F1E7300082
:109500000BF00AFE041E02D11420FFF7C9FB200055
:1095100070BDC0467D2A0020C426002070B50028FA
:1095200013D00D4B0D491C7800239C4210DDDA004E
:10953000555885420AD28A185268824206D9802339
:10954000043802681B061343036070BD0133ECE767
:109550000BF0ECFDF9E7C0467D2A0020C426002070
:1095600070B5051E14DD0B4E0B4C3368002B02D07A
:10957000206810F00AF8FA2120680024074B8900BF
:109580008361C4626943356010F007F8200070BD44
:109590000348FCE7D4260020042700204996010058
:1095A00017FCFFFFF8B5114F06003D68002D0AD1EA
:1095B0003020FFF793FF040006F0E4FB0C4BA5619D
:1095C0002360E5623C600B4D2B68002B09D1102015
:1095D000FFF784FF04000FF0A1FF20002C600FF0C4
:1095E00077FF3000FFF7BCFFF8BDC046042700201E
:1095F000F0A5020000270020014B18687047C04604
:10960000D426002070B50D4C2368002B03D00C4BE2
:109610001B68002B02D10620FFF7C4FF20680FF063
:109620006EFF02000749C3170D684E685219734157
:1096300020680A604B600FF068FF70BD00270020B3
:10964000042700201822002010B5FFF7DBFF0024BC
:10965000054BA200D058002802D003681B68984729
:1096600001340A2CF4D110BDD826002010B5FFF724
:10967000C9FFFA22034B920018685968002307F0CB
:109680002FFC10BD1822002010B5FFF7BBFF024BC6
:109690001868596810BDC046182200200B4B10B541
:1096A0001B680400002B03D0094B1B68002B02D160
:1096B0000620FFF777FF0023064A99008858002804
:1096C00001D00133F9E78C5010BDC04600270020BF
:1096D00004270020D8260020002310B5044A990052
:1096E0008C58844201D00133F9E70020885010BD26
:1096F000D826002010B50400002902D00B78002BDA
:1097000003D1034B2360200010BD0CF024FDFAE7C9
:1097100088A00200F8B504000E00150000290AD048
:109720000B78002B07D0002A05D0080097B210F064
:1097300086FB874203D90B4B23602000F8BD681DD0
:10974000FFF7CCFE20600CF0F3FD23682A005F8059
:1097500023683100181D10F016FB23685D190023E3
:109760002B71EAE788A00200014B03607047C046F6
:1097700088A0020010B50548054C20600CF0DBFD08
:10978000044A0549200010F07FF910BD88A00200AE
:10979000082700200020002049610200084B73B513
:1097A0001C680500002C0AD0010026680831082238
:1097B000684610F0E8FA0CCD31682000884773BD88
:1097C0000C27002010B5054C012120000CF0A7FD4E
:1097D000034A0449200010F057F910BD102700205B
:1097E00000200020DB6202000388074A10B5012038
:1097F000934208D0834202D00020DB0703D41E200E
:10980000FFF74EFA002010BDFFFF000010B5040066
:10981000034B08330360FFF795FC200010BDC046E2
:10982000D0A00200FA2270B5438992005343314A16
:1098300031491400050038348B421BDC2F498B4220
:1098400018D82F49083C8B4214D82E49083C8B422B
:1098500010D82D49083C8B420CD82C49083C8B422F
:1098600008D82B49083C8B4204D82A4914008B4263
:1098700000D90834284B2A7B1E1D042A03D89E1CBD
:10988000022A00D81E00FA212068890007F078F922
:10989000337868812B7300222A2128000CF06FFD99
:1098A000002801D01D4870BD10222B2128000CF08B
:1098B00066FD0028F6D101222D2128000CF05FFD65
:1098C0000028EFD101222E2128000CF058FD00289D
:1098D000E8D172780E2128000CF051FD0028E1D16A
:1098E000012223792A211A4328000CF048FD002880
:1098F000D9D0D7E790A0020000C40900007102008F
:1099000080380100204E000010270000881300005E
:10991000C4090000E2040000F4AF02000EFCFFFFE7
:109920007FB515000F226A4404001E001170002D3F
:1099300016D0002B14DD012301890093006B01F088
:1099400041F9002802D0074804B070BD0090218979
:1099500033002A00206B01F0EBF80028F4D0F2E786
:109960000148F1E70EFCFFFF17FCFFFFF7B506000B
:10997000002501931E4B14360833040003608580D4
:109980008571C581058245820F0000922900182249
:10999000300010F014FA1C2130000FF0B8FE6B46B6
:1099A0009B880221A3806B461B88220023811423FD
:1099B000A5712173A563A58763813E321378276360
:1099C0008B43F1310B401370230095729581013563
:1099D000221DD5870833A21DD5872000DD87FFF71C
:1099E00021FF002802D1A3791D43A5712000FEBDEF
:1099F000D0A0020030B50425837987B004002B4243
:109A000004D1FFF791FBA3791D43A571A36AA26955
:109A10001B6800251A4208D106236A46012120004E
:109A2000FFF77EFF051E03D0114D280007B030BDA3
:109A30006B460222042069469A561856237BD200B0
:109A40005A43228202220978C00049B2C900594310
:109A500043436382A379E1819343A37120000CF017
:109A60009CFC0123A1881A0002A80CF013FCDCE77F
:109A70000EFCFFFFF8B50400FFF7BCFF0E22A35E4B
:109A8000794F5B42BB4251DA23003E331B789B0780
:109A90004CD50125210028003E310B785A0890430F
:109AA00002000220AA40834313430B702000FFF7FB
:109AB000A1FF1022A35E5B42BB4248DA23003E3383
:109AC0001B785B0743D50125210028003E310B7828
:109AD0009A08904382000420834313430B702600AE
:109AE0002000FFF787FF1222A35E4836BB423EDA12
:109AF00023003E331B781B0739D5210001223E315C
:109B00000B78D80882430820D200834313430B709C
:109B10003378032B3BD80133DBB23370012B00D0F9
:109B20008DE0230000224A331A8030E02000FFF746
:109B300061FF0E22A35EC8225B42520000259342C1
:109B4000B4DD23003E331B789B07A2D5AEE720008F
:109B5000FFF750FF1022A35EC8225B4252009342DF
:109B6000BDDD23003E331B785B07ACD5B7E7200093
:109B7000FFF740FFC8231221625E5B009A4204DDBA
:109B800023003E331B781B07B7D5002DC0D1327898
:109B9000002A14D02100270001254A310B883E37C6
:109BA00001339BB20B803878AC46054055D01D2B55
:109BB00005D963469843002338700B80337020002A
:109BC0000CF057FC294A0723904244DD2000FFF7A0
:109BD00011FF0E23E25E264E52420323B2423ADBCD
:109BE000C8252000FFF706FF0E23E25EAD005242BB
:109BF0000423AA422FDC2000FFF7FCFE1023E25EC4
:109C000002235242B24226DB2000FFF7F3FE10236C
:109C1000E25E01235242AA421DDC2000FFF7EAFE69
:109C20001223E25E0523B24215DB2000FFF7E2FEBD
:109C30001223E25E0623AA420DDC00230BE0042B74
:109C4000A5D122003E321178033B0B431370002351
:109C50004A3423800B331800F8BD092BAFD9013AE1
:109C60000D803270ABE7C04670FEFFFFFF70020050
:109C7000E0FCFFFF70B5C369C1681A68451D8AB072
:109C80000400EB7F114255D0002B58D1EB7F082BFD
:109C90000DD90122A379134209D11343A371A188DD
:109CA000130006A80CF0F6FAFFF7E0FC2062EB7F49
:109CB000012B23D80123A2791A421FD00025A188A5
:109CC000A571022202A80CF0E5FAA31DDE7F012E89
:109CD00014D1FFF7CBFC2B00226A801A9941009027
:109CE0000191019BA188AB4203D1174B009A9A4284
:109CF00027D90123042206A80CF0CCFA0322A37969
:109D00001340012B14D1FFF7B1FC0023226A801A03
:109D10009941994202D10D4B984209D90223A27967
:109D2000A1881343A3710522012306A80CF0B2FAFF
:109D30000AB070BD0B2BA9D80133EB77A6E7013B26
:109D4000FBE733000322D6E7E7030000DB05000052
:109D500010B50400034B08330360FFF7BDFC20007F
:109D600010BDC046E8A00200F0B5070000250E00B7
:109D700085B002930AAB1B7808370393104B04009D
:109D8000083303600192858085712900182238000C
:109D900010F015F8039A310038000FF0BDFC6B4647
:109DA0006A469B88127AA380A31DE671DA77631D49
:109DB00025622000DD77FFF771FC200005B0F0BDC3
:109DC000E8A0020010B50400034B08330360FFF75E
:109DD000B9F9200010BDC04658A102007FB515009A
:109DE0000F226A4404001E001170002D16D0002BB3
:109DF00014DD012301890093C06B00F0E3FE00280D
:109E000002D0074804B070BD0090218933002A00B9
:109E1000E06B00F08DFE0028F4D0F2E70148F1E796
:109E20000EFCFFFF17FCFFFF002330B585B003AC2D
:109E3000217001890093050001332200C06B00F0FE
:109E4000C1FE002802D0094805B030BD2080298914
:109E5000009002232200E86B00F06AFE0028F2D195
:109E6000237860781B02184300B2EDE70EFCFFFF79
:109E700013B56B46DC1D0023220023700133FFF76E
:109E8000ADFF002801D1207816BD0148FCE7C0468F
:109E90000EFCFFFFD0B504000CF0C5FBE268A3691F
:109EA000981A09F037FC06000F002369E069C01A10
:109EB00009F030FC32003B0009F07AFF0022104B21
:109EC00008F038FE0F4A104B08F032FB09F0AEFCE8
:109ED0000021041C06F0DCFF002804D0201C0B49E4
:109EE00007F0F8F8041C201C09F04EFC02000B00DF
:109EF0000020074909F090F809F0D6FBD0BDC04614
:109F000000806640EA2E4454FB2109400000B4431F
:109F100000807640F0B5050085B0006C0CF046FB83
:109F2000061C286C0CF039FB0221071C28000CF0E1
:109F3000ABFB0221039028000CF0B8FB07F052FFA6
:109F40000221041C28000CF0C3FB07F04BFF051C8A
:109F5000301C09F0EFFE0290301C09F0ADFE0190BC
:109F6000381C09F0E7FE061C381C09F0A5FE071C8A
:109F7000039807F037FF391C07F01EFC311C071C43
:109F8000201C07F019FC029907F016FC011C381C74
:109F900007F0A0F8311C071C281C07F00DFC0199E4
:109FA00007F00AFC011C381C07F094F80299061C03
:109FB000281C07F001FC0199051C201C07F0FCFB84
:109FC000011C281C07F02AFD311C09F0F5FE0D4983
:109FD00007F0F2FB09F0D8FB0B4A0C4B08F0A8FA8B
:109FE00009F024FC0021041C06F052FF002804D0D4
:109FF000201C044907F06EF8041C201C07F0D2FE58
:10A0000005B0F0BD0000B443EA2E4454FB211940D2
:10A0100070B50022102104000CF0F7FA1B4D002847
:10A020002DD1032608212000FFF722FFA84226D0C9
:10A03000304226D1FA216389890059435023144ABA
:10A04000D518D058884204D3D518083B18000830DA
:10A05000F7D1FA212868890006F092FDA0226081DC
:10A06000112120000CF0D1FA002808D101222B790F
:10A0700010211A4320000CF0C8FA002800D0034831
:10A0800070BD6420FFF7E8F8CCE7C0460EFCFFFF88
:10A0900000A102007FB50425837904002B4218D16A
:10A0A00002260CF0C0FAA379A188B3432B43A37115
:10A0B0000622012368460CF0EDF8A0790300304039
:10A0C000AB43A37143425841034B4042184004B094
:10A0D00070BD0248FBE7C04614FCFFFF15FCFFFF04
:10A0E00010B5837904005A070DD49B0701D4FFF7FC
:10A0F000D1FF236C2000002B02D0FFF70BFF10BD17
:10A10000FFF7C8FEFBE70148F9E7C04615FCFFFF73
:10A1100070B5466C86B001AC050001916260A36029
:10A12000002E0CD00B4905A8FFF7E4FA0C232200FF
:10A1300005A930000DF04FF805A80CF005F82B002C
:10A140000C3307CC07C30223AA791343AB7106B0C3
:10A1500070BDC046FAAF0200642330B5040002812E
:10A16000438185B08180FFF753FF0222A379606CA1
:10A170009343A371002813D00C490CF0F3FF051E84
:10A180000ED001000C22103101A80FF0FCFD2000C0
:10A190000199029A039BFFF7BBFF2800FFF7BEF966
:10A1A0000123A2791343A37105B030BDFAAF0200B9
:10A1B000F7B5009308AB1B880400019309AB1D8819
:10A1C00000230F0016000D4A83800832837102605D
:10A1D000C360036143618361C36103621D21243055
:10A1E0000CF006FA009BE7632664290020006364F4
:10A1F000019AFFF7B1FF2000FEBDC04658A1020042
:10A2000082B0F0B50400A5B064202B932A920FF021
:10A2100041FB04220C2109A802F044FC2422CC4971
:10A220001BA80FF0B0FD052206A811000EF0A1F842
:10A23000C84907A802F0E2FCA06800F081FBA5680D
:10A24000C54918A8FFF756FA782218A9280000F087
:10A2500015FC18A80BF078FF6E256420013D0FF067
:10A2600019FB002DF9D1A06800F06AFBA0680CF082
:10A27000EDFB012160680CF010F901210700606816
:10A280000CF01EF906000A200FF004FB0022B34B6D
:10A2900003929F4210DB013203923A00C8320BDB7B
:10A2A000C822042192000391974205DC0322039205
:10A2B000C82F01DC013A039200279E420CDB3300D9
:10A2C0000137C83308DBC82303379B009E4203DCF9
:10A2D000013FC82E00DC013F06A80EF041F8002621
:10A2E000032373431BA9CA189078002805D0C95CC2
:10A2F0005278FF2306A802F015FC01360C2EEFD190
:10A300006B463AB20C21595E06A8FF2302F00AFC04
:10A310000023A06800931A00743006A90EF030F8EC
:10A32000002304930323049A039853431BAA995CC4
:10A33000814237D1D31805935B78BB4232D1059B5C
:10A340009E78002E2ED1310020680CF09DF907F088
:10A3500049FD3200031C290009A80DF0C5F93100A0
:10A3600020680CF0A3F907F03DFD0122031C290031
:10A3700009A80DF0B9F9310020680CF0A9F907F02F
:10A3800031FD2900031C022209A80DF0ADF9FE23BE
:10A3900003229B05290009A80DF0A6F90123059ABF
:10A3A000ED189370049B013304930C2BBAD16420F5
:10A3B0000FF070FA0B2D00DC5BE709A80DF080F9B7
:10A3C000012201000CA802F06DFB002509A80DF088
:10A3D00077F9A8423CDD2900002209A80DF072F9A6
:10A3E0000022061C290009A80DF06CF9011C301C84
:10A3F00007F0E2F92900061C012209A80DF062F914
:10A400000122071C290009A80DF05CF9011C381C69
:10A4100007F0D2F9311C06F05DFE2900061C02226D
:10A4200009A80DF04FF902222900071C09A80DF018
:10A4300049F9011C381C07F0BFF9311C06F04AFE2F
:10A440002900031C00220CA80DF04EF90135BDE7D0
:10A4500009AA1100012318A80DF060F918A90FA886
:10A460000DF0B9F918A80DF050F90CAA09A912A815
:10A4700001230DF053F9002312AA0FA915A80DF01E
:10A480004DF9002215A811000DF01CF90022061C40
:10A49000012115A80DF016F90022051C022115A8AE
:10A4A0000DF010F9FC21071C8905301C07F084F918
:10A4B00007F078FCFC21060018908905281C07F09D
:10A4C0007BF907F06FFCFC21050019908905381C09
:10A4D00007F072F907F066FC2A00030031001A90B9
:10A4E0002068FFF715FEA0680CF0B0FA07A908A8CD
:10A4F000A5680DF02DFF0022194B009208A90193C9
:10A500002800130000F05EFA08A80DF014FFFA20EE
:10A5100080000FF0BFF9A0680CF098FA15A80DF0B4
:10A52000F4F812A80DF0F1F80FA80DF0EEF80CA851
:10A530000DF0EBF807A80DF0FEFE06A80DF0FBFEEF
:10A5400009A80DF0E2F825B0F0BC08BC02B018472D
:10A5500005B0020029B002006EB00200E0FCFFFF6F
:10A56000DC050000F7B583601D4B05001F68016026
:10A570004260002F31D02820FEF7B0FF04001030D9
:10A580000BF07EFE174B18202360FEF7A7FF00227A
:10A590000600154B01920560083200210C30009333
:10A5A0000FF00DFC08226946301D0FF0ECFB0F4B3D
:10A5B00000227361C223A3803B68E260A66022622E
:10A5C00062625B68210038009847002805D02000AF
:10A5D0000BF070FD2000FEF7A1FF2800FEBDC04675
:10A5E0000C2700200500060001A20100E966020018
:10A5F000F0B5040085B0637A9C46002B04D120009E
:10A600000CF09DF805B0F0BDA37A266F01931023DE
:10A61000019AF35600259B1801229A402900F368FD
:10A6200003920293029BAB4231DDB368019A6B4304
:10A630009B1872695B00E77AD3181A785878E37927
:10A64000012F14D15F1E3F1A10003A005B004343F4
:10A65000606F8218D3189B79634500DD6346627B87
:10A660001A4202D00123AB4019430135DAE7022F29
:10A6700005D15F1EBA1A277A013F381AE6E7032F81
:10A68000E4D1277A013FBF1A02003800DEE7112328
:10A69000C943F356606C994023691940039B1943E1
:10A6A0000FF0DCF9A27B072AACD8637B0C495B0076
:10A6B0006373531CDBB290004158A373022A03D882
:10A6C00008000FF0DCF896E7064B20002363002318
:10A6D0006363054BE462236414300EF05EFF91E780
:10A6E00070A10200F1A501002967020010B5040065
:10A6F000044B03600EF049FF200005F059FB2000D9
:10A7000010BDC046F0A5020010B504000E4B083382
:10A710000360FEF7E1FF200074300DF00CFE200016
:10A7200060300DF008FE200058300BF00DFD2000C9
:10A7300050300BF009FD2000044B14306361FFF72B
:10A74000D5FF200010BDC04690A1020024A6020043
:10A75000F8B500250400324B85800833036085710D
:10A76000143016000F0005F00DFB20002D4BE562A4
:10A77000636125645030FEF7F7FF20005830FEF784
:10A78000F3FF2000603002F0C7F920000423F25EDE
:10A7900033682667590009B274300DF0EAFD33685A
:10A7A000226FE37173680126237210236581A780ED
:10A7B0002561D35691685918994204DD30009840BC
:10A7C00001330543F8E711230120D356D168591806
:10A7D000994206DD02009A40266901333243226124
:10A7E000F6E71420FEF77AFE226900212A430123AE
:10A7F000060005F01BFFFF23220063720133A381D3
:10A80000002348326664A37320001370A366FEF72A
:10A8100045FF0123A27920001343A371F8BDC04670
:10A8200090A1020024A60200F0B5437A85B004008E
:10A83000002B04D120000BF082FF05B0F0BD0122F7
:10A84000837A11009C461023066F0025F35603926D
:10A850006344994002912900F3680193019BAB4244
:10A860002CDDB36872696B4363445B00E77AD318ED
:10A870001A785878E379012F10D15F1E3F1A100023
:10A880003A005B004343606F8218D3189B79002B1A
:10A8900002D0039BAB4019430135DFE7022F05D1FE
:10A8A0005F1EBA1A277A013F381AEAE7032FE8D168
:10A8B000277A013FBF1A02003800E2E71123C9439B
:10A8C000F356606C994023691940029B19430FF0BD
:10A8D000C5F8667AB31EDBB2FC2B14D8FEF78CFEEB
:10A8E0000B4B0500236300230A4863630A4BFF21D7
:10A8F000E4622364704306F0CDF92900414320004F
:10A9000014300EF04AFE637A012B00D995E791E7E7
:10A910003F670200B6030000296702001FB501234C
:10A9200081881A0068460BF0B5FC012303491A0020
:10A9300068460BF0AFFC05B000BDC046FE0300004A
:10A940001FB5030048331A780400002A0DD00022F6
:10A950001A70012381881A0068460BF09BFC0123C2
:10A9600004491A0068460BF095FC200074300DF085
:10A97000F7FC1FBDFF03000010B548300378002B23
:10A9800006D00378012B03D0012102480BF008FB0D
:10A9900010BDC046FF03000010B5012104000620D1
:10A9A0000BF0FEFA064B984208D148342378002B6E
:10A9B00004D02378012B01D020BFF7E710BDC0469B
:10A9C00016FCFFFF73B5079C0500002C1CDB06007E
:10A9D00048363078002802D03078012816D1069801
:10A9E0001BB2C0B20090280012B274300DF0C8FC47
:10A9F000002C07D02B004A331C80002407234C3541
:10AA00002C803370200076BD014CFBE7014CF9E748
:10AA100017FCFFFF12FCFFFFF0B587B00D9C06008E
:10AA20000F0002920393002C20DBFFF7A5FF3300F9
:10AA300048331D78EDB2002D1AD1390005A80DF06C
:10AA400087FC0C9B01940093029A039B05A930009C
:10AA5000FFF7B8FF05A80DF06EFC002C03D0300006
:10AA6000FFF79AFF2C00200007B0F0BD014CFAE779
:10AA7000014CF8E717FCFFFF11FCFFFFF8B50400DD
:10AA8000171E1DDD060048363378002B02D03378C0
:10AA9000012B17D12200E3795632013B13702300BA
:10AAA0000025200054331D8050300BF0B7FB2300ED
:10AAB0004A331F80022328004C3425803370F8BDB0
:10AAC0000148FCE70148FAE717FCFFFF12FCFFFF13
:10AAD000F7B505000F00161E18DDFFF74DFF2B0020
:10AAE00048331C78E4B2002C12D1390001A80BF0D5
:10AAF0008DFB320001A92800FFF7C0FF01A80BF071
:10AB000023FB2800FFF748FF2000FEBD0148FCE7BB
:10AB10000148FAE717FCFFFF11FCFFFFFF2902D8ED
:10AB20004172002070470148FCE7C04617FCFFFF58
:10AB3000F0B51F0085B00AAB1B78040003930093A7
:10AB40003B000D0016000EF04EFD002833D0237D93
:10AB5000082B2DD8236800221900FC318A62A0211D
:10AB6000C9005A50154905205A500138C046C04600
:10AB7000C046C046C046C046C046C046C046C046A5
:10AB8000C046C046F1D1236801325A50A021043298
:10AB9000C9005A5005F006FA039B320000932900C1
:10ABA0003B0020000EF01FFD237D01332375CCE711
:10ABB000034805B0F0BD2075FBE7C046FC0F000060
:10ABC0000EFCFFFFF0B51F0085B00AAB1B78040038
:10ABD000039300933B000D0016000EF0ECFC0028E0
:10ABE00033D0237D082B2DD8236800221900FC3197
:10ABF0008A62A021C9005A50154905205A500138CF
:10AC0000C046C046C046C046C046C046C046C04614
:10AC1000C046C046C046C046F1D1236801325A50F2
:10AC2000A0210432C9005A5005F0BCF9039B320040
:10AC3000009329003B0020000EF0BDFC237D013372
:10AC40002375CCE7034805B0F0BD2075FBE7C0468F
:10AC5000FC0F00000EFCFFFF10B5040086B0006C76
:10AC600005F01EFE237BA0219A00105100200C4A03
:10AC7000C90050500B4914305050626C6846517CEA
:10AC8000C91849B20BF0A4FF039B019A03211A6073
:10AC9000207B0130C0B205F0F9FF217306B010BD72
:10ACA000007000400405000082B070B5040000256B
:10ACB00088B00C920D93636C9A68AA420ADD197CE5
:10ACC00002A8491949B20BF083FF069B039A01358C
:10ACD0001A60F0E75D7C237B02A8ED186DB22900B5
:10ACE0000BF076FF039A059B01921A60002118224F
:10ACF00002A80FF064F802A8002229000EF00CFD53
:10AD0000206C002801D0FEF709FC0820FEF7E6FBC6
:10AD10002900060005F09EFD094B2000E362002398
:10AD2000FA212363074B2664A462E3631030090110
:10AD30000EF033FC08B070BC08BC02B01847C04627
:10AD400059AC01007B6B0200F0B504000E00150049
:10AD500085B01F000CAB1B88103001930BF090FAEC
:10AD6000268065801820FEF7B9FB02AE050033008F
:10AD70000AAA03CA03C32F602800082700213A004B
:10AD80000C300FF01CF83A003100281D0EF0FBFFCC
:10AD9000064B02226B61200000230199A5600A4343
:10ADA000E360A2802362636205B0F0BD916B020094
:10ADB00030B5134B91B01D680400002D17D0114B16
:10ADC0006A460493002305931033029304AB03CB2C
:10ADD00003C223000222062106A8FFF7B5FF2B6855
:10ADE00006A99B682800984706A80BF063F9200085
:10ADF000054B10302361FFF779FC200011B030BD06
:10AE00000C270020A9AC010024A60200F8B50D1EF5
:10AE100030D000260227C468002C28D0AA88A38836
:10AE200053403B4204D13A4204D1AB883B4219D053
:10AE3000646AF1E7A968A0680CF031FC0028F4D03E
:10AE40002B88002B02D022889A42F1D16B88002BEC
:10AE500002D062889A42EBD1A288074B0136134395
:10AE6000A380E5E7A368AA689342E1D1E8E7200060
:10AE7000002E00DC0148F8BD0080FFFF17FCFFFF3B
:10AE8000F0B5060085B00D1E59D00127C468002C0E
:10AE900022D00221AA8800230A4202D0A3885B089C
:10AEA0003B40226829688A4210D1A068A968002B1B
:10AEB0000AD00CF0F4FB002808D0A3881AB2002AAC
:10AEC00006DB204805B0F0BD8842F6D0646ADEE7B4
:10AED0005B045B0CA380F4E7F0682A88002807D1A4
:10AEE000F5600123184968460BF0D4F90020E9E722
:10AEF000010003001C88944206D25C6A1900002CF1
:10AF00000DD02300F6E723001C88944207D15F8808
:10AF10006C88A74203D25C6A1900002CF3D18142ED
:10AF200009D10B889A4204D305D148886B8898428E
:10AF300001D96962D4E74B6A6B624D62D1E703487D
:10AF4000C0E7C04616FCFFFFFD03000017FCFFFF33
:10AF5000064B10B51A00040008322C33026043601F
:10AF60000430FEF7EFF8200010BDC046A8A1020093
:10AF700008B4024B9C46043808BC604751AF01003E
:10AF800008B4024B9C46043808BC6047FD6B0200C5
:10AF90000C4A002311002C32083110B50381837252
:10AFA0004260C36003614361438301600400043075
:10AFB000FEF7BAF8044B1A68002A00D11C60200082
:10AFC00010BDC046A8A102000C270020F7B50E0056
:10AFD0000125C4680192002C36D0238832889A4219
:10AFE00001D0002B23D1638872889A4201D0002BB4
:10AFF0001DD1FEF70DF80123002806D0C022A3883A
:10B000001340C03B5A425341DBB2019A934219D1DB
:10B01000A7883BB2002B15DB10223100A0180EF0E0
:10B02000B2FE40231F4204D020000BF0F0FD646A02
:10B03000D1E7FDF7EDFF0028F6D021000348FEF729
:10B0400097F9F4E70025F2E72800FEBD0F6C020037
:10B0500008B4024B9C46043808BC6047976D020058
:10B06000F0B587B001930EAB1B88060003930D9BD0
:10B070000D000093019B02920C9F002B3DD0002FEE
:10B0800002D1009BDB0738D52820FEF727FA040001
:10B0900010300BF0F5F86B461B8925806380182073
:10B0A000FEF71CFA0500009B08220593019B002176
:10B0B00003600C3004970EF082FE082204A9281DBC
:10B0C0000EF061FE0E4B02226B6100230399E360D8
:10B0D0002362636233680A43A560A2805B68210033
:10B0E00030009847002806D020000AF0E3FF200037
:10B0F000FEF714FA034807B0F0BD0348FBE7C0466B
:10B10000D16D020016FCFFFF17FCFFFFF0B5040035
:10B11000160000258380164A164B85710260218136
:10B1200046810573186889B08C46A8421DD0124A22
:10B1300005950492C02202926A4604AB82CB82C279
:10B1400023002A006146FFF78BFFC022094B0A4902
:10B15000186802926A46069106AB079582CB82C2B6
:10B1600023002A003100FFF77BFF200009B0F0BD6B
:10B17000ECA102000C270020FB6E020030B5002479
:10B1800003730123034D84710560818082734373CF
:10B19000846030BD04A2020070B583790400DB072F
:10B1A00002D58068FEF7BAF9A3799B0702D5A0689B
:10B1B000FEF7B4F9A3795B0707D5A0230021144A51
:10B1C000DB00D150A068FEF7A9F9A3791B0708D5C9
:10B1D000A568002D05D028000DF05AF92800FEF7CB
:10B1E0009DF9A379DB0605D5A068002802D0036885
:10B1F000DB6898476023A2791A4205D0A06800282E
:10B2000002D003685B6898470023A360A37170BDF8
:10B2100000700040F7B50126037B040033422AD0BA
:10B22000612385791D4017D1FFF7B6FF1820FEF77F
:10B2300055F90E230700E35618220093637B29007B
:10B2400001930EF0BCFD019A009938000EF064FAEB
:10B25000A379A7603343A3716023A279A0681A423F
:10B2600002D00EF00EF9FEBD436940681B6818401D
:10B27000431E9841F7E70148F5E7C04616FCFFFF7B
:10B2800070B5040000250C4B0E00083385808571D5
:10B290000360210018300BF0E8FE20002100203070
:10B2A0000BF006FF054BA680E5802572E560256161
:10B2B000656120001C6070BD14A2020014270020EC
:10B2C0008379DB0702D5C160002070470048FCE7A6
:10B2D00016FCFFFF8379DB0701D5C0687047014882
:10B2E000FCE7C04616FCFFFF70B545690400002D61
:10B2F00022D0037A032B21D8FFF7ECFFA8622C2081
:10B30000FEF7ECF82C22002105000EF058FD00227B
:10B3100063695A622369934208D1636923610020FB
:10B32000237A65610133237270BD13005A6A002AC3
:10B33000FBD162695A62F2E70148F5E70148F3E799
:10B3400017FCFFFF13FCFFFF144B70B55A68144C39
:10B35000002A03D000225A600132A2601A69002A32
:10B3600017D0002119618023DB000E4DE3582868B7
:10B37000012B0FD1A923DB00E1584942FFF7A0FFC1
:10B380002868FFF7B1FF2B685A69074BE250012389
:10B39000A36070BDFFF794FFF9E7C046FC100040C2
:10B3A000001000401427002004050000030000697D
:10B3B000002809D00221054AD167426A1A611A7A27
:10B3C000013A1A72024B19607047C04604E100E06E
:10B3D00000E100E010B5002903DB024B19600EF01C
:10B3E00052F910BD1827002070B504001E0004ABF0
:10B3F0001D7804F00FFD20000E4B40302360FEF757
:10B40000B3F9230001364C33013522001E701D7341
:10B410000023E1214E32A36463651380538093813E
:10B42000D381013B200063644902FFF7D3FF200072
:10B4300070BDC04650A00200F7B580277F053D696A
:10B440007C690822113C6C430600210068460EF01E
:10B450009AFC104B009A9A4219D000930023019352
:10B4600079693000133969430BF037FE019A00996E
:10B4700030000BF04AFE210030000BF02EFE7969FF
:10B48000AB0813396943220030000BF030FE0198FD
:10B49000FEBDC046FECA0000F0B50D00A9B00D9279
:10B4A00000213022060010A80B930EF088FC280023
:10B4B0000EF0C5FC431C0C93102B00D9B5E00B9B80
:10B4C000202B00D9B1E0290030000BF04BFE071E05
:10B4D00050D129000C9A10A80EF055FC0D990B9A2A
:10B4E00014A80EF050FC80235B051A695F690C926A
:10B4F000113F7A4330005D690B92FFF79DFF3022C8
:10B50000002104001CA80EF05AFC290000270C9B07
:10B510001339594330000BF0E0FD0D9730257D4382
:10B520000B9B0833ED18A74242DA290030221CA8F1
:10B530000EF029FC10A91CA80EF077FC002827D1DA
:10B540003C49300022000E910F940BF0DEFD6A465C
:10B55000099513AB23CB23C223CB23C223CB23C216
:10B560003000129B1099119A0BF0DDFD01230D9311
:10B570000137D3E710300B9A0D990EF0F5FB04005C
:10B580003800FDF7CBFF002CA3D1200029B0F0BD7F
:10B590006A4609951FAB23CB23C223CB23C223CBFF
:10B5A00023C230001C991D9A1E9B0BF0BCFDDFE7E7
:10B5B000E5433023ED1725405D430B9B08355D19AE
:10B5C0000D9B002B1DD10C9B3021981E05F0D8FA45
:10B5D000A0422CD017490134300022000E910F9464
:10B5E0000BF093FD6A46099513AB23CB23C223CB03
:10B5F00023C223CB23C230001099119A129B0BF067
:10B6000092FD0B9930000BF068FD80235B055969B2
:10B610000C230C9A133963434A4302331100300060
:10B620000B9A0BF064FD0024AFE7034CADE7034C2D
:10B63000ABE7C046FECA000017FCFFFF13FCFFFF8C
:10B6400070B50400A280FA22002308000C49920081
:10B6500008312160A3716061E260A36063820949DF
:10B660000BF080FD051E09D00100200010310222E0
:10B6700012300EF088FB2800FDF750FF200070BD4F
:10B680002CA202007CB0020030B50225837987B07D
:10B6900004002B4204D1FDF747FDA3791D43A5719A
:10B6A00020000BF0A9FD00281CD06B46DD1C2800F3
:10B6B0000BF099FD2B78002B17D001A80BF091FD12
:10B6C0000321019AD3170B409B189B102382FDF78F
:10B6D000CDFFE368A18818180123A0601A0002A812
:10B6E0000AF0D8FD002007B030BD0122064B1A60D9
:10B6F000064A51680029FCD000215160044A1268B2
:10B70000019201225A60DBE700C00040FCC000400B
:10B7100008C50040022802D10122014B1A7070476F
:10B720007E2A002070B5064C05002378002B04D13A
:10B73000044801F0AFFF01232370280070BDC0460C
:10B740007F2A002015B7010070B50C000AF0B6FB87
:10B75000002810D00023144DA40A2B7020000BF0F9
:10B760005FFD002803D00A200EF094F8F6E72B784E
:10B77000002BFCD070BD02210C4B0D4A995080214A
:10B78000C90008005D58002DFCD0A121C9005C5003
:10B7900019580029FCD0002199508021C9005A581D
:10B7A000002AFCD0E6E7C0467E2A002000E00140E7
:10B7B00004050000F8B50C0015001E000AF07EFB21
:10B7C000002811D00023174F3B70320029002000C1
:10B7D0000BF024FD002803D00A200EF05BF8F4E7FC
:10B7E0003B78002BFCD0F8BD01210F480F4B84465D
:10B7F00019508021C9005A58002AFCD08027002205
:10B80000FF00964207DD910068586050D959002921
:10B81000FCD00132F5E7002261465A50DA59002A7D
:10B82000FCD0E0E77E2A00200405000000E0014093
:10B8300010B50400054B083303601C300AF084FC8B
:10B84000200018300AF080FC200010BD44A2020045
:10B85000FF23F0B52C4D8DB02B70002304006946FA
:10B860000088009303F05CFC002802D16B469B78B3
:10B870002B70264E3368DB68002B07D1002320880D
:10B880001A0019000BF0D0FC0DB0F0BD2B78032B83
:10B89000F4D81F4901A8FDF72DFF336801A9DE6820
:10B8A00004A80AF0B3FC04A930000BF08EFC0027BA
:10B8B000060004A80AF048FCBE421ED03100202237
:10B8C000103104A80EF05FFA3000FDF727FE29784A
:10B8D00004ABC9005918082202A80EF054FA2088B7
:10B8E0000123082202A90BF09FFC0137002804D194
:10B8F0002088084A0C210BF095FC01A80AF024FCD2
:10B90000002FBBD0C0E7C046F02100202827002030
:10B910008CB00200FFFF0000F0B5837991B0040005
:10B920005B071BD5FDF7A2FE00232269801A99410F
:10B93000994203D1F423FF3398420FD9A06800281D
:10B9400008D0364B1D880CF0C0FD036815221B6A19
:10B95000290098470422A3799343A371A3799B07F5
:10B9600059D52F4D2B68DB68002B50D02D4B1B7801
:10B97000032B4CD8294B2C491B8804A80193FDF7B5
:10B98000B9FE2B6804A9DE6808A80AF03FFC08A9E4
:10B9900030000BF01AFC070008A80AF0D5FB02AB38
:10B9A0009E1D08233200338006A9073B01980BF047
:10B9B0003DFC002F08D039002022103108A80EF0DD
:10B9C000E2F93800FDF7AAFD164B32881B7806A96C
:10B9D000DE0008AB9E1930000EF0C6F9002813D027
:10B9E000082206A930000EF0CEF92B6804A9DD6804
:10B9F00005A80AF00BFC202308AA05A928000BF0D3
:10BA0000EAFB05A80AF0A0FB04A80AF09DFB0222AD
:10BA1000A3799343A37111B0F0BDC046B0290020B3
:10BA200028270020F02100208CB00200F7B5089EE6
:10BA30000500152922D8012007008F40244C2742F9
:10BA40001CD0E97FCC181F2C41DC69183418A142A6
:10BA500010D80021C8B2834204D9545C7018847095
:10BA60000131F7E732789A183270EA7F9B18EB774A
:10BA700000202CE00878C8540139E8E73478013C0C
:10BA8000E4B2A34208D10023D9B28C42F0D9D05CF1
:10BA9000F11888700133F7E7EF7F0120FF183F1B93
:10BAA0001F2F14DC0227A01C7F423618381B019080
:10BAB000E87F2F18BE4204D23078019FF05501363E
:10BAC000F6E7041B023CEC7728000BF0F9FBFEBD07
:10BAD000FC002000F0B585B001930AAB1E880BABCB
:10BAE0001B78451C02930EAB1B78040003930B7864
:10BAF000170003704B8A10224382013128000EF098
:10BB000042F96B469B88268363836B461B7B00262A
:10BB100023776B4601221B7A6761E683EB77A31CD0
:10BB2000DA770C9B0C256362230020000D9A2833E2
:10BB30001A705E709E702A0031002C300EF03FF9B2
:10BB40002000074BE663A3632A00310040300EF06B
:10BB500036F92000034B2665E36405B0F0BDC0460E
:10BB6000437202003572020070B50D000CF0ADFC9E
:10BB700004000368002D09D15B699847FA20800012
:10BB80006843074904F0FCFFE08070BD9B6898475C
:10BB90008542F3D2236820009B6898470500EDE7B3
:10BBA00071020000F0B507001600A1B002C7040042
:10BBB0006B4918A81D000BF0CAFB331E03D03000E0
:10BBC0000EF03DF983B20122049200220392029208
:10BBD000023201920093320018A93800FFF77AFF71
:10BBE00023006049583318A807930BF0B0FB2B1EB5
:10BBF00003D028000EF023F983B201220492002220
:10BC0000039202920232019200932A0018A9079827
:10BC1000FFF760FF23005449AC3318A808930BF0DA
:10BC200096FB269B002B03D018000EF008F983B278
:10BC300001220492002203920292023201920093A6
:10BC4000269A18A90898FFF745FF631CFF33474958
:10BC500018A809930BF07BFB279B002B03D018003F
:10BC60000EF0EDF883B2012204920022601C0392D0
:10BC70000292023201920093279A18A9FF30FFF72F
:10BC800029FF23005533FF33394918A809930BF0D6
:10BC90005EFB289B002B03D018000EF0D0F883B277
:10BCA0000122049200220392029202320192009336
:10BCB000289A18A90998FFF70DFF2300A933FF332D
:10BCC0002C4918A80A930BF042FB299B002B03D0A8
:10BCD00018000EF0B4F883B201220492002218ADCD
:10BCE00003920292023201920093299A29000A9843
:10BCF000FFF7F0FE204B1B780B93002B2DD1079BF9
:10BD000012971393089B0DAF1493631CFF33159385
:10BD1000099B1A4916930A9B380017930BF017FBDF
:10BD20001D2149203B7810222B707B8A12AE6B823A
:10BD300006ABC918C0180EF026F806232B756B4603
:10BD40009B8D2068AB83AE610CF0C3FB03682900B8
:10BD50001B6898470122084B1A70200021B0F0BDE3
:10BD6000292A0000242A0000252A0000272A000092
:10BD7000262A0000282A0000802A00200A18000035
:10BD800070B5002504000A4B858008338571036077
:10BD9000C1601830FDF7E8FC20001C30FDF7E4FC22
:10BDA000044BA5601C60012365612000A37170BD78
:10BDB00044A2020028270020FA2130B585B00500F2
:10BDC00001230222890068460AF064FA074C2068C1
:10BDD000002809D00BF0F4FA2988054B2268198055
:10BDE000022391790B43937105B030BD28270020C1
:10BDF000B029002010B50C0007290DD880680CF080
:10BE000064FB064B195703685B6C9847431E9841C7
:10BE1000034B4042184010BD0248FCE784B00200CA
:10BE200016FCFFFF17FCFFFFF0B5A44C0D00A54466
:10BE3000040007939AAB1B78A14909A804930692C2
:10BE4000FDF758FC200029001C300AF0E7F9C0205B
:10BE5000800001F015FC0820FDF740FB06000021E2
:10BE600000F0D0FF15ADA66000210C220EA80DF049
:10BE7000A6FF2B000EAA83CA83C3924B2900EB6056
:10BE8000002330002B610CF009FBA0680CF01DFBB7
:10BE900008220021059016A80DF091FF1420FDF74F
:10BEA0001DFB29000200884B1593C8C9C8C2874BE7
:10BEB000059EC3600023A43603613368002B00D0C5
:10BEC000F5E03060A0680CF004FB082200210600B9
:10BED00016A80DF074FF1420FDF700FB7C4B1593A2
:10BEE000030086CD86C37B4BC36000230361336BA5
:10BEF000002B00D0DDE03063A0680CF0E6FA0822E9
:10BF00000021050016A80DF05AFF1420FDF7E6FAEF
:10BF1000714B15AE1593030086CE86C36F4B9835D3
:10BF2000C360002303612B68002B00D0C3E02860AE
:10BF3000012504AB1B7C04AA2B4308A92800137419
:10BF40000BF076F9A0680CF0C8FA036864495B6AE4
:10BF50009847A0680CF0C1FA036862499B6998474A
:10BF6000A0680CF0BAFA00230268009316680499DE
:10BF70002A00B047049B002B0AD020000BF029FABE
:10BF8000032805DDA0680CF0A8FA0368DB68984771
:10BF90000EA80BF08CF92F2004ABC0180BF087F91A
:10BFA000362004ABC0180BF082F93D20042504AB09
:10BFB000C0180BF07CF90EAB0A93A06804AB5D7758
:10BFC0000CF08BFA03680AA91B699847A0680CF06B
:10BFD0007CFA03680AA95B6D9847A0680CF075FAB3
:10BFE00003680021DB6D9847A0680CF06EFA0368C7
:10BFF00002219B6D984700212000FFF7FBFE1820CF
:10C00000FDF76CFAA16800F005FA374B374A1B6858
:10C01000A1680393364B15A81B6800260293354B85
:10C020000CAF1B680193069B1B685B190093324B96
:10C0300012681B68FFF7B6FD3020FDF74FFA079A2C
:10C04000A16800F0A7FAA0680CF03FFA0368390075
:10C050009B6A9847294BBE80A0680C930CF035FA78
:10C0600003683900DB6A98472900A0680BF07BF968
:10C07000099A09219378A06852190BF087F9A068F2
:10C080000CF023FAC8210671A068FFF76DFD04AB20
:10C090001B7FB34204D0A0680CF017FA0BF04DF9E7
:10C0A00009A80AF051F895239B009D44F0BD036157
:10C0B00007E703611FE7036139E7C046ACFDFFFFF7
:10C0C0007FB1020051720200B9BD01005F7202002F
:10C0D00051B801006D7202009B7202007B72020077
:10C0E00001C1010035C101002427002020270020C4
:10C0F000082000201C2700200C2000200800100031
:10C1000013B506226846FDF705FB094B1C68002C99
:10C110000AD0694601A80AF079F8200001A90BF0BD
:10C1200079F901A80AF010F868460AF00DF813BD75
:10C1300028270020002373B501AE0C003100050054
:10C14000019302F0EDFF002802D1B278064B1A707D
:10C15000064B1868002806D061426141044BC9B201
:10C160001D800BF05FF973BDF0210020282700200F
:10C17000B0290020F0B5040097B0039107A89C49AE
:10C180000592FDF7B7FA9B4908A8FDF7B3FA22001C
:10C190000FAD28001C3207A90AF04FF808AA2900A1
:10C1A00009A80AF04AF8280009F0CEFF92490AA827
:10C1B000FDF7A0FAA0680CF088F903680DAE5B6982
:10C1C000984728000BF073F8332004ABC0180BF02D
:10C1D0006EF83A2004ABC0180BF069F8412004ABAC
:10C1E000C0180BF064F88023DB00B380A0680D95C5
:10C1F0000CF06BF9036831005B6D9847A0680CF098
:10C2000064F9036800219B6D9847A0680CF05DF904
:10C210000700002506000A371F22002138000DF014
:10C22000CEFDFD7730000BF07FF80621A0680BF003
:10C230009AF8099A09219378A06804320BF0A6F8BD
:10C24000A0680CF042F9C8210571A068FFF78CFCCA
:10C25000A0680CF03AF9FF272E000581A0680CF0C9
:10C2600034F90BF06AF80398FEF76AFB0AA90CA8E8
:10C2700009F0CCFF78220CA90398FEF729FC0CA842
:10C2800009F062FF039920000BF0DFF82000FCF7B3
:10C290004BFF0495012563691D402DD057490BA81C
:10C2A00000F0ACFC0BA90CA80CF052F800220CA971
:10C2B0001300019200920398FEF7AEFB0CA80CF05D
:10C2C0003AF8049B002B42D1043F282F41DD002582
:10C2D000FE2F00DC049D05980AF07DF9002806D0A9
:10C2E000012362699A431300042213436361002609
:10C2F0000BA80CF020F8049504226369134233D094
:10C30000FF210398C826FEF709FC0025B600A369A3
:10C3100002229B5EAB4222DD200029B2183009F0D8
:10C32000A2FF0023010003981A00743000F0B6FC4D
:10C330003000FCF791FF03980AF088FBC820FCF757
:10C340008BFF02226369134209D10135DFE704370D
:10C35000BBE703980AF07AFB002FBCDDBAE7FA20AE
:10C360008000FCF779FF0026022365691D421CD07E
:10C3700006331D4024D022490BA800F03FFC0BA936
:10C380000CA80BF0E5FF00220CA90192009213000B
:10C390000398FEF741FB0CA80BF0CDFF1948FCF702
:10C3A0005BFF0BA80BF0C7FF174E6420FCF754FF90
:10C3B000164B01369E4200DC6CE709F091FD69E7FF
:10C3C00013490BA800F01AFC0BA90CA80BF0C0FF36
:10C3D0002B002A000CA9019500950398FEF71CFB81
:10C3E0000CA80BF0A8FF0BA80BF0A5FFDDE7C046DB
:10C3F00098B00200A8B00200AAB00200B8B00200D3
:10C40000FDB00200983A00008C0A00008B0A000080
:10C410003AB102000022594BF0B508330600036020
:10C420000F001000A9B0B1600BAB99180132487031
:10C43000102AFAD10F3A524C1A700E32105D991A26
:10C440000874013AFAD2997B5A7B09020A433100F7
:10C450000C31039125211B7813AD2B7002ABC91849
:10C46000452302A81B186A82180010220DF08BFCCD
:10C47000039B64216B610123002402AA2B775218CD
:10C480001993093313701DAB1C706D2302AA9B18FE
:10C490001C706E2321009B181EA80C22EC836C627A
:10C4A0001C700DF08CFC374B0C22210023A8AB63D1
:10C4B000EC630DF084FC344B02AAEB6446239B181A
:10C4C0000322DA7722002C650595347306AD2B190B
:10C4D00001345A70102CFAD101232C482B700E33E2
:10C4E000195CEA1A1174013BFAD211212520AA7BAA
:10C4F0006B7B12020BAC13432A78638202ABC91820
:10C500002270C01810220DF03EFC0123237505ABEC
:10C51000A36100233800A3830BF0DBFF0368210035
:10C520001B68984713ABDB8BB068B3820BF0D1FF6D
:10C53000002203680092B18A039ADC680123A047B5
:10C54000B0680BF0C6FF07001420FCF7C7FF0022FD
:10C55000012304000261069240C0083229000793BB
:10C560000DF011FC0A4BE360BB69002B03D13000D6
:10C57000BC6129B0F0BD2361F9E7C0465CA20200AE
:10C5800097B102004372020035720200A7B10200A7
:10C59000AB740200F0B500260400734BDDB0083325
:10C5A00003608160C2608680867132006F4947A84F
:10C5B0000BF01BF8230014330125042708931223E2
:10C5C000009704950193089A330047A903960296B1
:10C5D0001DA8FFF77FFA3200654947A80BF005F860
:10C5E000082022000097330015AF10320495019007
:10C5F00047A90396029632A8FFF76CFA32005D490C
:10C6000038000AF0F2FF2300082004221C330993AB
:10C61000390033000495019000920396099A02961E
:10C6200047A8FFF757FA3200534938000AF0DDFFF8
:10C630005420FCF753FF050020000123122104229F
:10C6400018300790049301910092390002003300E2
:10C65000280003960296FFF73DFA2800474BA56293
:10C660000822EC620AA930300A930B960DF08BFB7E
:10C67000434B0422AB63012329352B7009992661B2
:10C68000E66107980DF07FFB0422079908980DF0EA
:10C690007AFB6621032304AA8918CB77BA2104AA5E
:10C6A0008918CB77872104AA49008918A26ACB7719
:10C6B000911CA685CB771DAB0C9332AB0D930F92DB
:10C6C00047AB32002F4910A80E930AF08EFF30219D
:10C6D000452004AB5B181B7812313B7004AB5B1830
:10C6E0001B8811397B8204ABC918C01810220DF0C9
:10C6F0004AFB04220CADA0683A75BD61BE830BF005
:10C70000E8FE036839001B689847822204AB9B1837
:10C710001B885432238404AB9B181B885432A38497
:10C7200004AB9B181B88A06863840BF0D2FE070043
:10C730001420FCF7D3FE0500134B0661082210936A
:10C74000119610A910C00DF01EFB104BEB60BB69D9
:10C75000B34206D1BD612000FCF7E6FC20005DB0CD
:10C76000F0BD2B61F6E7C04668A20200D7B1020017
:10C77000B7B10200C7B10200E7B10200BD75020007
:10C7800029750200F7B10200F9C7010053750200D4
:10C79000F0B504000E00150085B01F000CAB1B881F
:10C7A0001030019309F06CFD268065801820FCF79D
:10C7B00095FE02AE050033000AAA03CA03C32F6028
:10C7C0002800082700213A000C300DF0F8FA3A0052
:10C7D0003100281D0DF0D7FA064B02226B612000B4
:10C7E00000230199A5600A43E360A280236263628B
:10C7F00005B0F0BD7D750200F0B50B898DB00593D5
:10C80000CB68060004934B88828C9A420ED1049C1C
:10C81000049B059A9B181B1B032B3BDD6288218818
:10C82000012308A809F036FD0434F1E7428C9A424E
:10C8300030D1049C049B059A9B181B1B032B29DDFC
:10C840002388282006936388F7680793124B089380
:10C8500000230993FCF742FEC0236A4605000293B9
:10C8600008AB03CB03C233000699079A2800FFF7F1
:10C870008FFF3B6829005B6838009847002807D085
:10C88000002D05D0280009F015FC2800FCF746FE15
:10C890000434CFE70DB0F0BD3B76020070B5040064
:10C8A00090B080680AF0C4FE022101401AD1A38D25
:10C8B000002B17D00C4B6A4604931023E568A18522
:10C8C0000591029304AB41CB41C20A00230006A8A4
:10C8D000FFF75EFF2B6806A99B682800984706A80B
:10C8E00009F0E8FB10B070BD3B760200002815D0BF
:10C8F000006041608260C360046145618661C76118
:10C90000444604624C464462544684625C46C462B7
:10C91000644604636E46466374468463002A06D008
:10C92000C46B043C043A25681560B442F9D18C6BA1
:10C93000A6464E6BB546002B06D0CC6B043C043BA0
:10C940001D682560B442F9D10C6BA446CC6AA3469D
:10C950008C6AA2464C6AA1460C6AA046CF698E69D1
:10C960004D690C69CB688A6808684968704700603F
:10C9700041608260C360046145618661C76144466D
:10C9800004624C464462544684625C46C462644617
:10C9900004636E46466374468463C46B043C043986
:10C9A00025680D60B442F9D1C76986694569046993
:10C9B0007047006041608260C360046145618661C8
:10C9C000C761444604624C464462544684625C46F5
:10C9D000C462644604636C464463744684630469B9
:10C9E0007047846BA646446BA546046BA446C46A94
:10C9F000A346846AA246446AA146046AA046C7695F
:10CA0000866945690469C36882680068416870473F
:10CA100010B5041E0CD00DF012FA431EE3189C4210
:10CA200008D222781978013B21705A700134F6E758
:10CA3000014810BD0020FCE717FCFFFFF0B585B0F2
:10CA400002900C1E2AD00023C217161A56400193DA
:10CA5000019B30005D1C63190A215F1E039304F0E3
:10CA6000FFF949423031397030000A2104F012F9DF
:10CA700047420600002F0FD1029B002B04DA2D2322
:10CA8000019D039A02351370002320006355FFF7C0
:10CA9000BFFF380005B0F0BD0195D9E7004FF8E7BA
:10CAA00017FCFFFF10B582604A4304004160002A72
:10CAB0000ADD074B90009A4201DD01204042FCF75D
:10CAC0000DFD2060200010BD00230360FAE7C04682
:10CAD000FEFFFF1F4A688B6870B5836053430400F4
:10CAE0000D004260002B12DD0A4A9E003000934286
:10CAF00001DD01204042FCF7F1FC002320602A68A0
:10CB0000D158C15004339E42FAD1200070BD002399
:10CB10000360FAE7FEFFFF1F014B03607047C0464A
:10CB200080A2020030B500684488A1420CDA8588F2
:10CB3000AA4209DA002907DB002A05DB5443401822
:10CB400000198371002030BD0048FCE717FCFFFF8F
:10CB5000F0B5070085B00E001D0000291FDD002B79
:10CB60001DD00468638803938B4200DD0391A38882
:10CB70000293934200DD0292002306340193019B4D
:10CB8000029A93420EDA29002000039A0DF0FBF876
:10CB90003B68AD195B88E418019B0133EEE702485E
:10CBA00005B0F0BD0020FBE717FCFFFFF8B504005F
:10CBB0000D0016001F00002901DB002A02DA0E4BCF
:10CBC0002360F8BD100048430630FCF787FC206066
:10CBD00009F0AEFB23685D8023689E80002F06D09D
:10CBE0003B00320029002000FFF7B2FFE9E72000F8
:10CBF0000BF0B6FBE5E7C04680A20200F0B50600E8
:10CC000087B00D1E04D1244B0360300007B0F0BD87
:10CC100000200F000400010001903B78002B1AD087
:10CC20003022524294469C446246092A11D90A2B6A
:10CC30000AD1019B241801330193A14200DA21009B
:10CC4000002004000137E8E70028FBD00134002071
:10CC5000F8E70120F6E76A46928809B212B230007E
:10CC6000FFF7A4FF33689C1D03AB1F002A78002A3E
:10CC7000CBD011003039092903D81A70013301359E
:10CC8000F4E700221A70BB42F9D938000DF05BF8C6
:10CC90003B0020700134F2E780A20200F0B50400EE
:10CCA00089B006A80E0002921D00FCF7A1FB2368C4
:10CCB00002995A88914235DA9B889D4232DA1F2EBA
:10CCC00030D9079B01939E422CDC0523002273433D
:10CCD0000393069B0493039B04999B18A03BCB5C96
:10CCE00000210593AE18029BCF1823685888019045
:10CCF00087420EDA9888B0420BDDDB1910270F410E
:10CD0000019870431B1805980740781E87417F42A1
:10CD10009F7101310529E6D10132052ADBD10020BE
:10CD200009B0F0BD0048FBE717FCFFFFF7B504684A
:10CD3000070063880E1E01931EDD994218DA002356
:10CD4000063400933B68009A9B889A4212DA019B52
:10CD5000A1199D1B2A0020000DF015F86019310063
:10CD60000BF0F0FA3B685B88E418009B0133E8E7BE
:10CD70000BF0F6FA002000E00048FEBD17FCFFFFB4
:10CD800010B50548054C206009F0D5FA044A05495C
:10CD900020000CF079FE10BD80A202002C2700209C
:10CDA000002000203783020070B5002817D1114DF4
:10CDB0002E68002E11D108300CF071FE066046601E
:10CDC0000D4E04003368002B02D10BF0B9FD30602A
:10CDD00023682C609B00F3586360286870BD0122B3
:10CDE000064907480B681340F8D1026043600A60A7
:10CDF000F4E7C046342700204027002030270020D9
:10CE000038270020002370B5040001604360994278
:10CE10000AD1064D2B68002B02D10BF091FD286042
:10CE200023689B00EB586360200070BD4027002002
:10CE3000436810B50400002B02D104480CF031FD0A
:10CE4000606803681B69984710BDC04607B20200BE
:10CE5000436810B50400002B02D104480CF021FDFA
:10CE6000606803689B69984710BDC04607B202001E
:10CE7000436810B50400002B02D104480CF011FDEA
:10CE8000606803685B6A984710BDC04607B202003D
:10CE900000487047FFFF0000F0B597B005930368A6
:10CEA00007AD1B680491039311002B00060091C984
:10CEB00091C30024D36821000C220CA8EB602C61E4
:10CEC0000CF07DFF22000B4B10940F9311AB1C70E4
:10CED000191901344A70102CFAD15A820193059B1A
:10CEE0002A00009304990CAB3000039CA04717B0B4
:10CEF000F0BDC046F985020070B5FC30046C050039
:10CF0000002C0DD124200CF0CAFD064B4460836137
:10CF1000054B8460C46004614461C461036028649B
:10CF2000286C70BD5CA3020044A4020070B5FC3004
:10CF3000C56B0400002D11D134200CF0B0FD084B5E
:10CF400085604360074B45610361074B0562C36120
:10CF5000064BC5628362064BE0630360E06B70BD05
:10CF60008CA302007CA30200ECA30200FCA302003D
:10CF70000CA402007FB503791548002B22D0154E72
:10CF8000154C33782000002B1CD102AD28000BF08B
:10CF900010FB002810D16B88592B0DD12B78AA8853
:10CFA000D91F012910D800920C4A2021200008F036
:10CFB0009DF90123337004E02022094920000CF080
:10CFC00045FF200004B070BD0092064AEDE7C04660
:10CFD0002AB20200A12A0020812A00204CB20200BD
:10CFE00044B2020069B2020010B50400024B08C04E
:10CFF0000BF0BFFB200010BD7CA3020010B50400A5
:10D00000024B08C00BF0CAFB200010BD8CA302002D
:10D01000064B70B5040003604068002804D0056921
:10D020000CF039FD2800F8E7200070BD6CA3020069
:10D03000064B70B5040003604068002804D0056901
:10D040000CF029FD2800F8E7200070BD9CA3020029
:10D05000064B70B5040003604068002804D00569E1
:10D060000CF019FD2800F8E7200070BDACA3020009
:10D07000064B70B5040003604068002804D00569C1
:10D080000CF009FD2800F8E7200070BDECA30200B9
:10D09000064B70B5040003604068002804D00569A1
:10D0A0000CF0F9FC2800F8E7200070BDFCA302009A
:10D0B000064B70B5040003604068002804D0056981
:10D0C0000CF0E9FC2800F8E7200070BD90A20200F7
:10D0D000064B70B5040003604068002804D0056961
:10D0E0000CF0D9FC2800F8E7200070BDA0A20200D7
:10D0F000064B70B5040003604068002804D0056941
:10D100000CF0C9FC2800F8E7200070BDB0A20200B6
:10D11000064B70B5040003604068002804D0056920
:10D120000CF0B9FC2800F8E7200070BDC0A2020096
:10D13000064B70B5040003604068002804D0056900
:10D140000CF0A9FC2800F8E7200070BD5CA30200E9
:10D1500070B5FC30046C0500002C0DD124200CF0BF
:10D160009EFC064B44608361054B8460C46004618F
:10D170004461C46103602864286C70BD5CA3020034
:10D1800044A40200104B10B5083303600F4B040099
:10D19000C36080230E4A5B00C250C018FDF7A6FA98
:10D1A00020000C4BB830E360FFF7B2FF2000AC303A
:10D1B000FFF79EFF2000A030FFF78AFF20006C30B1
:10D1C000FFF776FF200010BD70A40200B8A4020093
:10D1D00024A60200D0A20200F8B505000400AC3578
:10D1E0006B68AB60A868002807D0C3682100984727
:10D1F000AB68002BF4D01B69F3E72500B035286835
:10D20000002804D006690CF046FC3000F8E7220044
:10D21000FC212860583213780B40137023005C33D4
:10D22000187020000A300BF082FB200034300BF025
:10D230007EFB606E002804D005690CF02CFC2800F1
:10D24000F8E72500983560662868002804D006694C
:10D250000CF021FC3000F8E72600A4362860356881
:10D26000002D05D02F6928000CF015FC3D00F7E7D4
:10D270002000356029000C226C300CF0A0FD20004D
:10D28000074BE567A36729000C2280300CF097FD5F
:10D290002300044A8C33903428001A602560F8BDBE
:10D2A000DD850200CF850200444AF0B50600C26069
:10D2B000A022434B1636083303600100002342824C
:10D2C0000400320085B003718360037483823531BA
:10D2D000137001329142FBD1802580222000AD00E5
:10D2E000D201F3773584110000933830002300F029
:10D2F00039FF23002100403303931A002B0000253F
:10D300005F31157001328A42FBD1039AFC21D57737
:10D31000220060321380137920000B401371230028
:10D3200068331D70274B2567E3660C220021783097
:10D330000CF045FD2300270088331D60224B083781
:10D34000FB67843700210C2238000CF038FD1F4B9E
:10D350001F4AFB602300A0333D611A601D4A5D60D7
:10D36000DA601D4A1D619A61DD6130000BF0DFFA61
:10D3700003980BF0DCFA194B601CE3602300C43304
:10D380001D705D709D70FF3002F0FCFC8C235B0013
:10D39000E55023001933FF335D618023104A5B00A1
:10D3A000E250230001222000FE3352425A86023B03
:10D3B0009D63DD631D6405B0F0BDC046D0A20200D0
:10D3C00070A4020090A20200DD850200CF85020059
:10D3D000A0A20200B0A20200C0A20200B8A40200F3
:10D3E00024A6020070B5074C2368002B07D1A020AB
:10D3F00040000CF054FB0500FFF756FF2560206845
:10D4000070BDC0464427002070B50C220D000021DD
:10D4100004000CF0D4FC00232361024B25602000A3
:10D42000E36070BDEB85020070B500250400254B5C
:10D4300085800360244BC5608360244B8561436114
:10D44000234B45620362234B0563C362224BC563D2
:10D45000836329004430FFF7D7FF200029005830AC
:10D46000FFF7D2FF200029006C30FFF7CDFF1B4BE8
:10D470002200236023008032F83320C29342FCD183
:10D4800026001D00E936FF36280008220021083555
:10D490000CF095FCAE42F7D18E2300229B00E118E0
:10D4A00004C6B142FCD18E2300219B00E2540C4BF8
:10D4B0000C4AE318A218198002339A42FBD12000CB
:10D4C00070BDC046BCA302006CA302007CA3020096
:10D4D0008CA302009CA30200ACA3020044A502009E
:10D4E0003A0200006202000010B5040002F0EAF9FE
:10D4F000034B1B68002B01D02000984710BDC0468D
:10D500004C270020F0B58BB0050001F049FC00204D
:10D51000FFF768FF036807001B6998473B68040032
:10D520009B69380098473B6806005B6A380098475B
:10D530000300288810380B2862D803F017FB063E3A
:10D540006161615B616161676179AF882000390069
:10D550000BF008FC22006B7B583201931378A879FA
:10D560009C46022361460B43137004AB1F800123CA
:10D5700004AA9370D07013006A461279E91D9A725A
:10D580002B000622163305A809930CF0FCFB29009A
:10D590000B2004AB06220E31C0180CF0F4FB9434BF
:10D5A0006368A360A06800282AD0C36804A99847CC
:10D5B000A368002BF4D01B69F3E720002F49AF8844
:10D5C0000BF0D0FB2200022058321378A979834354
:10D5D000137004AB1F809970A0346368A360A068C7
:10D5E00000280DD0C36804A99847A368002BF4D085
:10D5F0001B69F3E75B69A888A91D002B00D0984739
:10D60000290030000BF09EFC0BB0F0BD636E002BC8
:10D61000F6D0AF79A366A06E0028F1D0C3683900B8
:10D620009847A36E002B01D1636EF3E71B69F1E706
:10D63000012269460D27AB7BEF571A4001925A072A
:10D64000920FDB080A720B730622E91D04A80CF086
:10D650009AFB6A46127904ABDA716A46127A9F71B4
:10D660001A726A46127B20005A722B000F330793FE
:10D670008C348030236804A99847C1E7FFFF00007D
:10D680000723D72802D9024B1860002318007047DF
:10D6900048270020014B18607047C0464C270020E7
:10D6A0001FB58022A323D205DB00D3580820DB0757
:10D6B00000D405301C4B48221C4900F009FE00280C
:10D6C0000AD080B2002807D1BFF34F8F184B194AF8
:10D6D000DA60BFF34F8FFEE7002302A80293013305
:10D6E0000370154B1B6843600BF0B0F9002802D0A3
:10D6F000072005B000BD68460BF0A6F90028F7D159
:10D7000069460BF09FF90028F2D10C4800F010FE9A
:10D7100080B20028EDD10A4800F014FE80B2002843
:10D72000E7D100F06FFCE4E7518A020050270020A7
:10D7300000ED00E00400FA054827002005D50100AF
:10D74000E9D4010080B2002807D1BFF34F8F034B0B
:10D75000034ADA60BFF34F8FFEE7704700ED00E049
:10D760000400FA05024B0B60092313607047C046A2
:10D770008EB2020010B504000020FFF733FE0368EC
:10D780001B6998470300F3331C7086235B00C0506D
:10D7900003000021044AFC335A61044A99615A6229
:10D7A000F4300BF0FAFE10BD218C0200338C020025
:10D7B000012110B5044A080000F018FD002398422A
:10D7C00000D00B33180010BD75D70100F0B593B031
:10D7D000019000200C00FFF705FE03685B6A984784
:10D7E00000F082F906AB00280ED000221A7105AABB
:10D7F0000692082218001A730AAA9A6000F042FAE8
:10D80000002803D013B0F0BD1871187300272773D8
:10D810002771019BBA331B78BB4242D907237B4354
:10D820001A000199BB32CB18BB331B788A180292BD
:10D83000022B2ED1002506AE337BAB4223D9AB00A1
:10D840000393089BAA00995802980BF095FA0028B8
:10D850001CD0B3689C46AB001900237B6144029343
:10D860009A000868A368D050029B01332373337B6E
:10D870005A1E954205D00C481B1860469B001B5849
:10D880000B6006AB1A730137FFB2C2E70135EDB288
:10D89000D1E72379216802989A000133505023710F
:10D8A000F1E70020AEE7C046FFFFFF3FF0B50A7882
:10D8B00004009BB00D000220012A08D04B88032AE7
:10D8C00007D1A03B21499BB210008B4207D91BB066
:10D8D000F0BD203B1E4A9BB203209342F7D81D4B5C
:10D8E000AA8803209A42F2D80AAB009312AB0293A3
:10D8F0006A460023260013711373B8363378002B61
:10D900001DD104AF1822002138000CF058FA2B78F2
:10D9100038003B7033783B726B46FB606B883B8210
:10D92000AB887B820BF0A0F802000320002ACED146
:10D9300001235834217810000B432370C7E7694650
:10D940002000FFF743FF0028DBD0C0E7603F000066
:10D95000E03F0000FF3F0000F0B59DB01E006B46A9
:10D9600004001A70581C0622229D0CF00CFA002E9E
:10D970002ED0328802AB1A8072885A80B2889A8080
:10D98000F288DA800CAB04AE049314ABB3602700CA
:10D990000023B937337133733B78002B1ED101223A
:10D9A0003B78022708A9134058000B784E60BB4310
:10D9B0000343002D1AD120003230007893431040E9
:10D9C00003430B70A38D0B81E38D4B81238E17E0F6
:10D9D0001A4B029396239B040393D3E73100200054
:10D9E000FFF7F4FE0028DAD01DB0F0BDA87993430C
:10D9F000104003430B702B880B816B884B81AB88E5
:10DA000002AA68468B810BF045F803000020834290
:10DA1000EAD00630082BE7D006D80130042BE3D03B
:10DA2000834209D10420DFE70520112BDCD0044A12
:10DA30009342F7D0102BF5D00B20D5E732006400CD
:10DA40000232000070B500200D00FFF7CBFC036828
:10DA50005B6A98472B780400142B1ED003D8132B35
:10DA60000CD0002070BD152B1FD0222BF9D16B6874
:10DA700018882369002BF4D09847F2E76B680125DA
:10DA800018889B78646819005A08DB0629402A40E8
:10DA90005B0F002CE5D0A047E3E76B681888997806
:10DAA000A368002BDDD09847DBE76868827813090C
:10DAB0001207120F012A03D0022A0BD0002106E020
:10DAC000013BDBB20021022B01D8064AD15C008861
:10DAD000E368E6E70421012BF9D00131022BF6D0EF
