:020000021000EC
:1080000000400020890A0200C50A0200C70A0200D7
:108010000000000000000000000000000000000060
:10802000000000000000000000000000C90A02007B
:108030000000000000000000CB0A0200CD0A020090
:10804000CF0A020085B70100AD060200CF0A020088
:10805000CF0A02000000000001080200CF0A02005F
:10806000CF0A02001502020071070200CF0A0200C7
:10807000CF0A0200CF0A0200CF0A0200CF0A020094
:10808000CF0A0200CF0A0200CF0A0200CF0A020084
:10809000CF0A020079E3010005E50100CF0A0200E2
:1080A000CF0A0200CF0A020000000000000000001A
:1080B00000000000000000000000000000000000C0
:1080C00010B5064C2378002B07D1054B002B02D0AE
:1080D000044800E000BF0123237010BD30220020BF
:1080E0000000000064B40200044B10B5002B03D064
:1080F0000349044800E000BF10BDC0460000000076
:108100003422002064B40200164B002B00D1144B23
:108110009D46402292029A1A924600218B460F46B3
:108120001348144A121A11F062FE0F4B002B00D0B4
:1081300098470E4B002B00D09847002000210400E8
:108140000D000D48002802D00C4800E000BF0DF0E3
:108150001DF82000290011F0C7FA0DF001F8C04603
:1081600000000800004000200000000000000000A7
:1081700018220020FC2B002000000000000000005E
:1081800010B50400034B036040300EF040F82000AF
:1081900010BDC04680A002000023054A1370537032
:1081A0009370D37013715371024A13607047C046C5
:1081B000262B0020302300200300083373B5040071
:1081C0000D1E03601AD0080011F051FE2E18019008
:1081D0000F2807D9002201A9200008F0DFFC019B2D
:1081E0002060A36032002900206811F09CFD00226D
:1081F000019B216863602000CA5476BD014811F0DC
:1082000066FDC0469FAD020010B5012802D1FFF700
:10821000C3FF10BD074B0022190078311A705A7045
:108220009A70DA701A715A7106338B42F6D1024B8A
:108230001A60EEE7AE2A00202C23002070B505005E
:108240000024AC4207DA21B2FF230022024801F0E9
:1082500005FB0134F5E770BD9424002030B587B0EC
:1082600001006846FFF7A8FF0E4C694620000DF09C
:108270004AFD04340500684611F03EFD0120A54288
:108280000ED10949684601F07BFA78226946074811
:1082900002F03CFE68460DF0BAFFFFF77DFF0020BC
:1082A00007B030BD4C22002063AD02002024002026
:1082B00010B586B001006846FFF77EFF69460548A5
:1082C0000DF021FD28300478684611F015FD2000DE
:1082D00006B010BD4C220020F0B500261A4C89B023
:1082E0001A4B1B68B3422CDD210002A8FFF764FF84
:1082F00002A917480DF007FD436902A80193002564
:1083000011F0FAFC019B9D4214DA124F0121380052
:1083100003F09EF9635D32202E2B00D0642000F024
:10832000E1FF0021380003F093F9C82000F0DAFFE4
:108330000135E7E7C820400000F0D4FF01360634DD
:10834000CEE709B0F0BDC046AE2A00202C230020A5
:108350004C220020C0250020F0B506000024062590
:1083600087B031006846FFF727FF69460B480DF0DC
:10837000CAFC4769684611F0BFFC094B1A68BC4249
:1083800007D26A43074B9B18074AA25C1A5501346F
:10839000E7E701321A6007B0F0BDC0464C2200206A
:1083A0002C230020AE2A0020262B0020F7B5714C8C
:1083B000200000F0B9FB200000F0B6FB01216E4860
:1083C0000EF036FC012701F097F900246B4D286070
:1083D00069606B480EF00FFA002875D1002C2FD081
:1083E00001F08AF92B686C68C01AA141654C2060C5
:1083F000616000296AD1FA2868D80222FF2311009F
:10840000614801F02BFA614E3068FFF717FF2E210B
:1084100033685F4AD1546368002B11D1F42322687A
:10842000FF339A420CD8594C6420236801332360EF
:1084300000F058FF50480EF019FC2068FFF7FEFED0
:10844000002454480EF0D7F9061E5AD1002CBAD099
:1084500001F052F92A686B68801A994104000D00F6
:10846000484F3C607D6000295CD1FA285AD84A4BBD
:108470001B68042B47DC464C2000FFF7EFFE00286A
:1084800013D02000FFF768FF2000FFF711FF010065
:1084900001A80DF0E6FE782201A9374802F036FD6A
:1084A00001A80DF0B4FEFFF777FE7B68002B89D1A1
:1084B000F4233A68FF339A4284D8642000F012FF14
:1084C0002D480EF0D3FB7DE73C0082E7FB225242B1
:1084D000D3178018594100299DD1F8289BD82F49DE
:1084E00001A801F04DF9C82201A95200224802F06A
:1084F0007DFC01A80DF08BFE244B254A1B682D2125
:1085000088E73C009DE7264901A801F039F9782267
:1085100001A9194802F0FAFC01A80DF078FE1B4BE6
:108520001D60C2E7FB225242D317A4185D41002D03
:10853000BBD1F82CB9D8FFF7CFFE0624164B1B6829
:10854000B34213DD2300734316480136C018FFF70A
:10855000AFFE010001A80DF084FE782201A90648B3
:1085600002F0D4FC01A80DF052FEE7E70220FFF76D
:108570004BFE9AE7342300202024002020220020F4
:10858000982400201822002094240020302300206A
:10859000262B0020C02400202C23002061AD0200E7
:1085A000C9AD0200AE2A0020F0B5B44C0027A544A6
:1085B000B34C200000F0F8F9B24EB349320020006D
:1085C00011F0BEFAB14CB24A0621200002F04EFA78
:1085D0003200B049200011F0B3FA0123AE4C1A006A
:1085E00000971121200001F04DFDAC4D3200290013
:1085F000200011F0A5FAAA4C0123009702221A21AB
:10860000200001F03FFD32002900200002AC11F0F3
:1086100097FAA4492000FFF7CFFD4123A249237612
:1086200009A8FFF7C9FD42220FAB1A709F4910A895
:10863000FFF7C2FD432216AB1A709D4917A8FFF73A
:10864000BBFD44221DAB1A709A491EA8FFF7B4FD6A
:10865000452224AB1A70984925A8FFF7ADFD4622A4
:108660002BAB1A7095492CA8FFF7A6FD472232AB19
:108670001A70934933A8FFF79FFD482239AB1A704F
:1086800090493AA8FFF798FD492240AB1A708E49ED
:1086900041A8FFF791FD08234A22FF336B445A7526
:1086A0008A4948A8FFF788FD98234B225B00E254D3
:1086B00087494FA8FFF780FDA6234C225B00E254B8
:1086C000844956A8FFF778FDB4234D225B00E2549D
:1086D00081495DA8FFF770FDC2234E225B00E25482
:1086E0007E4964A8FFF768FDD0234F225B00E25467
:1086F0007B496BA8FFF760FDDE2350225B00E2544C
:10870000784972A8FFF758FDEC2351225B00E25430
:10871000754979A8FFF750FDFA2352225B00E25415
:10872000724980A8FFF748FD842353229B00E2543E
:108730006F4987A8FFF740FD8B2354229B00E2542A
:108740006C498EA8FFF738FD922355229B00E25416
:10875000694995A8FFF730FD992356229B00E25402
:1087600066499CA8FFF728FDA02357229B00E254EE
:108770006349A3A8FFF720FDA72358229B00E254DA
:108780006049AAA8FFF718FDAE2359229B00E254C6
:108790005D49B1A8FFF710FDB5235A229B00E254B2
:1087A0005A49B8A8FFF708FDBC2331229B00E254C8
:1087B0005749BFA8FFF700FDC32332229B00E254B4
:1087C0005449C6A8FFF7F8FCCA2333229B00E254A1
:1087D0005149CDA8FFF7F0FCD12334229B00E2548D
:1087E0004E49D4A8FFF7E8FCD82335229B00E25479
:1087F0004B49DBA8FFF7E0FCDF2336229B00E25465
:108800004849E2A8FFF7D8FCE62337229B00E25450
:108810004549E9A8FFF7D0FCED2338229B00E2543C
:108820004249F0A8FFF7C8FCF42339229B00E25428
:108830003F49F7A8FFF7C0FCFB2330223D4D9B00CA
:10884000E2542B1D2F71AF606F612100EB602B6133
:10885000FEAA28000DF0A8FA143FF7AC6F442000E0
:108860001C3C11F049FAA742F9D1320032492800E4
:1088700011F066F9FF239B009D44F0BD04FCFFFF4F
:1088800034230020002000203D890100B422002074
:1088900088A0020025AA0100642200206DA001002A
:1088A0008C2200201AAD02004CAD020004AD020083
:1088B00053AD02005BAD020009AD020059AD0200EC
:1088C00046AD020054AD02002EAD020019AD02000B
:1088D0000EAD020060AD02005AAD02005FAD0200B5
:1088E00013AD020018AD020005AD02004DAD02004F
:1088F00061AD02001EAD02003AAD020023AD0200E0
:108900001DAD020022AD020052AD020027AD0200F3
:108910002DAD020033AD020039AD02003FAD0200C3
:1089200045AD02004BAD020051AD020057AD020053
:108930005DAD02004C220020EF5C0200EB23194ADF
:108940009B0010B5C2501C330400C0180DF05FFC32
:10895000F1239B00E0180DF05AFC84239B00E018E3
:1089600001F0BEFB2000C530FF3001F0DDF8200033
:108970008D30FF3001F07AFB20006530FF3001F0D0
:1089800075FB2000EC3002F04DF82000D03002F0F2
:10899000FDFC2000643007F09BFA201DFFF7F0FB80
:1089A000200010BD9CA202001423F0B5040095B075
:1089B000009319221821043002F034FF220027000E
:1089C0006432B43713211000119207F08DFA380089
:1089D0000EF0D2FC2200B83210921E210022109814
:1089E0000EF049F92000D03002F0F0FC2200EC3209
:1089F00012920621494A129802F038F82000002607
:108A0000012365301A0000961121FF3001F03AFB76
:108A100020008D300096012302221A21FF3001F040
:108A200031FB25002000C535B530FF351A23022261
:108A30000121FF3002F088FD109904233A2228001A
:108A400001F022F984229200A218139205231D221C
:108A5000019300923B002A001099139801F036FD13
:108A600096229200129BA01813992A0001F008FF89
:108A700099229200A01839001C2202F0FFFF19234E
:108A80009F220F93013B0E93013B0D93013B0C93EF
:108A9000013B0B93013B0A93013B0993013B089374
:108AA000013B0793013B0693013B0593013B049374
:108AB000013B0393013B0293013B01939200013B75
:108AC000A01800930822013B07210EF0DCF8EB23ED
:108AD0009B00E018390003F071FBF3239B00E018C2
:108AE0001D2102F0EBFDFD239B00E650119826703E
:108AF000032110F029FD23002200200008499C33A7
:108B0000A0321C6011605660064A80305A61022112
:108B1000012207F027FF200015B0F0BDA0A0020041
:108B20005D5E0200475E02000123F0B5067889B061
:108B300004001E4000D0ADE0FD20800500F0DCFC0C
:108B40002300D0331800029300F0B0FA00F0A6F929
:108B5000282000F009FD050010300DF0F4FB4E4B0D
:108B600018202B6000F000FD07004C4B0460082229
:108B700031000C300693079611F039F906A9381D1B
:108B8000082211F018F9464B29007B611223AF60CF
:108B9000EE60AB802E626E62029802F08FFB0028BE
:108BA00005D028000DF0E9FA280000F0FDFC0123B3
:108BB000227864201343237000F094FB00252300E7
:108BC0006533FF33180003930DF015FE00283CD0E9
:108BD00020008D30FF300DF00EFE002835D00A2D1C
:108BE00033D06420013500F07DFB0A2DE7D12D49FB
:108BF0002D4800F057FCFD27EB23BF009B00E61833
:108C0000E359002B1AD100F05DF8010004A800F030
:108C1000B7FD05A80DF094F9012305AA04A9009356
:108C20003000029B03F01EFB05A80DF0F0FA04A82B
:108C30000DF0EDFAED239B00E358E3512100039A78
:108C4000EC31300003F0B4FCB9E7FD2515491648B6
:108C5000AD0000F027FC6659002E1BD100F032F861
:108C6000010004A800F08CFD05A80DF069F9EB23C4
:108C70009B00E01805AA029B04A9009603F0F2FAF3
:108C800005A80DF0C4FA04A80DF0C1FAED239B006D
:108C9000E358635109B0F0BDFD030000CF5E020050
:108CA0008F5E020000200020001C0020BFF34F8FC9
:108CB000024B034ADA60BFF34F8FFEE700ED00E09E
:108CC0000400FA05F0B58DB005AF1922154938003A
:108CD00011F071F80022144B05245A7180225205BC
:108CE000566E0122250001940292039301993000EF
:108CF00008F02AF80800029907F0A0FF019B0399E9
:108D00006B430193029B361A6B430293631E2C1B29
:108D10006C433C19225C1C1ECA54E7D108000DB0FC
:108D2000F0BDC04605AE02002C2B0020F0B597B078
:108D300018220021060010A811F059F8132110A8DC
:108D400010F041FD032110A810F00CFE4C4B1B68E5
:108D5000002B00D10133DBB202934A4A01230021E8
:108D60000BA807F039FD484B9E4200D9002672B689
:108D7000464B64211D68464B30000793052407F0DD
:108D8000E7FF60435030281808900A21300007F0B0
:108D9000DFFF0A2108F0C2F86143503169180991D8
:108DA00030000A2108F0BAF88023614300245031D2
:108DB00069189B010A910193029B002B5DD000254D
:108DC00000272E1F07AB9B190593032C03D180238B
:108DD00000249B01019307AB5B592E4A0393630068
:108DE000D31804930023190006205843049A161838
:108DF0007678B4466246039EB25C10269446049A86
:108E0000105C62460641164202D0012098400143A0
:108E10000133092BE8D1C9431F4B059A09011940B9
:108E20001268039B934225D1312F23DC00210BA82C
:108E300010F070FEFA23159A1199DB0010680142B8
:108E40001BD0013B002BF9D1019B01345B00019346
:108E5000FA230137E4B25B009F42B6D10435102DEE
:108E6000AED1074B1B68002BA6D0029F013FFBB27F
:108E70000293A1E7019B1943D9E7FFF717FFC0460B
:108E800030270020F0FF0000E7030000042000204E
:108E900054AE02001EAE0200F01F0000F8B5002321
:108EA000124C23600DF06DF8002808D0042120003A
:108EB0000DF063F8002801D00D4B2360F8BD0122AE
:108EC000A12704250B4B0C491A602268FF0048605B
:108ED0004E68002EFCD0DE591202013D3243002DB7
:108EE000F5D1226001225A60E8E7C0462C27002015
:108EF000ED5EBC0B00D00040FCD00040F0B585B06A
:108F00001F000AAB1B880600029115000393002F77
:108F10001CD0282000F028FB6B4604001989039B15
:108F2000AAB200933B000DF011F9336821005B6891
:108F30003000984700280AD0002C05D020000DF002
:108F40001CF9200000F030FB024800E0024805B0A8
:108F5000F0BDC04616FCFFFF17FCFFFF0B4B70B5C2
:108F60001C68002C10D0656D00F0C6FBA36C0029B6
:108F700001D1834206D820000DF036F804492000C4
:108F80000DF020F82C00ECE770BDC046382700201B
:108F900058270020F0B593B007932A4B04AC1E6805
:108FA000049005910692002E4AD0274B25886788A9
:108FB0001C6800230293002C2ED0636D234803937A
:108FC000A36C9AB2A36C1B0C99B2854214D12048B1
:108FD000824211D1002B01D0B9420BD1029B002B50
:108FE00008D120000DF000F81A4920000CF0EAFF2B
:108FF00001230293039CDEE7002A01D09542F9D1B8
:10900000002B01D0B942F5D120000CF0EDFF114941
:1090100020000CF0D7FFEDE70F4BEB18012B0FD919
:1090200010233A00009329000C4B08A80DF08EF88D
:10903000336808A99B683000984708A80DF09DF890
:1090400013B0F0BD3427002064270020FE03000089
:10905000FF0300005827002002FCFFFF958F01004E
:1090600010B572B60B4B1C68002C08D020000CF019
:10907000BBFF0023E364084B2000E36310BD62B62E
:109080005C2000F071FA5C220021040010F0AFFEB9
:10909000EFE7C0465C27002000400020024B187814
:1090A000012318407047C046322B0020F7B5060058
:1090B000FFF7F4FF051E33D11A4C2660FFF7D0FFEF
:1090C000194B1A4918600CF07DFFFFF7C9FF184BC8
:1090D0001860184B4363184B8363206800280ED038
:1090E000C027164E2A00330015490097FFF706FFE8
:1090F000009733002A0013492068FFF7FFFE0C2079
:1091000000F032FA0023838083710F4B03600F4B12
:10911000836000F009FB01230D4A11780B431370A3
:10912000F7BDC046342700206827002058270020BC
:1091300060270020FC3F0020AF600200958F0100F7
:10914000FF030000FE030000C0A002005D8F0100CD
:10915000322B0020F7B506000D0017000193002800
:1091600002D100242000FEBD0029FAD0FFF778FFCD
:10917000041EF6D0074B019A436306604560876082
:10918000054B002A00D0054BA363054920000CF0D5
:1091900019FFE7E7FC3F00207960020097600200BA
:1091A00058270020024B1868434258417047C04678
:1091B00058270020002310B504499C006258002A5B
:1091C00001D00133F9E76050100010BD40270020A6
:1091D000002310B5044A99008C58844201D0013311
:1091E000F9E70020885010BD4027002010B500246A
:1091F000084BA200D058002802D003685B6898474B
:109200000134062CF4D1044B1B68002B00D120BF85
:1092100010BDC0464027002058270020F8B5FFF7B2
:109220003DFF00281BD0294D2C68E36CDA0717D5C9
:1092300002263343E3640423254F3868C26C13438A
:10924000C364636BC3630CF0F5FE3868416C03F0D4
:10925000ACFD2868C36C334201D003F0E0FDF8BDDB
:109260001C4F1D4E3A683168002A1ED129602A68B9
:109270008A4208D11B0706D52C60FFF7B7FF3B6871
:10928000002BFAD02B6029688C42E8D033689942D1
:1092900014D1124B4B63124B8B6320000CF0CAFEAF
:1092A0002968626C4B6C20000DE0206DB84203D140
:1092B000606D002800D002002A60D8E79C42ECD103
:1092C000002210004B6C03F02FFDC8E76827002038
:1092D0003C2700205827002060270020FC3F00206A
:1092E000AF60020070B50500FFF7D8FE002803D17B
:1092F000280010F02BFB70BD0C4B1C68E36CDB07E7
:1093000006D5FFF7ADFE0A4B1860002800D0040018
:1093100000F0F2F92D18A56420000CF065FE054957
:1093200020000CF04FFEFFF779FFE4E768270020EC
:109330003C27002038270020F0B51E4B1E4F1C682C
:109340003B6885B006000391002B30D0FFF7A6FEE6
:1093500000282CD0E36CDB070ED5FFF781FE174BFE
:10936000051E186008D00CF03FFE154928000CF0CF
:1093700029FE2C00FFF752FF039B20001B04334300
:10938000A3640CF031FE20000E490CF01BFE0E4BC6
:109390000024F318012B07D9C0230093039A0B4B29
:1093A00031003868FFF7AAFD200005B0F0BD084C79
:1093B000FAE7C04668270020342700203C27002019
:1093C000582700206427002002FCFFFF958F010032
:1093D00016FCFFFF10B5FFF761FE002809D0054C11
:1093E00020680CF001FE044920680CF0EBFDFFF74B
:1093F00015FF10BD682700205C270020F7B5070087
:109400000D0000282ED0FFF749FE00282CD007249D
:10941000164E3068C36C1C4007D0154A290038002E
:109420000CF0F9FD00242000FEBD03F0E0FC022159
:109430003268D36C1940019103D003218B43D3646C
:10944000F1E701242343D3642800B8473268D36C82
:109450001900A143D164019C5B07E4D528000CF0FE
:1094600012FEE0E7034CDEE7034CDCE76827002050
:109470008760020017FCFFFF16FCFFFF020010B51B
:10948000014B12CB12C210BD6C270020034B1A688F
:10949000034B1A607E225A607047C04604200020A9
:1094A0006C27002070B5104D2B78022B18D081420C
:1094B00018D90B1A072B15D90C00032304431C40A1
:1094C00010D172B62A78094BD200D050981841605A
:1094D0000CF0F3FD2B7801332B7062B6200070BDC9
:1094E0000348FCE70348FAE7332B002074270020E9
:1094F00013FCFFFF17FCFFFF70B50021041C07F0F1
:109500002FFD002828D1FE21201C890507F032FDFF
:10951000002821D104300BF05DFE05000F48401BF0
:1095200008F008FD211C08F0A5F907F057FD0323FA
:109530009843040028000BF057FE20000BF04AFE71
:10954000002804D1203C002CF7D1054803E0011984
:10955000FFF7A8FF002070BD0248FCE7003800209C
:1095600013FCFFFF17FCFFFF70B5060000250C4B36
:109570001B78AB4209DD0B49EB00C91830000CF039
:10958000A4FD041E09D10135F1E730000BF022FEE5
:10959000041E02D11420FFF7C9FB200070BDC04695
:1095A000332B00207427002070B5002813D00D4BFA
:1095B0000D491C7800239C4210DDDA005558854285
:1095C0000AD28A185268824206D980230438026877
:1095D0001B061343036070BD0133ECE70BF004FE80
:1095E000F9E7C046332B00207427002070B5051E14
:1095F00014DD0B4E0B4C3368002B02D0206810F0AA
:1096000020F8FA2120680024074B89008361C46296
:109610006943356010F01DF8200070BD0348FCE779
:1096200084270020B4270020D596010017FCFFFFF7
:10963000F8B5114F06003D68002D0AD13020FFF724
:1096400093FF040006F074FC0C4BA5612360E562F7
:109650003C600B4D2B68002B09D11020FFF784FFD5
:1096600004000FF0B7FF20002C600FF08DFF3000DA
:10967000FFF7BCFFF8BDC046B427002038A60200A3
:10968000B0270020014B18687047C046842700208F
:1096900070B50D4C2368002B03D00C4B1B68002BBE
:1096A00002D10620FFF7C4FF20680FF084FF0200FC
:1096B0000749C3170D684E685219734120680A6044
:1096C0004B600FF07EFF70BDB0270020B427002054
:1096D0002822002010B5FFF7DBFF0024054BA20075
:1096E000D058002802D003681B68984701340A2C20
:1096F000F4D110BD8827002010B5FFF7C9FFFA226A
:10970000034B920018685968002307F047FC10BD0E
:109710002822002010B5FFF7BBFF024B18685968DC
:1097200010BDC046282200200B4B10B51B6804005A
:10973000002B03D0094B1B68002B02D10620FFF73A
:1097400077FF0023064A99008858002801D001338A
:10975000F9E78C5010BDC046B0270020B427002088
:1097600088270020002310B5044A99008C588442B1
:1097700001D00133F9E70020885010BD8827002070
:1097800010B50400002902D00B78002B03D1034B45
:109790002360200010BD0CF041FDFAE7D0A00200CC
:1097A000F8B504000E00150000290AD00B78002B34
:1097B00007D0002A05D0080097B210F058FB874266
:1097C00003D90B4B23602000F8BD681DFFF7CCFECA
:1097D00020600CF0BDFE23682A005F802368310002
:1097E000181D10F0E8FA23685D1900232B71EAE7D1
:1097F000D0A00200014B03607047C046D0A0020019
:1098000010B50548054C20600CF0A5FE044A05493A
:10981000200010F095F910BDD0A00200B82700205C
:10982000002000200F620200084B73B51C68050081
:10983000002C0AD00100266808310822684610F082
:10984000BAFA0CCD31682000884773BDBC270020D0
:10985000014B03607047C046D8A0020030B50068D5
:109860004488A1420CDA8588AA4209DA002907DB7C
:10987000002A05DB5443401800198371002030BDD5
:109880000048FCE717FCFFFFF0B5070085B00E00AD
:109890001D0000291FDD002B1DD004686388039381
:1098A0008B4200DD0391A3880293934200DD029274
:1098B000002306340193019B029A93420EDA290099
:1098C0002000039A10F077FA3B68AD195B88E41822
:1098D000019B0133EEE7024805B0F0BD0020FBE735
:1098E00017FCFFFFF8B504000D0016001F0000294B
:1098F00001DB002A02DA0E4B2360F8BD100048435A
:109900000630FFF731FE20600CF022FE23685D80F8
:1099100023689E80002F06D03B00320029002000E3
:10992000FFF7B2FFE9E720000CF04FFDE5E7C04686
:10993000D8A00200F0B5060087B00D1E04D1244B5C
:109940000360300007B0F0BD00200F0004000100EC
:1099500001903B78002B1AD03022524294469C440E
:109960006246092A11D90A2B0AD1019B2418013316
:109970000193A14200DA2100002004000137E8E74A
:109980000028FBD001340020F8E70120F6E76A4602
:10999000928809B212B23000FFF7A4FF33689C1D11
:1099A00003AB1F002A78002ACBD0110030390929D7
:1099B00003D81A7001330135F4E700221A70BB4254
:1099C000F9D9380010F0D7F93B0020700134F2E7E4
:1099D000D8A00200F0B5040089B006A80E000292DB
:1099E0001D00FFF74BFD236802995A88914235DA32
:1099F0009B889D4232DA1F2E30D9079B01939E42ED
:109A00002CDC0523002273430393069B0493039BE2
:109A100004999B18A03BCB5C00210593AE18029BD8
:109A2000CF1823685888019087420EDA9888B04290
:109A30000BDDDB1910270F41019870431B180598A7
:109A40000740781E87417F429F7101310529E6D189
:109A50000132052ADBD1002009B0F0BD0048FBE748
:109A600017FCFFFFF7B50468070063880E1E01931B
:109A70001EDD994218DA0023063400933B68009AF1
:109A80009B889A4212DA019BA1199D1B2A00200093
:109A900010F091F9601931000CF089FC3B685B888B
:109AA000E418009B0133E8E70CF08FFC002000E095
:109AB0000048FEBD17FCFFFF10B50548054C2060AF
:109AC0000CF049FD044A0549200010F039F810BD9A
:109AD000D8A00200C027002000200020A1630200BF
:109AE00010B5054C012120000CF029FD034A044962
:109AF000200010F025F810BDC42700200020002011
:109B0000FB6402000388074A10B50120934208D085
:109B1000834202D00020DB0703D41E20FFF706F9A2
:109B2000002010BDFFFF000010B50400034B0833F8
:109B30000360FFF74DFB200010BDC04620A10200CE
:109B4000FA2270B5438992005343314A31491400D7
:109B5000050038348B421BDC2F498B4218D82F4923
:109B6000083C8B4214D82E49083C8B4210D82D4912
:109B7000083C8B420CD82C49083C8B4208D82B4916
:109B8000083C8B4204D82A4914008B4200D908347F
:109B9000284B2A7B1E1D042A03D89E1C022A00D8AB
:109BA0001E00FA212068890007F048F833786881A0
:109BB0002B7300222A2128000CF0F1FC002801D090
:109BC0001D4870BD10222B2128000CF0E8FC002855
:109BD000F6D101222D2128000CF0E1FC0028EFD164
:109BE00001222E2128000CF0DAFC0028E8D172783E
:109BF0000E2128000CF0D3FC0028E1D101222379AA
:109C00002A211A4328000CF0CAFC0028D9D0D7E733
:109C1000E0A0020000C409000071020080380100C9
:109C2000204E00001027000088130000C409000027
:109C3000E204000034B002000EFCFFFF7FB5150007
:109C40000F226A4404001E001170002D16D0002B54
:109C500014DD012301890093006B01F0D1F9002884
:109C600002D0074804B070BD0090218933002A005B
:109C7000206B01F07BF90028F4D0F2E70148F1E70E
:109C80000EFCFFFF17FCFFFFF7B506000025019350
:109C90001E4B143608330400036085808571C5812E
:109CA000058245820F00009229001822300010F032
:109CB0009EF81C2130000FF086FD6B469B88022128
:109CC000A3806B461B88220023811423A571217376
:109CD000A563A58763813E32137827638B43F131F7
:109CE0000B4013702300957295810135221DD58795
:109CF0000833A21DD5872000DD87FFF721FF00284C
:109D000002D1A3791D43A5712000FEBD20A1020050
:109D100030B50425837987B004002B4204D1FFF7C6
:109D200049FAA3791D43A571A36AA2691B6800259E
:109D30001A4208D106236A4601212000FFF77EFF60
:109D4000051E03D0114D280007B030BD6B4602221E
:109D5000042069469A561856237BD2005A43228221
:109D600002220978C00049B2C900594343436382C3
:109D7000A379E1819343A37120000CF01EFC012321
:109D8000A1881A0002A80CF0E8FADCE70EFCFFFF3D
:109D9000F8B50400FFF7BCFF0E22A35E794F5B42CB
:109DA000BB4251DA23003E331B789B074CD501257B
:109DB000210028003E310B785A089043020002200F
:109DC000AA40834313430B702000FFF7A1FF10222A
:109DD000A35E5B42BB4248DA23003E331B785B073D
:109DE00043D50125210028003E310B789A08904385
:109DF00082000420834313430B7026002000FFF7EA
:109E000087FF1222A35E4836BB423EDA23003E3370
:109E10001B781B0739D5210001223E310B78D80869
:109E200082430820D200834313430B703378032B03
:109E30003BD80133DBB23370012B00D08DE023001F
:109E400000224A331A8030E02000FFF761FF0E2223
:109E5000A35EC8225B42520000259342B4DD23007A
:109E60003E331B789B07A2D5AEE72000FFF750FFDB
:109E70001022A35EC8225B4252009342BDDD230044
:109E80003E331B785B07ACD5B7E72000FFF740FFF8
:109E9000C8231221625E5B009A4204DD23003E3338
:109EA0001B781B07B7D5002DC0D13278002A14D0FB
:109EB0002100270001254A310B883E3701339BB230
:109EC0000B803878AC46054055D01D2B05D963462C
:109ED0009843002338700B80337020000CF0D9FBBE
:109EE000294A0723904244DD2000FFF711FF0E238B
:109EF000E25E264E52420323B2423ADBC8252000DE
:109F0000FFF706FF0E23E25EAD0052420423AA4291
:109F10002FDC2000FFF7FCFE1023E25E02235242FA
:109F2000B24226DB2000FFF7F3FE1023E25E01239E
:109F30005242AA421DDC2000FFF7EAFE1223E25E35
:109F40000523B24215DB2000FFF7E2FE1223E25E9A
:109F50000623AA420DDC00230BE0042BA5D122002E
:109F60003E321178033B0B43137000234A342380A5
:109F70000B331800F8BD092BAFD9013A0D803270B0
:109F8000ABE7C04670FEFFFFFF700200E0FCFFFF82
:109F900070B5C369C1681A68451D8AB00400EB7FBB
:109FA000114255D0002B58D1EB7F082B0DD901223F
:109FB000A379134209D11343A371A188130006A802
:109FC0000CF0CBF9FFF798FB2062EB7F012B23D835
:109FD0000123A2791A421FD00025A188A57102226F
:109FE00002A80CF0BAF9A31DDE7F012E14D1FFF7F1
:109FF00083FB2B00226A801A994100900191019BFA
:10A00000A188AB4203D1174B009A9A4227D901236A
:10A01000042206A80CF0A1F90322A3791340012B16
:10A0200014D1FFF769FB0023226A801A99419942F3
:10A0300002D10D4B984209D90223A279A18813437A
:10A04000A3710522012306A80CF087F90AB070BDA0
:10A050000B2BA9D80133EB77A6E7013BFBE73300D5
:10A060000322D6E7E7030000DB05000010B504007B
:10A07000034B08330360FFF775FB200010BDC0469B
:10A0800038A10200F0B5070000250E0085B002934C
:10A090000AAB1B7808370393104B040008330360A6
:10A0A0000192858085712900182238000FF09FFEEB
:10A0B000039A310038000FF08BFB6B466A469B8891
:10A0C000127AA380A31DE671DA77631D2562200052
:10A0D000DD77FFF729FB200005B0F0BD38A10200B5
:10A0E00010B50400034B08330360FFF771F820003C
:10A0F00010BDC046A8A102007FB515000F226A441A
:10A1000004001E001170002D16D0002B14DD012359
:10A1100001890093C06B00F073FF002802D007484C
:10A1200004B070BD0090218933002A00E06B00F07C
:10A130001DFF0028F4D0F2E70148F1E70EFCFFFF15
:10A1400017FCFFFF002330B585B003AC21700189F7
:10A150000093050001332200C06B00F051FF00287E
:10A1600002D0094805B030BD208029890090022323
:10A170002200E86B00F0FAFE0028F2D12378607824
:10A180001B02184300B2EDE70EFCFFFF13B56B4650
:10A19000DC1D0023220023700133FFF7ADFF0028F0
:10A1A00001D1207816BD0148FCE7C0460EFCFFFF38
:10A1B000D0B504000CF047FBE268A369981A09F0D7
:10A1C00007FB06000F002369E069C01A09F000FBD5
:10A1D00032003B0009F04AFE0022104B08F008FD57
:10A1E0000F4A104B08F002FA09F07EFB0021041C14
:10A1F00006F0ACFE002804D0201C0B4906F0C8FF76
:10A20000041C201C09F01EFB02000B000020074963
:10A2100008F060FF09F0A6FAD0BDC0460080664095
:10A22000EA2E4454FB2109400000B44300807640EC
:10A23000F0B5050085B0006C0CF0C8FA061C286C5F
:10A240000CF0BBFA0221071C28000CF02DFB0221A8
:10A25000039028000CF03AFB07F022FE0221041CB8
:10A2600028000CF045FB07F01BFE051C301C09F014
:10A27000BFFD0290301C09F07DFD0190381C09F0F3
:10A28000B7FD061C381C09F075FD071C039807F084
:10A2900007FE391C07F0EEFA311C071C201C07F0E2
:10A2A000E9FA029907F0E6FA011C381C06F070FF83
:10A2B000311C071C281C07F0DDFA019907F0DAFAB7
:10A2C000011C381C06F064FF0299061C281C07F0CC
:10A2D000D1FA0199051C201C07F0CCFA011C281C9E
:10A2E00007F0FAFB311C09F0C5FD0D4907F0C2FA71
:10A2F00009F0A8FA0B4A0C4B08F078F909F0F4FAC7
:10A300000021041C06F022FE002804D0201C044971
:10A3100006F03EFF041C201C07F0A2FD05B0F0BDB6
:10A320000000B443EA2E4454FB21194070B50022CA
:10A33000102104000CF079FA1B4D00282DD10326C2
:10A3400008212000FFF722FFA84226D0304226D164
:10A35000FA216389890059435023144AD518D058EB
:10A36000884204D3D518083B18000830F7D1FA21E9
:10A370002868890006F062FCA0226081112120007B
:10A380000CF053FA002808D101222B7910211A432E
:10A3900020000CF04AFA002800D0034870BD642069
:10A3A000FEF7A0FFCCE7C0460EFCFFFF50A1020065
:10A3B0007FB50425837904002B4218D102260CF0C6
:10A3C00042FAA379A188B3432B43A3710622012348
:10A3D00068460BF0C2FFA07903003040AB43A37185
:10A3E00043425841034B4042184004B070BD0248FC
:10A3F000FBE7C04614FCFFFF15FCFFFF10B5837997
:10A4000004005A070DD49B0701D4FFF7D1FF236C3A
:10A410002000002B02D0FFF70BFF10BDFFF7C8FE96
:10A42000FBE70148F9E7C04615FCFFFF70B5466C35
:10A4300086B001AC050001916260A360002E0CD0D3
:10A440000B4905A8FFF79CF90C23220005A9300051
:10A450000CF0D1FF05A80BF0DAFE2B000C3307CC73
:10A4600007C30223AA791343AB7106B070BDC0467F
:10A470003AB00200642330B504000281438185B004
:10A480008180FFF753FF0222A379606C9343A3718D
:10A49000002813D00C490CF075FF051E0ED00100EA
:10A4A0000C22103101A80FF086FC20000199029ABD
:10A4B000039BFFF7BBFF2800FFF776F80123A27983
:10A4C0001343A37105B030BD3AB00200F7B5009355
:10A4D00008AB1B880400019309AB1D8800230F0003
:10A4E00016000D4A8380083283710260C3600361E5
:10A4F00043618361C36103621D2124300CF088F93C
:10A50000009BE7632664290020006364019AFFF73B
:10A51000B1FF2000FEBDC046A8A1020082B0F0B588
:10A520000400A5B064202B932A920FF00FFA0422A6
:10A530000C2109A802F0D4FC2422CC491BA80FF05E
:10A540003AFC052206A811000BF048FFC84907A8ED
:10A55000FFF7F0F9A06800F081FBA568C54918A8CD
:10A56000FFF70EF9782218A9280000F0A5FC18A81A
:10A570000BF04DFE6E256420013D0FF0E7F9002D34
:10A58000F9D1A06800F06AFBA0680CF06FFB012114
:10A5900060680CF092F80121070060680CF0A0F8E8
:10A5A00006000A200FF0D2F90022B34B03929F421B
:10A5B00010DB013203923A00C8320BDBC8220421BF
:10A5C00092000391974205DC03220392C82F01DC1D
:10A5D000013A039200279E420CDB33000137C83357
:10A5E00008DBC82303379B009E4203DC013FC82ED3
:10A5F00000DC013F06A80BF0E8FE002603237343AE
:10A600001BA9CA189078002805D0C95C5278FF238E
:10A6100006A8FFF723F901360C2EEFD16B463AB2AC
:10A620000C21595E06A8FF23FFF718F90023A06844
:10A6300000931A00743006A90BF0D7FE0023049390
:10A640000323049A039853431BAA995C814237D190
:10A65000D31805935B78BB4232D1059B9E78002EC0
:10A660002ED1310020680CF01FF907F019FC3200E0
:10A67000031C290009A80DF047F9310020680CF0EF
:10A6800025F907F00DFC0122031C290009A80DF093
:10A690003BF9310020680CF02BF907F001FC290090
:10A6A000031C022209A80DF02FF9FE2303229B05AB
:10A6B000290009A80DF028F90123059AED189370D7
:10A6C000049B013304930C2BBAD164200FF03EF9A4
:10A6D0000B2D00DC5BE709A80DF002F90122010057
:10A6E0000CA802F0FDFB002509A80DF0F9F8A8421E
:10A6F0003CDD2900002209A80DF0F4F80022061C18
:10A70000290009A80DF0EEF8011C301C07F0B2F882
:10A710002900061C012209A80DF0E4F80122071CFB
:10A72000290009A80DF0DEF8011C381C07F0A2F87A
:10A73000311C06F02DFD2900061C022209A80DF08F
:10A74000D1F802222900071C09A80DF0CBF8011C42
:10A75000381C07F08FF8311C06F01AFD2900031C85
:10A7600000220CA80DF0D0F80135BDE709AA1100B0
:10A77000012318A80DF0E2F818A90FA80DF03BF975
:10A7800018A80DF0D2F80CAA09A912A801230DF0FF
:10A79000D5F8002312AA0FA915A80DF0CFF80022B2
:10A7A00015A811000DF09EF80022061C012115A825
:10A7B0000DF098F80022051C022115A80DF092F862
:10A7C000FC21071C8905301C07F054F807F048FBF2
:10A7D000FC21060018908905281C07F04BF807F0AB
:10A7E0003FFBFC21050019908905381C07F042F851
:10A7F00007F036FB2A00030031001A902068FFF7AB
:10A8000015FEA0680CF032FA07A908A8A5680BF09D
:10A81000D4FD0022194B009208A9019328001300CF
:10A8200000F0BAFA08A80BF0BBFDFA2080000FF088
:10A830008DF8A0680CF01AFA15A80DF076F812A899
:10A840000DF073F80FA80DF070F80CA80DF06DF86E
:10A8500007A80BF0A5FD06A80BF0A2FD09A80DF0B6
:10A8600064F825B0F0BC08BC02B0184745B002003F
:10A8700069B00200AEB00200E0FCFFFFDC050000A2
:10A88000F7B583601D4B05001F6801604260002F13
:10A8900031D02820FEF768FE040010300BF053FD85
:10A8A000174B18202360FEF75FFE00220600154BB1
:10A8B00001920560083200210C3000930FF097FAE6
:10A8C00008226946301D0FF076FA0F4B00227361A3
:10A8D000C223A3803B68E260A660226262625B687A
:10A8E000210038009847002805D020000BF045FCD7
:10A8F0002000FEF759FE2800FEBDC046BC27002000
:10A90000050006001DA5010009690200F0B504005C
:10A9100085B0637A9C46002B04D120000CF01FF810
:10A9200005B0F0BDA37A266F01931023019AF35668
:10A9300000259B1801229A402900F3680392029394
:10A94000029BAB4231DDB368019A6B439B1872697D
:10A950005B00E77AD3181A785878E379012F14D17D
:10A960005F1E3F1A10003A005B004343606F82187D
:10A97000D3189B79634500DD6346627B1A4202D09F
:10A980000123AB4019430135DAE7022F05D15F1EE1
:10A99000BA1A277A013F381AE6E7032FE4D1277A5B
:10A9A000013FBF1A02003800DEE71123C943F35606
:10A9B000606C994023691940039B19430FF0AAF872
:10A9C000A27B072AACD8637B0C495B006373531CE2
:10A9D000DBB290004158A373022A03D808000EF09E
:10A9E000AAFF96E7064B2000236300236363054B11
:10A9F000E462236414300EF02CFE91E7C0A1020043
:10AA00000DA901004969020010B50400044B036060
:10AA10000EF017FE200005F0A1FA200010BDC04680
:10AA200038A6020010B504000E4B08330360FEF791
:10AA300099FE200074300BF0B3FC200060300BF066
:10AA4000AFFC200058300BF0E2FB200050300BF040
:10AA5000DEFB2000044B14306361FFF7D5FF2000BC
:10AA600010BDC046E0A102006CA60200F8B50025AA
:10AA70000400324B85800833036085711430160062
:10AA80000F0005F055FA20002D4BE5626361256447
:10AA90005030FEF7AFFE20005830FEF7ABFE20002E
:10AAA0006030FEF7D5FE20000423F25E336826678F
:10AAB000590009B274300BF091FC3368226FE371D6
:10AAC00073680126237210236581A7802561D35600
:10AAD00091685918994204DD3000984001330543CC
:10AAE000F8E711230120D356D1685918994206DDA1
:10AAF00002009A402669013332432261F6E71420AE
:10AB0000FEF732FD226900212A430123060005F0E9
:10AB100063FEFF23220063720133A38100234832C6
:10AB20006664A37320001370A366FEF7FDFD012386
:10AB3000A27920001343A371F8BDC046E0A1020032
:10AB40006CA60200F0B5437A85B00400002B04D156
:10AB500020000BF004FF05B0F0BD0122837A110044
:10AB60009C461023066F0025F356039263449940D8
:10AB700002912900F3680193019BAB422CDDB3687D
:10AB800072696B4363445B00E77AD3181A7858788C
:10AB9000E379012F10D15F1E3F1A10003A005B00CD
:10ABA0004343606F8218D3189B79002B02D0039B1C
:10ABB000AB4019430135DFE7022F05D15F1EBA1AFA
:10ABC000277A013F381AEAE7032FE8D1277A013FB5
:10ABD000BF1A02003800E2E71123C943F356606C44
:10ABE000994023691940029B19430EF093FF667A3E
:10ABF000B31EDBB2FC2B14D8FEF744FD0B4B050053
:10AC0000236300230A4863630A4BFF21E462236441
:10AC1000704306F09DF829004143200014300EF0E7
:10AC200018FD637A012B00D995E791E75F6902006F
:10AC3000B6030000496902001FB5012381881A008C
:10AC400068460BF08AFB012303491A0068460BF0A3
:10AC500084FB05B000BDC046FE0300001FB5030025
:10AC600048331A780400002A0DD000221A700123FC
:10AC700081881A0068460BF070FB012304491A0012
:10AC800068460BF06AFB200074300BF09EFB1FBD82
:10AC9000FF03000010B548300378002B06D003787E
:10ACA000012B03D0012102480BF0DDF910BDC04695
:10ACB000FF03000010B50121040006200BF0D3F9BA
:10ACC000064B984208D148342378002B04D02378CF
:10ACD000012B01D020BFF7E710BDC04616FCFFFFD7
:10ACE00070B50600141E19DB050048352B78002BC3
:10ACF00002D02B78012B13D1002330001A007430BE
:10AD0000FEF768FE002C07D033004A331C80002475
:10AD100007234C3634802B70200070BD014CFBE7BC
:10AD2000014CF9E717FCFFFF12FCFFFFF8B5170015
:10AD30000A68050052880B00012A09D10021180079
:10AD40000BF0F4FA002201002800FFF7C9FFF8BD5C
:10AD5000002F19DD060048363278002A02D03278FA
:10AD6000012A13D12A00002428005C321900148023
:10AD700058300BF0B6FA2B004A331F8003234C35B2
:10AD80002C8020003370E2E70148E0E70148DEE76D
:10AD900017FCFFFF12FCFFFF73B5079C0500002C9A
:10ADA0001CDB060048363078002802D030780128B5
:10ADB00016D106981BB2C0B20090280012B27430AF
:10ADC0000BF013FB002C07D02B004A331C8000240F
:10ADD00007234C352C803370200076BD014CFBE7F7
:10ADE000014CF9E717FCFFFF12FCFFFFF7B5050068
:10ADF0000E00171E26DDFFF74DFF2B0048331C7891
:10AE0000E4B2002C20D133685B88012B09D12100EA
:10AE100030000BF08BFA220001002800FFF760FFE2
:10AE2000FEBD310001A80BF054FA3A0001A9280038
:10AE3000FFF77CFF01A80BF0EAF92800FFF73AFFC3
:10AE40002000EDE70148EBE70148E9E717FCFFFFC9
:10AE500011FCFFFFF0B587B00D9C06000F000292B9
:10AE60000393002C20DBFFF715FF330048331D78D8
:10AE7000EDB2002D1AD1390005A80BF09EFA0C9BFB
:10AE800001940093029A039B05A93000FFF784FF09
:10AE900005A80BF085FA002C03D03000FFF70AFF5D
:10AEA0002C00200007B0F0BD014CFAE7014CF8E798
:10AEB00017FCFFFF11FCFFFFF8B50400171E1DDD96
:10AEC000060048363378002B02D03378012B17D197
:10AED0002200E3795632013B137023000025200045
:10AEE00054331D8050300BF0FCF923004A331F808F
:10AEF000022328004C3425803370F8BD0148FCE75C
:10AF00000148FAE717FCFFFF12FCFFFFF7B5050049
:10AF10000F00161E18DDFFF7BDFE2B0048331C780E
:10AF2000E4B2002C12D1390001A80BF0D2F93200A2
:10AF300001A92800FFF7C0FF01A80BF068F928005D
:10AF4000FFF7B8FE2000FEBD0148FCE70148FAE724
:10AF500017FCFFFF11FCFFFFFF2902D84172002000
:10AF600070470148FCE7C04617FCFFFFF0B51F0023
:10AF700085B00AAB1B780400039300933B000D00DF
:10AF800016000EF08CFB002833D0237D082B2DD823
:10AF9000236800221900FC318A62A021C9005A509E
:10AFA000154905205A500138C046C046C046C04623
:10AFB000C046C046C046C046C046C046C046C04661
:10AFC000F1D1236801325A50A0210432C9005A50ED
:10AFD00005F0BEF8039B3200009329003B002000DF
:10AFE0000EF05DFB237D01332375CCE7034805B0EC
:10AFF000F0BD2075FBE7C046FC0F00000EFCFFFF14
:10B00000F0B51F0085B00AAB1B78040003930093D2
:10B010003B000D0016000EF02AFB002833D0237DE4
:10B02000082B2DD8236800221900FC318A62A02148
:10B03000C9005A50154905205A500138C046C0462B
:10B04000C046C046C046C046C046C046C046C046D0
:10B05000C046C046F1D1236801325A50A0210432C3
:10B06000C9005A5005F074F8039B32000093290080
:10B070003B0020000EF0FBFA237D01332375CCE763
:10B08000034805B0F0BD2075FBE7C046FC0F00008B
:10B090000EFCFFFF10B5040086B0006C05F0D6FC76
:10B0A000237BA0219A00105100200C4AC900505067
:10B0B0000B4914305050626C6846517CC91849B233
:10B0C0000BF096FE039B019A03211A60207B01304E
:10B0D000C0B205F039FE217306B010BD007000400B
:10B0E0000405000082B070B50400002588B00C9201
:10B0F0000D93636C9A68AA420ADD197C02A849196B
:10B1000049B20BF075FE069B039A01351A60F0E711
:10B110005D7C237B02A8ED186DB229000BF068FE60
:10B12000039A059B01921A600021182202A80EF0D2
:10B130005EFE02A8002229000EF04AFB206C0028C7
:10B1400001D0FEF731FA0820FEF70EFA29000600BA
:10B1500005F056FC094B2000E3620023FA2123632B
:10B16000074B2664A462E363103009010EF071FA04
:10B1700008B070BC08BC02B01847C04695B00100CA
:10B180009B6D0200F0B504000E00150085B01F0095
:10B190000CAB1B88103001930BF0D5F8268065802E
:10B1A0001820FEF7E1F902AE050033000AAA03CA2F
:10B1B00003C32F602800082700213A000C300EF04E
:10B1C00016FE3A003100281D0EF0F5FD064B022256
:10B1D0006B61200000230199A5600A43E360A2800F
:10B1E0002362636205B0F0BDB16D020030B5134B50
:10B1F00091B01D680400002D17D0114B6A460493CE
:10B20000002305931033029304AB03CB03C2230046
:10B210000222062106A8FFF7B5FF2B6806A99B6846
:10B220002800984706A80AF0A8FF2000054B103018
:10B230002361FFF7E9FB200011B030BDBC270020DF
:10B24000E5B001006CA60200F8B50D1E30D0002656
:10B250000227C468002C28D0AA88A38853403B4208
:10B2600004D13A4204D1AB883B4219D0646AF1E779
:10B27000A968A0680CF023FB0028F4D02B88002BD1
:10B2800002D022889A42F1D16B88002B02D06288CA
:10B290009A42EBD1A288074B01361343A380E5E71E
:10B2A000A368AA689342E1D1E8E72000002E00DC01
:10B2B0000148F8BD0080FFFF17FCFFFFF0B5060056
:10B2C00085B00D1E59D00127C468002C22D0022160
:10B2D000AA8800230A4202D0A3885B083B40226868
:10B2E00029688A4210D1A068A968002B0AD00CF006
:10B2F000E6FA002808D0A3881AB2002A06DB204804
:10B3000005B0F0BD8842F6D0646ADEE75B045B0CF2
:10B31000A380F4E7F0682A88002807D1F5600123AC
:10B32000184968460BF019F80020E9E7010003000E
:10B330001C88944206D25C6A1900002C0DD02300B0
:10B34000F6E723001C88944207D15F886C88A742E7
:10B3500003D25C6A1900002CF3D1814209D10B8819
:10B360009A4204D305D148886B88984201D9696212
:10B37000D4E74B6A6B624D62D1E70348C0E7C04631
:10B3800016FCFFFFFD03000017FCFFFF064B10B586
:10B390001A00040008322C33026043600430FDF7C9
:10B3A00017FF200010BDC046F8A1020008B4024BF0
:10B3B0009C46043808BC60478DB3010008B4024BBA
:10B3C0009C46043808BC60471D6E02000C4A0023EE
:10B3D00011002C32083110B5038183724260C360C2
:10B3E000036143614383016004000430FDF7E2FE22
:10B3F000044B1A68002A00D11C60200010BDC04612
:10B40000F8A10200BC270020F7B50E000125C46892
:10B410000192002C36D0238832889A4201D0002B2A
:10B4200023D1638872889A4201D0002B1DD1FDF789
:10B4300035FE0123002806D0C022A3881340C03B5C
:10B440005A425341DBB2019A934219D1A7883BB2C9
:10B45000002B15DB10223100A0180EF0ACFC4023AD
:10B460001F4204D020000BF0E2FC646AD1E7FDF734
:10B4700015FE0028F6D021000348FDF7BFFFF4E7D2
:10B480000025F2E72800FEBD2F6E020008B4024B33
:10B490009C46043808BC6047B76F0200F0B587B01F
:10B4A00001930EAB1B88060003930D9B0D000093C8
:10B4B000019B02920C9F002B3DD0002F02D1009BDC
:10B4C000DB0738D52820FEF74FF8040010300AF0CB
:10B4D0003AFF6B461B89258063801820FEF744F8ED
:10B4E0000500009B08220593019B002103600C309E
:10B4F00004970EF07CFC082204A9281D0EF05BFCCA
:10B500000E4B02226B6100230399E36023626362A6
:10B5100033680A43A560A2805B6821003000984729
:10B52000002806D020000AF028FE2000FEF73CF894
:10B53000034807B0F0BD0348FBE7C046F16F0200C7
:10B5400016FCFFFF17FCFFFFF0B5040016000025F6
:10B550008380164A164B85710260218146810573EE
:10B56000186889B08C46A8421DD0124A05950492ED
:10B57000C02202926A4604AB82CB82C223002A0018
:10B580006146FFF78BFFC022094B0A4918680292F7
:10B590006A46069106AB079582CB82C223002A0039
:10B5A0003100FFF77BFF200009B0F0BD3CA2020094
:10B5B000BC2700201B71020030B500240373012357
:10B5C000034D84710560818082734373846030BD54
:10B5D00054A2020070B583790400DB0702D58068AD
:10B5E000FDF7E2FFA3799B0702D5A068FDF7DCFF1A
:10B5F000A3795B0707D5A0230021144ADB00D150B3
:10B60000A068FDF7D1FFA3791B0708D5A568002D19
:10B6100005D028000CF09FFF2800FDF7C5FFA37997
:10B62000DB0605D5A068002802D00368DB689847D0
:10B630006023A2791A4205D0A068002802D00368CE
:10B640005B6898470023A360A37170BD0070004041
:10B65000F7B50227037B04000D003B4226D00129E9
:10B6600026D886793E40009614D1FFF7B3FF182004
:10B67000FDF77AFF0E230600E35618220099019386
:10B680000EF0B5FB019930000EF0B4F8A379A66076
:10B690003B43A371A3685A68002D04D00025DB68E2
:10B6A0001A602800FEBD1B691A60FAE7014DF8E731
:10B6B000014DF6E716FCFFFF17FCFFFF70B5040015
:10B6C00000250C4B0E000833858085710360210036
:10B6D00018300BF0DAFD2000210020300BF0F8FDCF
:10B6E000054BA680E5802572E56025616561200037
:10B6F0001C6070BD64A20200C82700208379DB07AC
:10B7000002D5C160002070470048FCE716FCFFFF2F
:10B710008379DB0701D5C06870470148FCE7C04664
:10B7200016FCFFFF70B545690400002D22D0037A96
:10B73000032B21D8FFF7ECFFA8622C20FDF714FFA4
:10B740002C22002105000EF052FB002263695A6290
:10B750002369934208D1636923610020237A6561DC
:10B760000133237270BD13005A6A002AFBD162694B
:10B770005A62F2E70148F5E70148F3E717FCFFFFDB
:10B7800013FCFFFF144B70B55A68144C002A03D009
:10B7900000225A600132A2601A69002A17D00021E3
:10B7A00019618023DB000E4DE3582868012B0FD16F
:10B7B000A923DB00E1584942FFF7A0FF2868FFF703
:10B7C000B1FF2B685A69074BE2500123A36070BD9B
:10B7D000FFF794FFF9E7C046FC100040001000405E
:10B7E000C82700200405000003000069002809D0D4
:10B7F0000221054AD167426A1A611A7A013A1A721D
:10B80000024B19607047C04604E100E000E100E02F
:10B8100010B5002903DB024B19600DF090FF10BD3D
:10B82000CC27002070B504001E0004AB1D7804F086
:10B83000C7FB20000E4B40302360FDF7DBFF2300E9
:10B8400001364C33013522001E701D730023E121A7
:10B850004E32A3646365138053809381D381013B8F
:10B86000200063644902FFF7D3FF200070BDC0468B
:10B8700080A00200F7B580277F053D697C6908221A
:10B88000113C6C430600210068460EF094FA104B00
:10B89000009A9A4219D000930023019379693000ED
:10B8A000133969430BF029FD019A009930000BF020
:10B8B0003CFD210030000BF020FD7969AB08133905
:10B8C0006943220030000BF022FD0198FEBDC04606
:10B8D000FECA0000F0B50D00A9B00D920021302283
:10B8E000060010A80B930EF082FA28000EF0BFFAA3
:10B8F000431C0C93102B00D9B5E00B9B202B00D9D7
:10B90000B1E0290030000BF03DFD071E50D12900A9
:10B910000C9A10A80EF04FFA0D990B9A14A80EF07D
:10B920004AFA80235B051A695F690C92113F7A43DA
:10B9300030005D690B92FFF79DFF3022002104006B
:10B940001CA80EF054FA290000270C9B1339594308
:10B9500030000BF0D2FC0D9730257D430B9B083354
:10B96000ED18A74242DA290030221CA80EF023FA73
:10B9700010A91CA80EF071FA002827D13C4930000C
:10B9800022000E910F940BF0D0FC6A46099513AB80
:10B9900023CB23C223CB23C223CB23C23000129B51
:10B9A0001099119A0BF0CFFC01230D930137D3E7C7
:10B9B00010300B9A0D990EF0EFF904003800FDF7E6
:10B9C000F3FD002CA3D1200029B0F0BD6A460995F3
:10B9D0001FAB23CB23C223CB23C223CB23C23000F4
:10B9E0001C991D9A1E9B0BF0AEFCDFE7E54330234C
:10B9F000ED1725405D430B9B08355D190D9B002B12
:10BA00001DD10C9B3021981E05F018F9A0422CD0B6
:10BA100017490134300022000E910F940BF085FC81
:10BA20006A46099513AB23CB23C223CB23C223CB76
:10BA300023C230001099119A129B0BF084FC0B99D1
:10BA400030000BF05AFC80235B0559690C230C9ADB
:10BA5000133963434A430233110030000B9A0BF051
:10BA600056FC0024AFE7034CADE7034CABE7C04600
:10BA7000FECA000017FCFFFF13FCFFFF70B50400B7
:10BA8000A280FA22002308000C49920008312160AC
:10BA9000A3716061E260A360638209490BF072FCEC
:10BAA000051E09D0010020001031022212300EF0D4
:10BAB00082F92800FDF778FD200070BD7CA202000D
:10BAC000BCB0020030B50225837987B004002B4258
:10BAD00004D1FDF76FFBA3791D43A57120000BF086
:10BAE0009BFC00281CD06B46DD1C28000BF08BFC57
:10BAF0002B78002B17D001A80BF083FC0321019AAF
:10BB0000D3170B409B189B102382FDF7F5FDE368CC
:10BB1000A18818180123A0601A0002A80AF01DFCD1
:10BB2000002007B030BD0122064B1A60064A51685A
:10BB30000029FCD000215160044A126801920122C0
:10BB40005A60DBE700C00040FCC0004008C5004070
:10BB5000022802D10122014B1A707047342B0020B9
:10BB600070B5064C05002378002B04D1044801F081
:10BB700067FE01232370280070BDC046352B0020CE
:10BB800051BB010070B50C000AF0FBF9002810D081
:10BB90000023144DA40A2B7020000BF051FC002848
:10BBA00003D00A200DF0D2FEF6E72B78002BFCD054
:10BBB00070BD02210C4B0D4A99508021C90008002C
:10BBC0005D58002DFCD0A121C9005C5019580029F6
:10BBD000FCD0002199508021C9005A58002AFCD07D
:10BBE000E6E7C046342B002000E0014004050000D9
:10BBF000F8B50C0015001E000AF0C3F9002811D09A
:10BC00000023174F3B703200290020000BF016FC78
:10BC1000002803D00A200DF099FEF4E73B78002BB2
:10BC2000FCD0F8BD01210F480F4B844619508021EC
:10BC3000C9005A58002AFCD080270022FF009642F3
:10BC400007DD910068586050D9590029FCD00132B5
:10BC5000F5E7002261465A50DA59002AFCD0E0E7A5
:10BC6000342B00200405000000E0014010B5040062
:10BC7000054B083303601C300AF0C9FA2000183065
:10BC80000AF0C5FA200010BD94A20200FF23F0B50F
:10BC90002C4D8DB02B700023040069460088009362
:10BCA00003F014FB002802D16B469B782B70264EC4
:10BCB0003368DB68002B07D1002320881A001900A5
:10BCC0000BF0C2FB0DB0F0BD2B78032BF4D81F494D
:10BCD00001A8FDF755FD336801A9DE6804A80AF044
:10BCE000F8FA04A930000BF080FB0027060004A836
:10BCF0000AF08DFABE421ED031002022103104A875
:10BD00000EF059F83000FDF74FFC297804ABC9005C
:10BD10005918082202A80EF04EF8208801230822A4
:10BD200002A90BF091FB0137002804D12088084AB2
:10BD30000C210BF087FB01A80AF069FA002FBBD099
:10BD4000C0E7C046F0210020DC270020CCB0020074
:10BD5000FFFF0000F0B5837991B004005B071BD5AD
:10BD6000FDF7CAFC00232269801A9941994203D148
:10BD7000F423FF3398420FD9A068002808D0364B2F
:10BD80001D880CF005FC036815221B6A29009847E2
:10BD90000422A3799343A371A3799B0759D52F4D0F
:10BDA0002B68DB68002B50D02D4B1B78032B4CD815
:10BDB000294B2C491B8804A80193FDF7E1FC2B6853
:10BDC00004A9DE6808A80AF084FA08A930000BF07C
:10BDD0000CFB070008A80AF01AFA02AB9E1D082304
:10BDE0003200338006A9073B01980BF02FFB002F90
:10BDF00008D039002022103108A80DF0DCFF3800EF
:10BE0000FDF7D2FB164B32881B7806A9DE0008AB83
:10BE10009E1930000DF0C0FF002813D0082206A99B
:10BE200030000DF0C8FF2B6804A9DD6805A80AF0F2
:10BE300050FA202308AA05A928000BF0DCFA05A86F
:10BE40000AF0E5F904A80AF0E2F90222A379934383
:10BE5000A37111B0F0BDC046602A0020DC2700208D
:10BE6000F0210020CCB00200F7B5089E050015298E
:10BE700022D8012007008F40244C27421CD0E97FA4
:10BE8000CC181F2C41DC69183418A14210D80021AD
:10BE9000C8B2834204D9545C701884700131F7E74A
:10BEA00032789A183270EA7F9B18EB7700202CE0EA
:10BEB0000878C8540139E8E73478013CE4B2A34279
:10BEC00008D10023D9B28C42F0D9D05CF118887027
:10BED0000133F7E7EF7F0120FF183F1B1F2F14DC12
:10BEE0000227A01C7F423618381B0190E87F2F18CC
:10BEF000BE4204D23078019FF0550136F6E7041BAC
:10BF0000023CEC7728000BF0EBFAFEBDFC002000B1
:10BF1000F0B585B001930AAB1E880BAB1B78451CAE
:10BF200002930EAB1B78040003930B781700037089
:10BF30004B8A10224382013128000DF03CFF6B46F2
:10BF40009B88268363836B461B7B002623776B4687
:10BF500001221B7A6761E683EB77A31CDA770C9BDF
:10BF60000C256362230020000D9A28331A705E703E
:10BF70009E702A0031002C300DF039FF2000074B55
:10BF8000E663A3632A00310040300DF030FF20004B
:10BF9000034B2665E36405B0F0BDC0466374020040
:10BFA0005574020070B50D000CF0F2FA040003683D
:10BFB000002D09D15B699847FA2080006843074942
:10BFC00004F03CFEE08070BD9B6898478542F3D248
:10BFD000236820009B6898470500EDE77102000088
:10BFE000F0B507001600A1B002C704006B4918A8FD
:10BFF0001D000BF0BCFA331E03D030000DF037FFEC
:10C0000083B2012204920022039202920232019230
:10C010000093320018A93800FFF77AFF2300604927
:10C02000583318A807930BF0A2FA2B1E03D0280050
:10C030000DF01DFF83B201220492002203920292AE
:10C040000232019200932A0018A90798FFF760FFB7
:10C0500023005449AC3318A808930BF088FA269BA8
:10C06000002B03D018000DF002FF83B201220492CE
:10C07000002203920292023201920093269A18A99A
:10C080000898FFF745FF631CFF33474918A8099339
:10C090000BF06DFA279B002B03D018000DF0E7FE84
:10C0A00083B2012204920022601C039202920232A7
:10C0B00001920093279A18A9FF30FFF729FF230068
:10C0C0005533FF33394918A809930BF050FA289BD0
:10C0D000002B03D018000DF0CAFE83B20122049297
:10C0E000002203920292023201920093289A18A928
:10C0F0000998FFF70DFF2300A933FF332C4918A837
:10C100000A930BF034FA299B002B03D018000DF092
:10C11000AEFE83B201220492002218AD0392029275
:10C12000023201920093299A29000A98FFF7F0FE43
:10C13000204B1B780B93002B2DD1079B1297139349
:10C14000089B0DAF1493631CFF331593099B1A4989
:10C1500016930A9B380017930BF009FA1D2149200A
:10C160003B7810222B707B8A12AE6B8206ABC9180B
:10C17000C0180DF020FE06232B756B469B8D2068A2
:10C18000AB83AE610CF008FA036829001B6898477E
:10C190000122084B1A70200021B0F0BD292A0000AE
:10C1A000242A0000252A0000272A0000262A000051
:10C1B000282A0000362B00200A18000070B5002540
:10C1C00004000A4B8580083385710360C160183014
:10C1D000FDF710FB20001C30FDF70CFB044BA560A5
:10C1E0001C60012365612000A37170BD94A2020050
:10C1F000DC270020FA2130B585B00500012302229A
:10C20000890068460AF0A9F8074C2068002809D080
:10C210000BF0E6F92988054B2268198002239179F1
:10C220000B43937105B030BDDC270020602A00204D
:10C2300010B50C0007290DD880680CF0A9F9064B41
:10C24000195703685B6C9847431E9841034B404263
:10C25000184010BD0248FCE7C4B0020016FCFFFF06
:10C2600017FCFFFFF0B5A44C0D00A5440400079394
:10C270009AAB1B78A14909A804930692FDF780FAAE
:10C28000200029001C300AF02CF8C020800001F0AA
:10C29000CDFA0820FDF768F90600002100F088FEBD
:10C2A00015ADA66000210C220EA80DF0A0FD2B00FC
:10C2B0000EAA83CA83C3924B2900EB60002330008F
:10C2C0002B610CF04EF9A0680CF062F908220021F5
:10C2D000059016A80DF08BFD1420FDF745F92900F7
:10C2E0000200884B1593C8C9C8C2874B059EC3601E
:10C2F0000023A43603613368002B00D0F5E03060E2
:10C30000A0680CF049F908220021060016A80DF0DB
:10C310006EFD1420FDF728F97C4B1593030086CDA4
:10C3200086C37B4BC36000230361336B002B00D0BB
:10C33000DDE03063A0680CF02BF908220021050035
:10C3400016A80DF054FD1420FDF70EF9714B15AE33
:10C350001593030086CE86C36F4B9835C3600023C8
:10C3600003612B68002B00D0C3E02860012504ABDB
:10C370001B7C04AA2B4308A9280013740BF068F84F
:10C38000A0680CF00DF9036864495B6A9847A068DF
:10C390000CF006F9036862499B699847A0680CF0A5
:10C3A000FFF8002302680093166804992A00B0473A
:10C3B000049B002B0AD020000BF01BF9032805DD9D
:10C3C000A0680CF0EDF80368DB6898470EA80BF046
:10C3D0007EF82F2004ABC0180BF079F8362004ABA0
:10C3E000C0180BF074F83D20042504ABC0180BF006
:10C3F0006EF80EAB0A93A06804AB5D770CF0D0F832
:10C4000003680AA91B699847A0680CF0C1F8036883
:10C410000AA95B6D9847A0680CF0BAF80368002180
:10C42000DB6D9847A0680CF0B3F8036802219B6DA0
:10C43000984700212000FFF7FBFE1820FDF794F835
:10C44000A16800F005FA374B374A1B68A1680393CF
:10C45000364B15A81B6800260293354B0CAF1B68A2
:10C460000193069B1B685B190093324B12681B6893
:10C47000FFF7B6FD3020FDF777F8079AA16800F0C6
:10C48000A7FAA0680CF084F8036839009B6A984703
:10C49000294BBE80A0680C930CF07AF80368390031
:10C4A000DB6A98472900A0680BF06DF8099A09210A
:10C4B0009378A06852190BF079F8A0680CF068F82E
:10C4C000C8210671A068FFF76DFD04AB1B7FB34266
:10C4D00004D0A0680CF05CF80BF03FF809A809F054
:10C4E00096FE95239B009D44F0BD036107E7036121
:10C4F0001FE7036139E7C046ACFDFFFFBFB1020093
:10C5000071740200F5C101007F7402008DBC01004E
:10C510008D740200BB7402009B7402003DC50100D3
:10C5200071C50100D8270020D42700200820002052
:10C53000D02700200C2000200800100013B5062290
:10C540006846FDF72DF9094B1C68002C0AD0694696
:10C5500001A809F0BEFE200001A90BF06BF801A8AC
:10C5600009F055FE684609F052FE13BDDC27002095
:10C57000002373B501AE0C0031000500019302F0F9
:10C58000A5FE002802D1B278064B1A70064B186837
:10C59000002806D061426141044BC9B21D800BF0F6
:10C5A00051F873BDF0210020DC270020602A002014
:10C5B000F0B5040097B0039107A89C490592FDF7D8
:10C5C000DFF89B4908A8FDF7DBF822000FAD280033
:10C5D0001C3207A909F094FE08AA290009A809F04D
:10C5E0008FFE280009F013FE92490AA8FDF7C8F84B
:10C5F000A0680BF0CDFF03680DAE5B69984728007B
:10C600000AF065FF332004ABC0180AF060FF3A203F
:10C6100004ABC0180AF05BFF412004ABC0180AF05D
:10C6200056FF8023DB00B380A0680D950BF0B0FFB0
:10C63000036831005B6D9847A0680BF0A9FF0368A1
:10C6400000219B6D9847A0680BF0A2FF0700002512
:10C6500006000A371F22002138000DF0C8FBFD77C5
:10C6600030000AF071FF0621A0680AF08CFF099AD9
:10C6700009219378A06804320AF098FFA0680BF0B3
:10C6800087FFC8210571A068FFF78CFCA0680BF03C
:10C690007FFFFF272E000581A0680BF079FF0AF0CD
:10C6A0005CFF0398FEF7DAFA0AA90CA809F011FE5C
:10C6B00078220CA90398FEF729FC0CA809F0A7FD25
:10C6C000039920000AF0D1FF2000FCF773FD0495C8
:10C6D000012563691D402DD057490BA8FDF72AF9A4
:10C6E0000BA90CA809F069FE00220CA91300019205
:10C6F00000920398FEF7AEFB0CA809F051FE049BD4
:10C70000002B42D1043F282F41DD0025FE2F00DC05
:10C71000049D05980AF06FF8002806D0012362698D
:10C720009A43130004221343636100260BA809F007
:10C7300037FE049504226369134233D0FF21039826
:10C74000C826FEF709FC0025B600A36902229B5EFD
:10C75000AB4222DD200029B2183009F0E7FD0023AA
:10C76000010003981A007430FDF734F93000FCF72B
:10C77000B9FD03980AF07AFAC820FCF7B3FD02224B
:10C780006369134209D10135DFE70437BBE703983A
:10C790000AF06CFA002FBCDDBAE7FA208000FCF743
:10C7A000A1FD0026022365691D421CD006331D40F1
:10C7B00024D022490BA8FDF7BDF80BA90CA809F05D
:10C7C000FCFD00220CA90192009213000398FEF7D1
:10C7D00041FB0CA809F0E4FD1948FCF783FD0BA808
:10C7E00009F0DEFD174E6420FCF77CFD164B013688
:10C7F0009E4200DC6CE709F0D6FB69E713490BA801
:10C80000FDF798F80BA90CA809F0D7FD2B002A001A
:10C810000CA9019500950398FEF71CFB0CA809F0E4
:10C82000BFFD0BA809F0BCFDDDE7C046D8B0020093
:10C83000E8B00200EAB00200F8B002003DB1020028
:10C84000983A00008C0A00008B0A00007AB10200BE
:10C850000022594BF0B50833060003600F001000AA
:10C86000A9B0B1600BAB991801324870102AFAD107
:10C870000F3A524C1A700E32105D991A0874013A30
:10C88000FAD2997B5A7B09020A4331000C31039199
:10C8900025211B7813AD2B7002ABC918452302A8C4
:10C8A0001B186A82180010220DF085FA039B642180
:10C8B0006B610123002402AA2B77521819930933C4
:10C8C00013701DAB1C706D2302AA9B181C706E2385
:10C8D00021009B181EA80C22EC836C621C700DF0CA
:10C8E00086FA374B0C22210023A8AB63EC630DF0D2
:10C8F0007EFA344B02AAEB6446239B180322DA77B4
:10C9000022002C650595347306AD2B1901345A703D
:10C91000102CFAD101232C482B700E33195CEA1A23
:10C920001174013BFAD211212520AA7B6B7B1202E4
:10C930000BAC13432A78638202ABC9182270C0186B
:10C9400010220DF038FA0123237505ABA3610023F3
:10C950003800A3830BF020FE036821001B68984772
:10C9600013ABDB8BB068B3820BF016FE00220368BA
:10C970000092B18A039ADC680123A047B0680BF0EB
:10C980000BFE07001420FCF7EFFD0022012304003A
:10C990000261069240C00832290007930DF00BFA9D
:10C9A0000A4BE360BB69002B03D13000BC6129B0A6
:10C9B000F0BD2361F9E7C046ACA20200D7B1020086
:10C9C0006374020055740200E7B10200CB760200E6
:10C9D000F0B500260400734BDDB0083303608160BE
:10C9E000C2608680867132006F4947A80AF00DFF49
:10C9F000230014330125042708931223009704957C
:10CA00000193089A330047A9039602961DA8FFF7E1
:10CA10007FFA3200654947A80AF0F7FE0820220095
:10CA20000097330015AF10320495019047A9039683
:10CA3000029632A8FFF76CFA32005D4938000AF01E
:10CA4000E4FE2300082004221C330993390033003C
:10CA50000495019000920396099A029647A8FFF761
:10CA600057FA3200534938000AF0CFFE5420FCF741
:10CA70007BFD0500200001231221042218300790BD
:10CA800004930191009239000200330028000396BC
:10CA90000296FFF73DFA2800474BA5620822EC6298
:10CAA0000AA930300A930B960DF085F9434B042206
:10CAB000AB63012329352B7009992661E66107983C
:10CAC0000DF079F90422079908980DF074F96621A0
:10CAD000032304AA8918CB77BA2104AA8918CB7733
:10CAE000872104AA49008918A26ACB77911CA685E0
:10CAF000CB771DAB0C9332AB0D930F9247AB32004B
:10CB00002F4910A80E930AF080FE3021452004AB77
:10CB10005B181B7812313B7004AB5B181B88113912
:10CB20007B8204ABC918C01810220DF044F904220E
:10CB30000CADA0683A75BD61BE830BF02DFD036896
:10CB400039001B689847822204AB9B181B8854321B
:10CB5000238404AB9B181B885432A38404AB9B181A
:10CB60001B88A06863840BF017FD07001420FCF7F6
:10CB7000FBFC0500134B066108221093119610A9C7
:10CB800010C00DF018F9104BEB60BB69B34206D131
:10CB9000BD612000FCF70EFB20005DB0F0BD2B61F5
:10CBA000F6E7C046B8A2020017B20200F7B10200D1
:10CBB00007B2020027B20200DD77020049770200C7
:10CBC00037B2020035CC010073770200F0B50400E3
:10CBD0000E00150085B01F000CAB1B8810300193B0
:10CBE00009F0B1FB268065801820FCF7BDFC02AE81
:10CBF000050033000AAA03CA03C32F6028000827D0
:10CC000000213A000C300DF0F2F83A003100281DF6
:10CC10000DF0D1F8064B02226B6120000023019930
:10CC2000A5600A43E360A2802362636205B0F0BDA1
:10CC30009D770200F0B50B898DB00593CB68060097
:10CC400004934B88828C9A420ED1049C049B059AD3
:10CC50009B181B1B032B3BDD62882188012308A83E
:10CC600009F07BFB0434F1E7428C9A4230D1049CFA
:10CC7000049B059A9B181B1B032B29DD2388282066
:10CC800006936388F7680793124B08930023099370
:10CC9000FCF76AFCC0236A460500029308AB03CB8D
:10CCA00003C233000699079A2800FFF78FFF3B68FD
:10CCB00029005B6838009847002807D0002D05D070
:10CCC000280009F05AFA2800FCF76EFC0434CFE77C
:10CCD0000DB0F0BD5B78020070B5040090B08068C4
:10CCE0000AF0B6FD022101401AD1A38D002B17D006
:10CCF0000C4B6A4604931023E568A18505910293C5
:10CD000004AB41CB41C20A00230006A8FFF75EFF37
:10CD10002B6806A99B682800984706A809F02DFAF9
:10CD200010B070BD5B780200002815D00060416033
:10CD30008260C360046145618661C76144460462E4
:10CD40004C464462544684625C46C4626446046352
:10CD50006E46466374468463002A06D0C46B043C66
:10CD6000043A25681560B442F9D18C6BA6464E6B27
:10CD7000B546002B06D0CC6B043C043B1D682560F7
:10CD8000B442F9D10C6BA446CC6AA3468C6AA24685
:10CD90004C6AA1460C6AA046CF698E694D690C6940
:10CDA000CB688A68086849687047006041608260A3
:10CDB000C360046145618661C761444604624C46B4
:10CDC0004462544684625C46C462644604636E46B0
:10CDD000466374468463C46B043C043925680D6063
:10CDE000B442F9D1C7698669456904697047006032
:10CDF00041608260C360046145618661C7614446E9
:10CE000004624C464462544684625C46C462644692
:10CE100004636C4644637446846304697047846B9E
:10CE2000A646446BA546046BA446C46AA346846A1E
:10CE3000A246446AA146046AA046C7698669456954
:10CE40000469C368826800684168704710B5041EB1
:10CE50000CD00DF00CF8431EE3189C4208D2227847
:10CE60001978013B21705A700134F6E7014810BD72
:10CE70000020FCE717FCFFFFF0B585B002900C1E08
:10CE80002AD00023C217161A56400193019B300086
:10CE90005D1C63190A215F1E039304F03FF84942A9
:10CEA0003031397030000A2103F052FF474206004A
:10CEB000002F0FD1029B002B04DA2D23019D039A32
:10CEC00002351370002320006355FFF7BFFF3800C1
:10CED00005B0F0BD0195D9E7004FF8E717FCFFFF5B
:10CEE00010B582604A4304004160002A0ADD074B06
:10CEF00090009A4201DD01204042FCF735FB2060A2
:10CF0000200010BD00230360FAE7C046FEFFFF1FAC
:10CF10004A688B6870B58360534304000D0042601B
:10CF2000002B12DD0A4A9E003000934201DD0120F1
:10CF30004042FCF719FB002320602A68D158C150F9
:10CF400004339E42FAD1200070BD00230360FAE74B
:10CF5000FEFFFF1F70B5002817D1114D2E68002E5F
:10CF600011D108300CF0F7FD066046600D4E04004C
:10CF70003368002B02D10BF046FD306023682C6033
:10CF80009B00F3586360286870BD0122064907487A
:10CF90000B681340F8D1026043600A60F4E7C046B2
:10CFA000E4270020F0270020E0270020E8270020C9
:10CFB000002370B504000160436099420AD1064D18
:10CFC0002B68002B02D10BF01EFD286023689B000C
:10CFD000EB586360200070BDF0270020436810B557
:10CFE0000400002B02D104480CF0B7FC6068036811
:10CFF0001B69984710BDC04647B20200436810B590
:10D000000400002B02D104480CF0A7FC6068036800
:10D010009B69984710BDC04647B20200436810B5EF
:10D020000400002B02D104480CF097FC60680368F0
:10D030005B6A984710BDC04647B20200004870477F
:10D04000FFFF0000F0B597B00593036807AD1B68BC
:10D050000491039311002B00060091C991C3002491
:10D06000D36821000C220CA8EB602C610CF0BFFEF1
:10D0700022000B4B10940F9311AB1C701919013443
:10D080004A70102CFAD15A820193059B2A00009312
:10D0900004990CAB3000039CA04717B0F0BDC0460C
:10D0A000BF86020070B5FC30046C0500002C0DD169
:10D0B00024200CF050FD064B44608361054B8460D6
:10D0C000C46004614461C46103602864286C70BD5D
:10D0D000A4A302008CA4020070B5FC30C56B040050
:10D0E000002D11D134200CF036FD084B85604360D3
:10D0F000074B45610361074B0562C361064BC5627F
:10D100008362064BE0630360E06B70BDD4A3020052
:10D11000C4A3020034A4020044A4020054A40200E8
:10D120007FB503791548002B22D0154E154C337866
:10D130002000002B1CD102AD28000BF09DFA002826
:10D1400010D16B88592B0DD12B78AA88D91F0129B2
:10D1500010D800920C4A2021200008F025F9012364
:10D16000337004E02022094920000CF087FE2000E3
:10D1700004B070BD0092064AEDE7C0466AB20200F4
:10D18000572B0020372B00208CB2020084B2020003
:10D19000A9B2020010B50400024B08C00BF04CFB12
:10D1A000200010BDC4A3020010B50400024B08C04B
:10D1B0000BF057FB200010BDD4A30200064B70B546
:10D1C000040003604068002804D005690CF0BFFC2F
:10D1D0002800F8E7200070BDB4A30200064B70B52C
:10D1E000040003604068002804D005690CF0AFFC1F
:10D1F0002800F8E7200070BDE4A30200064B70B5DC
:10D20000040003604068002804D005690CF09FFC0E
:10D210002800F8E7200070BDF4A30200064B70B5AB
:10D22000040003604068002804D005690CF08FFCFE
:10D230002800F8E7200070BD34A40200064B70B54A
:10D24000040003604068002804D005690CF07FFCEE
:10D250002800F8E7200070BD44A40200064B70B51A
:10D26000040003604068002804D005690CF06FFCDE
:10D270002800F8E7200070BDD8A20200064B70B568
:10D28000040003604068002804D005690CF05FFCCE
:10D290002800F8E7200070BDE8A20200064B70B538
:10D2A000040003604068002804D005690CF04FFCBE
:10D2B0002800F8E7200070BDF8A20200064B70B508
:10D2C000040003604068002804D005690CF03FFCAE
:10D2D0002800F8E7200070BD08A30200064B70B5D7
:10D2E000040003604068002804D005690CF02FFC9E
:10D2F0002800F8E7200070BDA4A3020070B5FC3040
:10D30000046C0500002C0DD124200CF024FC064BED
:10D3100044608361054B8460C46004614461C461FE
:10D3200003602864286C70BDA4A302008CA40200D2
:10D33000104B10B5083303600F4B0400C36080230B
:10D340000E4A5B00C250C018FDF75EFB20000C4B7C
:10D35000B830E360FFF7B2FF2000AC30FFF79EFF6C
:10D360002000A030FFF78AFF20006C30FFF776FF27
:10D37000200010BDB8A4020000A502006CA60200A7
:10D3800018A30200F8B505000400AC356B68AB606B
:10D39000A868002807D0C36821009847AB68002B15
:10D3A000F4D01B69F3E72500B0352868002804D0C5
:10D3B00006690CF0CCFB3000F8E72200FC21286065
:10D3C000583213780B40137023005C331870200020
:10D3D0000A300BF00FFB200034300BF00BFB606EBB
:10D3E000002804D005690CF0B2FB2800F8E72500FE
:10D3F000983560662868002804D006690CF0A7FB01
:10D400003000F8E72600A43628603568002D05D0E6
:10D410002F6928000CF09BFB3D00F7E720003560EA
:10D4200029000C226C300CF0E2FC2000074BE56771
:10D43000A36729000C2280300CF0D9FC2300044A99
:10D440008C33903428001A602560F8BDA386020052
:10D4500095860200444AF0B50600C260A022434B04
:10D4600016360833036001000023428204003200B4
:10D4700085B0037183600374838235311370013288
:10D480009142FBD1802580222000AD00D201F377AC
:10D490003584110000933830002300F039FF230059
:10D4A0002100403303931A002B0000255F311570D3
:10D4B00001328A42FBD1039AFC21D57722006032E7
:10D4C0001380137920000B401371230068331D7003
:10D4D000274B2567E3660C22002178300CF087FC8F
:10D4E0002300270088331D60224B0837FB678437F1
:10D4F00000210C2238000CF07AFC1F4B1F4AFB6005
:10D500002300A0333D611A601D4A5D60DA601D4A48
:10D510001D619A61DD6130000BF06CFA03980BF02D
:10D5200069FA194B601CE3602300C4331D705D7001
:10D530009D70FF3002F0FCFC8C235B00E550230063
:10D540001933FF335D618023104A5B00E2502300F2
:10D5500001222000FE3352425A86023B9D63DD6366
:10D560001D6405B0F0BDC04618A30200B8A40200B7
:10D57000D8A20200A386020095860200E8A202005B
:10D58000F8A2020008A3020000A502006CA6020097
:10D5900070B5074C2368002B07D1A02040000CF089
:10D5A000DAFA0500FFF756FF2560206870BDC04617
:10D5B000F427002070B50C220D00002104000CF0AF
:10D5C00016FC00232361024B25602000E36070BD40
:10D5D000B186020070B500250400254B85800360EC
:10D5E000244BC5608360244B85614361234B4562B6
:10D5F0000362234B0563C362224BC5638363290027
:10D600004430FFF7D7FF200029005830FFF7D2FF42
:10D61000200029006C30FFF7CDFF1B4B2200236058
:10D6200023008032F83320C29342FCD126001D0033
:10D63000E936FF3628000822002108350CF0D7FB18
:10D64000AE42F7D18E2300229B00E11804C6B142FE
:10D65000FCD18E2300219B00E2540C4B0C4AE318B2
:10D66000A218198002339A42FBD1200070BDC04637
:10D6700004A40200B4A30200C4A30200D4A30200C5
:10D68000E4A30200F4A302008CA502003A02000009
:10D690006202000010B5040002F0EAF9034B1B68B7
:10D6A000002B01D02000984710BDC046FC27002069
:10D6B000F0B58BB0050001F049FC0020FFF768FFD2
:10D6C000036807001B6998473B6804009B693800A2
:10D6D00098473B6806005B6A380098470300288833
:10D6E00010380B2862D803F09FFA063E6161615B37
:10D6F000616161676179AF88200039000BF095FBAB
:10D7000022006B7B583201931378A8799C46022340
:10D7100061460B43137004AB1F80012304AA93706E
:10D72000D07013006A461279E91D9A722B00062206
:10D73000163305A809930CF03EFB29000B2004AB1F
:10D7400006220E31C0180CF036FB94346368A360D7
:10D75000A06800282AD0C36804A99847A368002BB2
:10D76000F4D01B69F3E720002F49AF880BF05DFB75
:10D770002200022058321378A9798343137004AB36
:10D780001F809970A0346368A360A06800280DD042
:10D79000C36804A99847A368002BF4D01B69F3E77A
:10D7A0005B69A888A91D002B00D09847290030008C
:10D7B0000BF02BFC0BB0F0BD636E002BF6D0AF79F5
:10D7C000A366A06E0028F1D0C36839009847A36E05
:10D7D000002B01D1636EF3E71B69F1E70122694673
:10D7E0000D27AB7BEF571A4001925A07920FDB08C7
:10D7F0000A720B730622E91D04A80CF0DCFA6A46D3
:10D80000127904ABDA716A46127A9F711A726A460B
:10D81000127B20005A722B000F3307938C34803018
:10D82000236804A99847C1E7FFFF00000723D72812
:10D8300002D9024B1860002318007047F827002017
:10D84000014B18607047C046FC2700201FB580229E
:10D85000A323D205DB00D3580820DB0700D4053012
:10D860001C4B48221C4900F009FE00280AD080B257
:10D87000002807D1BFF34F8F184B194ADA60BFF366
:10D880004F8FFEE7002302A8029301330370154B6C
:10D890001B6843600BF03DF9002802D0072005B05B
:10D8A00000BD68460BF033F90028F7D169460BF04C
:10D8B0002CF90028F2D10C4800F010FE80B20028AC
:10D8C000EDD10A4800F014FE80B20028E7D100F044
:10D8D0006FFCE4E7178B02000028002000ED00E059
:10D8E0000400FA05F8270020B1D6010095D6010002
:10D8F00080B2002807D1BFF34F8F034B034ADA6091
:10D90000BFF34F8FFEE7704700ED00E00400FA051B
:10D91000024B0B60092313607047C046CEB2020071
:10D9200010B504000020FFF733FE03681B69984719
:10D930000300F3331C7086235B00C05003000021FA
:10D94000044AFC335A61044A99615A62F4300BF07C
:10D9500080FE10BDE78C0200F98C0200012110B599
:10D96000044A080000F018FD0023984200D00B3351
:10D97000180010BD21D90100F0B593B0019000202E
:10D980000C00FFF705FE03685B6A984700F082F918
:10D9900006AB00280ED000221A7105AA06920822B2
:10D9A00018001A730AAA9A6000F042FA002803D0FD
:10D9B00013B0F0BD18711873002727732771019BEE
:10D9C000BA331B78BB4242D907237B431A00019923
:10D9D000BB32CB18BB331B788A180292022B2ED194
:10D9E000002506AE337BAB4223D9AB000393089BE3
:10D9F000AA00995802980BF022FA00281CD0B368AC
:10DA00009C46AB001900237B614402939A0008688E
:10DA1000A368D050029B01332373337B5A1E954277
:10DA200005D00C481B1860469B001B580B6006ABCA
:10DA30001A730137FFB2C2E70135EDB2D1E723799E
:10DA4000216802989A00013350502371F1E70020B9
:10DA5000AEE7C046FFFFFF3FF0B50A7804009BB079
:10DA60000D000220012A08D04B88032A07D1A03BD1
:10DA700021499BB210008B4207D91BB0F0BD203B5F
:10DA80001E4A9BB203209342F7D81D4BAA8803205D
:10DA90009A42F2D80AAB009312AB02936A46002373
:10DAA000260013711373B8363378002B1DD104AFE1
:10DAB0001822002138000CF09AF92B7838003B70BE
:10DAC00033783B726B46FB606B883B82AB887B8212
:10DAD0000BF02DF802000320002ACED10123583488
