:020000021000EC
:10800000004000204D090200890902008B0902008E
:108010000000000000000000000000000000000060
:108020000000000000000000000000008D090200B8
:1080300000000000000000008F090200910902000A
:10804000930902000DAE0100F90502009309020038
:1080500093090200000000004D070200930902008E
:108060009309020061010200BD06020093090200AB
:108070009309020093090200930902009309020088
:108080009309020093090200930902009309020078
:108090009309020029F201000DFF0100930902007B
:1080A0009309020093090200000000000000000094
:1080B00000000000000000000000000000000000C0
:1080C00010B5064C2378002B07D1054B002B02D0AE
:1080D000044800E000BF0123237010BDB820002039
:1080E000000000002C760200044B10B5002B03D0DA
:1080F0000349044800E000BF10BDC0460000000076
:10810000BC2000202C760200164B002B00D1144B13
:108110009D46402292029A1A924600218B460F46B3
:108120001348144A121A0EF05FF90F4B002B00D0BF
:1081300098470E4B002B00D09847002000210400E8
:108140000D000D48002802D00C4800E000BF0AF0E6
:1081500059FB200029000DF0CDFE0AF03DFBC04682
:1081600000000800004000200000000000000000A7
:10817000B0200020AC28002000000000000000001B
:108180007FB5704C704D0023E15E0122280001F0A4
:10819000A9F90423E25E06000023E15E280001F055
:1081A000A1F9864237D1694A280013680133136068
:1081B0000023E15E0322FF2301F07EF9322000F06C
:1081C000CBFE0023E15E03220023280001F074F9B6
:1081D000322000F0C1FE0023E15E0222FF232800CE
:1081E00001F06AF9322000F0B7FE0023E15E0222BE
:1081F0000023280001F060F9322000F0ADFE0023DA
:10820000E15E01220023280001F056F9504A13686C
:10821000013B13607FBD0023E15E0022280001F0D6
:1082200061F90423E25E06000023E15E280001F00C
:1082300059F9864244D1454A280013680133136036
:108240000023E15E0322FF2301F036F9322000F023
:1082500083FE0023E15E03220023280001F02CF9B5
:10826000322000F079FE0023E15E0222FF23280085
:1082700001F022F9322000F06FFE0023E15E0222BD
:108280000023280001F018F9322000F065FE0023D9
:10829000E15E0122FF23280001F00EF9322000F0F8
:1082A0005BFE0023E15E01220023280001F004F9B7
:1082B000322000F051FE0023E15E00231A00A2E705
:1082C0000023E15E0322FF23280001F0F5F83220AD
:1082D00000F042FE0023E15E03220023280001F0AB
:1082E000EBF8322000F038FE0023E15E0222FF238B
:1082F000280001F0E1F8322000F02EFE0023E15EBC
:1083000002220023280001F0D7F8322000F024FEDA
:108310000023E15E0122FF23280001F0CDF8322086
:1083200000F01AFE0023E15E01220023280001F084
:10833000C3F8322000F010FE0023E15E0022FF238C
:10834000B3E7C046D420002044220020DC200020D7
:108350000420002010B50400034B036040300AF0F5
:1083600061FF200010BDC0469865020030B5114C79
:1083700085B021680423E25E0F4D04290DD100234E
:10838000280001F099F800210423E25E2160FF2318
:10839000280001F091F805B030BD09B20023280093
:1083A00001F08AF82368591C21600423E25E09B2B7
:1083B000EDE7C046D420002044220020F0B585B06F
:1083C0001F000AAB1B880600029115000393002FC3
:1083D0001BD028200DF0B9FF6B4604001989039BC0
:1083E000AAB200933B000AF0BCFE336821005B6830
:1083F00030009847002806D020000AF0C9FE20006F
:108400000DF09FFF024805B0F0BD0248FBE7C046F3
:1084100016FCFFFF17FCFFFFF7B5234901A800F08A
:10842000CDFF224C782201A9200002F049F901A8D1
:108430000AF0F8FE1E4901A800F0C0FF782201A949
:10844000200002F03DF901A80AF0ECFE194B01A84A
:1084500019680AF004FF782201A9200002F030F91F
:1084600001A80AF0DFFE144901A800F0A7FF782256
:1084700001A9200002F024F901A80AF0D3FE00248B
:10848000FF270E4D26B23B0000223100280001F0EC
:1084900013F801343B0001223100280001F00CF8F0
:1084A000052CEED1F7BDC04610700200D02100208F
:1084B00016700200042000201F70020044220020D9
:1084C000094B13B51B68094C09490A2B00D009490F
:1084D00001A800F073FF782201A9200002F0F0F853
:1084E00001A80AF09FFE13BDDC200020D02100204F
:1084F0002B7002003370020013B51C4800F040F9E5
:10850000FFF78AFF02210422194B1A4806C3FF23F2
:1085100000F0D2FF1024184B1B680A2B1FD0174BFA
:108520001B68002B1BDD16480BF026F9002806D02F
:108530000094144B032202211348FFF73FFF134816
:108540000BF01AF9002806D00094114B03220121E8
:108550000D48FFF733FF642000F0FEFCDBE7FFF778
:10856000AFFF00F071FD002016BDC046E0200020E6
:10857000D420002044220020DC2000200420002001
:10858000702200206D830100B021002048220020CD
:108590008181010010B5054C200000F039F8044A33
:1085A000044920000DF0C6FE10BDC046E0200020AA
:1085B00000200020B9850100CA23144A9B0010B591
:1085C000C2501C330400C0180AF02CFED0239B00BC
:1085D000E0180AF027FE20009130FF3001F006FB82
:1085E00020006930FF3001F001FB2000F03001F085
:1085F00083FE2000D03002F0F7F92000643007F04D
:10860000B5FC201DFFF7A6FE200010BD246A020065
:108610001423F0B5040093B00093192218210430FC
:1086200002F044FC2200250026006432B4351321F8
:1086300010001092B83607F0A5FC28000CF003F8E3
:1086400000221E2130000BF0A3FC2000D03002F0ED
:10865000EBF92200F03211920621464A119801F0FE
:108660006FFE20000027012369301A0000971121B6
:10867000FF3001F0C7FA2000913000970123022259
:108680001A21FF3001F0BEFA2000B9301A2301216F
:108690000222FF3002F086FA300001F0BFF8E42237
:1086A0005200A050300001F009FBE6235B00E050CF
:1086B0000100E42220005200D130119BA258009505
:1086C000FF3001F04DFD2000E13029001C22FF3079
:1086D00002F084FD192320000F93013B0E93013B10
:1086E0000D93013B0C93013B0B93013B0A93013B20
:1086F0000993013B0893013B0793013B0693013B20
:108700000593013B0493013B0393013B0293013B1F
:108710000193F930013B082200930721013BFF3010
:108720000BF057FCCA239B00E018290003F06CFDF6
:10873000D3239B00E0181D2102F004FBDD239B00E6
:10874000E7501098277003210DF004FB230022004E
:10875000200009499C33A0321C6011605760074A11
:1087600080305A610221012208F0A2F8200013B0E3
:10877000F0BDC046A06502002D2E0200172E02009B
:108780000123F0B506788FB004001E4000D082E0CF
:108790000300D0331800039300F0C0FA00F0E6F9AC
:1087A00028200DF0D2FD050010300AF0CCFD6C4BF6
:1087B00018202B600DF0C9FD07006A4B04600822E9
:1087C00031000C300C930D960DF00EFE0CA9381DE7
:1087D00008220DF0EDFD644BAF607B611223EE606B
:1087E000AB802E626E622900039802F091F8002897
:1087F00005D028000AF0CCFC28000DF0A2FD0123D2
:1088000022785A49134323702300B4331800059388
:108810000BF01FFF5649049005980BF01AFF002536
:108820000690642000F098FB2F002E00230069338F
:10883000FF33180007930AF09FFF00282DD1049BF7
:10884000002B33D1069B002B30D1DD2549494A4806
:10885000AD0000F061FC6359002B1CD100F09AF8C8
:1088600001000AA800F0AAFD0BA80AF052FBCA23D7
:108870009B00E018069B0BAA0AA90093039B03F038
:1088800019FD0BA80AF0CEFC0AA80AF0CBFCCC23F9
:108890009B00E35863510FB0F0BD20009130FF30D2
:1088A0000AF06AFF0028CAD0182EC8DC2000653004
:1088B00039B22AB2FF23FF30013700F0FDFDFFB2CD
:1088C000322000F049FB0136052F02D10027013587
:1088D000EDB2049B192E06D0002BA7D02349059892
:1088E00002F010FC01E0002BF8D104980DF029FDF6
:1088F00006980DF026FD1F491F4800F00DFCCA2305
:108900009B00E3180893DD239B00E3580993002B99
:108910001ED100F03FF801000AA800F04FFD0BA89F
:108920000AF0F7FA01230BAA0AA900930898039BFF
:1089300003F0C0FC0BA80AF075FC0AA80AF072FC50
:10894000CC239B00E3580993DD23099A9B00E25056
:108950002100079AF031089803F0A6FE66E7C046AA
:10896000FD0300009F2E02005F2E020072700200C5
:108970007D70020000200020001C0020BFF34F8FFC
:10898000024B034ADA60BFF34F8FFEE700ED00E0D1
:108990000400FA05F0B58DB005AF1922154938006D
:1089A0000DF006FD0022144B05245A718022520559
:1089B000566E012225000194029203930199300022
:1089C00008F068F90800029908F0DEF8019B0399A5
:1089D0006B430193029B361A6B430293631E2C1B5D
:1089E0006C433C19225C1C1ECA54E7D108000DB030
:1089F000F0BDC0468D700200DA270020F0B597B0B8
:108A000018220021060010A80DF0EEFC132110A87A
:108A10000DF0DFFA032110A80DF0AAFB4C4B1B68E8
:108A2000002B00D10133DBB202934A4A012300211B
:108A30000BA807F077FE484B9E4200D9002672B67D
:108A4000464B64211D68464B30000793052408F00F
:108A500025F960435030281808900A21300008F0AA
:108A60001DF90A2108F000FA614350316918099193
:108A700030000A2108F0F8F98023614300245031C6
:108A800069189B010A910193029B002B5DD0002580
:108A900000272E1F07AB9B190593032C03D18023BE
:108AA00000249B01019307AB5B592E4A039363009B
:108AB000D31804930023190006205843049A16186B
:108AC0007678B4466246039EB25C10269446049AB9
:108AD000105C62460641164202D0012098400143D4
:108AE0000133092BE8D1C9431F4B059A09011940ED
:108AF0001268039B934225D1312F23DC00210BA860
:108B00000DF0F7FBFA23159A1199DB00106801426A
:108B10001BD0013B002BF9D1019B01345B00019379
:108B2000FA230137E4B25B009F42B6D10435102D21
:108B3000AED1074B1B68002BA6D0029F013FFBB2B2
:108B40000293A1E7019B1943D9E7FFF717FFC0463E
:108B50005C240020F0FF0000E70300000820002054
:108B6000DC700200A6700200F01F0000F8B50023C0
:108B7000124C23600AF0EEF9002808D004212000EE
:108B80000AF0E4F9002801D00D4B2360F8BD012262
:108B9000A12704250B4B0C491A602268FF0048608E
:108BA0004E68002EFCD0DE591202013D3243002DEA
:108BB000F5D1226001225A60E8E7C046582400201F
:108BC000ED5EBC0B00D00040FCD000400B4B70B5FC
:108BD0001C68002C10D0656D00F0ACFBA36C002964
:108BE00001D1834206D820000AF0E7F904492000A9
:108BF0000AF0D1F92C00ECE770BDC04664240020D7
:108C000084240020F0B593B007932A4B04AC1E686F
:108C1000049005910692002E4AD0274B258867883C
:108C20001C6800230293002C2ED0636D234803930D
:108C3000A36C9AB2A36C1B0C99B2854214D1204844
:108C4000824211D1002B01D0B9420BD1029B002BE3
:108C500008D120000AF0B1F91A4920000AF09BF966
:108C600001230293039CDEE7002A01D09542F9D14B
:108C7000002B01D0B942F5D120000AF09EF911492C
:108C800020000AF088F9EDE70F4BEB18012B0FD904
:108C900010233A00009329000C4B08A80AF061FA4F
:108CA000336808A99B683000984708A80AF070FA52
:108CB00013B0F0BD6024002090240020FE030000CB
:108CC000FF0300008424002002FCFFFF058C01004C
:108CD00010B572B60B4B1C68002C08D020000AF0AF
:108CE0006CF90023E364084B2000E36310BD62B617
:108CF0005C200DF02AFB5C22002104000DF074FBC7
:108D0000EFE7C0468824002000400020024B18787E
:108D1000012318407047C046E0270020F7B5060041
:108D2000FFF7F4FF051E33D11A4C2660FFF7D0FF82
:108D3000194B1A4918600AF02EF9FFF7C9FF184BB2
:108D40001860184B4363184B8363206800280ED0CB
:108D5000C027164E2A00330015490097FFF72EFB57
:108D6000009733002A0013492068FFF727FB0C20E7
:108D70000DF0EBFA0023838083710F4B03600F4BE0
:108D8000836000F0EFFA01230D4A11780B43137052
:108D9000F7BDC046602400209424002084240020D5
:108DA0008C240020FC3F002081300200058C010053
:108DB000FF030000FE030000C0650200CD8B010030
:108DC000E0270020F7B506000D00170001930028EA
:108DD00002D100242000FEBD0029FAD0FFF778FF61
:108DE000041EF6D0074B019A436306604560876016
:108DF000054B002A00D0054BA363054920000AF06B
:108E0000CAF8E7E7FC3F00204B300200693002005F
:108E100084240020024B1868434258417047C046E2
:108E200084240020002310B504499C006258002AC5
:108E300001D00133F9E76050100010BD6C24002010
:108E4000002310B5044A99008C58844201D00133A4
:108E5000F9E70020885010BD6C24002010B50024D4
:108E6000084BA200D058002802D003685B689847DE
:108E70000134062CF4D1044B1B68002B00D120BF19
:108E800010BDC0466C24002084240020F8B5FFF7F4
:108E90003DFF00281CD02A4D2C68E36CDA0718D55A
:108EA00002273B43E364274B1E680423F26C300027
:108EB0001343F364636BF3630AF0A5F83000716C3D
:108EC00003F0E7FF2868C36C3B4201D004F01BF8B5
:108ED000F8BD1D4F1D4E3A683168002A1ED1296029
:108EE0002A68914208D11B0706D52C60FFF7B6FF10
:108EF0003B68002BFAD02B6029688C42E8D033689D
:108F0000994214D1124B4B63124B8B6320000AF031
:108F10007AF82968626C4B6C20000DE0206DB84235
:108F200003D1606D002800D002002A60D8E79C427F
:108F3000ECD1002210004B6C03F06AFFC8E7C0467A
:108F40009424002068240020842400208C24002005
:108F5000FC3F00208130020070B50500FFF7D6FE0F
:108F6000002803D128000DF0F7F870BD0C4B1C68E9
:108F7000E36CDB0706D5FFF7ABFE0A4B1860002851
:108F800000D0040000F0D6F92D18A56420000AF0E6
:108F900014F80549200009F0FEFFFFF777FFE4E72A
:108FA000942400206824002064240020F0B51E4B87
:108FB0001E4F1C683B6885B006000391002B30D023
:108FC000FFF7A4FE00282CD0E36CDB070ED5FFF7DB
:108FD0007FFE174B051E186008D009F0EEFF1549FB
:108FE000280009F0D8FF2C00FFF750FF039B20005A
:108FF0001B043343A36409F0E0FF20000E4909F08D
:10900000CAFF0E4B0024F318012B07D9C02300938D
:10901000039A0B4B31003868FFF7D0F9200005B0F8
:10902000F0BD084CFAE7C0469424002060240020DC
:1090300068240020842400209024002002FCFFFFEC
:10904000058C010016FCFFFF10B5FFF75FFE00283E
:1090500009D0054C206809F0B0FF0449206809F0E8
:109060009AFFFFF713FF10BD9424002088240020EE
:10907000F7B507000D0000282ED0FFF747FE0028A7
:109080002CD00724164E3068C36C1C4007D0154AFC
:109090002900380009F0A8FF00242000FEBD03F0DD
:1090A0001AFF02213268D36C1940019103D00321C9
:1090B0008B43D364F1E701242343D3642800B847EA
:1090C0003268D36C1900A143D164019C5B07E4D5DD
:1090D000280009F0C1FFE0E7034CDEE7034CDCE7C2
:1090E000942400205930020017FCFFFF16FCFFFFFC
:1090F000020010B5014B12CB12C210BD9824002003
:10910000034B1A68034B1A607E225A607047C046B0
:10911000082000209824002070B5114E3278022AD1
:109120001AD081421AD90C1A072C17D90D00032323
:1091300005432B4012D172B60A4DD2005051AA18E5
:1091400051608022A4081206144304603278013270
:10915000327062B6180070BD0348FCE70348FAE7B6
:10916000E2270020A024002013FCFFFF17FCFFFFD4
:1091700070B5134C06002378124D002B0CD1124908
:1091800012482B70FFF7C8FF114B984202D11E20E6
:10919000FFF734FC0123237000242B78A34209DD60
:1091A0000C49E300C918300009F070FF002805D110
:1091B0000134F2E71420FFF721FC002070BDC04607
:1091C000E1270020E227002000380020B0280020FE
:1091D00017FCFFFFA024002070B5002819D0104B09
:1091E00010491C7800239C4216DDDA005558854250
:1091F00010D28A18526882420CD9041F2368002BAF
:1092000002DC1E20FFF7FAFB802322681B061343B3
:10921000236070BD0133E6E71E20FFF7EFFBF8E7A0
:10922000E2270020A024002070B5051E14DD0B4E9F
:109230000B4C3368002B02D020680CF008FEFA219A
:1092400020680024074B89008361C462694335604C
:109250000CF005FE200070BD0348FCE7B0240020A0
:10926000E02400201193010017FCFFFFF8B5114F17
:1092700006003D68002D0AD130200DF066F804008C
:1092800006F0A4FE0C4BA5612360E5623C600B4D2B
:109290002B68002B09D110200DF057F804000CF0BA
:1092A0009FFD20002C600CF075FD3000FFF7BCFF27
:1092B000F8BDC046E0240020C06D0200DC24002080
:1092C000014B18687047C046B024002070B50D4CA3
:1092D0002368002B03D00C4B1B68002B02D1062007
:1092E000FFF7C4FF20680CF06CFD02000749C317AC
:1092F0000D684E685219734120680A604B600CF08B
:1093000066FD70BDDC240020E0240020B020002099
:1093100010B5FFF7DBFF0024054BA200D058002852
:1093200002D003681B68984701340A2CF4D110BDA1
:10933000B424002010B5FFF7C9FFFA22034B9200B6
:1093400018685968002307F0CFFD10BDB020002039
:1093500010B5FFF7BBFF024B1868596810BDC04637
:10936000B02000200B4B10B51B680400002B03D06D
:10937000094B1B68002B02D10620FFF777FF002363
:10938000064A99008858002801D00133F9E78C502B
:1093900010BDC046DC240020E0240020B4240020BE
:1093A000002310B5044A99008C58844201D001333F
:1093B000F9E70020885010BDB424002010B5040047
:1093C000002902D00B78002B03D1034B236020002F
:1093D00010BD09F02EFFFAE7D0650200F8B50400D1
:1093E0000E00150000290AD00B78002B07D0002AA8
:1093F00005D0080097B20DF037F8874203D90B4B20
:1094000023602000F8BD681DFFF7B2FE20600AF05F
:10941000B4F823682A005F8023683100181D0CF01F
:10942000C7FF23685D1900232B71EAE7D0650200AE
:10943000014B03607047C046D065020010B5054877
:10944000054C20600AF09CF8044A054920000CF005
:1094500071FF10BDD0650200E42400200020002030
:1094600025320200084B73B51C680500002C0AD099
:10947000010026680831082268460CF099FF0CCDDF
:1094800031682000884773BDE8240020014B036049
:109490007047C046D865020010B50400002903D10A
:1094A000044B0360200010BD016008000AF068F85A
:1094B000F8E7C046D865020030B500684488A1428C
:1094C0000CDA8588AA4209DA002907DB002A05DBC5
:1094D0005443401800198371002030BD0048FCE758
:1094E00017FCFFFF10B50368588881420BDA9C888F
:1094F000A24208DA002906DB002A04DB50435B188D
:109500001B18987910BD0148FCE7C04617FCFFFF07
:10951000F0B5070085B00E001D00002921DD002AEE
:109520001FDD002B1DD00468638803938B4200DD90
:109530000391A3880293934200DD02920023063434
:109540000193019B029A93420EDA29002000039AAC
:109550000CF02EFF3B68AD195B88E418019B0133CA
:10956000EEE7024805B0F0BD0020FBE717FCFFFF67
:10957000F8B504000D0016001F00002901DB002AC9
:1095800002DA0E4B2360F8BD100048430630FFF7A7
:10959000EFFD206009F0F1FF23685D8023689E8065
:1095A000002F06D03B00320029002000FFF7B0FF5B
:1095B000E9E7200009F018FFE5E7C046D86502009A
:1095C000F7B506000D1E03D1244B03603000FEBD2D
:1095D00000200F000400010001903B78002B1AD0FE
:1095E0003022524294469C446246092A11D90A2BE1
:1095F0000AD1019B241801330193A14200DA210012
:10960000002004000137E8E70028FBD001340020E7
:10961000F8E70120F6E76A460127928809B212B2FC
:1096200030007F42FFF7A4FF39000A2033689A1DFB
:109630002C78002CCAD02300303B092B08D8FB43E0
:10964000DB173B4043431B19303B1F000135EFE75D
:10965000002FFBDB177001320F00F7E7D86502001F
:10966000F0B5040089B006A80E0002921D00FFF7B5
:109670003FFD236802995A88914235DA9B889D42C2
:1096800032DA1F2E30D9079B01939E422CDC052332
:10969000002273430393069B0493039B04999B1836
:1096A000A03BCB5C00210593AE18029BCF1823682A
:1096B0005888019087420EDA9888B0420BDDDB199A
:1096C00010270F41019870431B1805980740781E1A
:1096D00087417F429F7101310529E6D10132052A78
:1096E000DBD1002009B0F0BD0048FBE717FCFFFF0D
:1096F000F7B50468070063880E1E01931EDD9942CA
:1097000018DA0023063400933B68009A9B889A423B
:1097100012DA019BA1199D1B2A0020000CF048FEC3
:109720006019310009F043FE3B685B88E418009B38
:109730000133E8E709F058FE002000E00048FEBDD4
:1097400017FCFFFF10B50548054C206009F018FF15
:10975000044A054920000CF0EDFD10BDD86502005B
:10976000EC24002000200020A133020010B5054C9D
:109770000121200009F0F8FE034A044920000CF002
:10978000D9FD10BDF0240020002000202535020066
:109790000388074A10B50120934208D0834202D0C3
:1097A0000020DB0703D41E20FFF728F9002010BD9E
:1097B000FFFF00000048704716FCFFFF10B5322085
:1097C000FFF71CF9004810BD16FCFFFF10B5124C46
:1097D00000230834828004604162022414220100C4
:1097E0008371847203638386028136310A78C36091
:1097F000A243F1342240036143618361C361036288
:109800000A70020040321370021DD3870133438770
:109810008387C38710BDC046F8650200F0B5544F7A
:1098200097B03B6806000593002B00D08BE006AC98
:109830000B331C222121200001F0ECF90EAD0B238B
:109840001D2222210AA801F0E5F90B231B22232166
:10985000280001F0DFF908200CF077FD0122059BBC
:10986000110004900BF020FA3A2130000AF076FF44
:1098700000281DD0A38812ADAB80A3795C20AB710A
:109880003C4B1293A3681493237B2B73637B6B7302
:10989000A37BAB730CF059FD042301933633009383
:1098A0002A00049B3100040001F09CFF3C604AE068
:1098B000322130000AF080FF00281CD0A38812ADAE
:1098C000AB80A3795C20AB712A4B1293A3681493ED
:1098D000237B2B73637B6B73A37BAB730CF035FD26
:1098E000042301932E3300932A00049B31000400CB
:1098F00002F016F9DAE73C2130000AF018FF0028E0
:109900002CD0AB8812ACA380AB79A420A371194BE7
:109910001293AB6814932B7B23736B7B6373AB7BCA
:10992000A3730CF012FD052305000293013B019384
:10993000383300932200049B310001F071FE0E4B7E
:109940003D6044351D600C4B094C1868002802D05E
:10995000216809F07FFF206817B0F0BD44200CF0AB
:10996000F4FC042204990400FFF730FF9EE7C04690
:10997000F4240020E8650200F8240020F0B56149D5
:10998000C56885B08D4254DA0300022236331B7855
:10999000134059D104698C4264DA020036321278DD
:1099A000520768D4426901920200019E40328E4201
:1099B0006FDA010036310978090774D4002B7DD1A4
:1099C00013780293002B16D006000127011DCB8FC0
:1099D000363601339BB2CB8703963678BC46374088
:1099E00000D188E01D2B06D963469E43039B1E7061
:1099F0000023CB87137009F00DFE434A07239042E2
:109A000076D94249043B8D4272DBC8220133920071
:109A100095426DDC023B8C426ADB013B944267DC81
:109A200001980433884263DB0133904260DC0023F9
:109A30005EE0C822002352009542ABDD03003633BE
:109A40001A7800239207A5D4012306001F0036369A
:109A500032785408A7433C0002279C40BA43224373
:109A6000327097E7C822520094429BDD02003632E2
:109A70001278520796D406000122363633789F08B2
:109A8000BA439700042293431A003A4332700123E9
:109A900088E7C821019E49008E428FDD01003631E2
:109AA000097809078AD40100012636310B78DF08CE
:109AB000BE430827F600BB4333430B701378032BD8
:109AC00000D97DE70133DBB21370012B03D10021F4
:109AD000031DD98774E7042B00D071E702003632EA
:109AE0001178033B0B43137000230430C3870B33FF
:109AF000180005B0F0BD092B00D87CE7029BCF878A
:109B0000013B77E770FEFFFFFF700200E0FCFFFF04
:109B100070B5C369C1681A68451D8AB00400EB7F3F
:109B2000114255D0002B58D1EB7F082B0DD90122C3
:109B3000A379134209D11343A371A188130006A886
:109B400009F00BFCFFF7F6FB2062EB7F012B23D81B
:109B50000123A2791A421FD00025A188A5710222F3
:109B600002A809F0FAFBA31DDE7F012E14D1FFF736
:109B7000E1FB2B00226A801A994100900191019B20
:109B8000A188AB4203D1174B009A9A4227D90123EF
:109B9000042206A809F0E1FB0322A3791340012B5C
:109BA00014D1FFF7C7FB0023226A801A994199421A
:109BB00002D10D4B984209D90223A279A1881343FF
:109BC000A3710522012306A809F0C7FB0AB070BDE6
:109BD0000B2BA9D80133EB77A6E7013BFBE733005A
:109BE0000322D6E7E7030000DB05000010B5040000
:109BF000034B08330360FFF7D3FB200010BDC046C2
:109C00002C660200F0B5070000250E0085B0029317
:109C10000AAB1B7808370393104B0400083303602A
:109C20000192858085712900182238000CF0DCFB38
:109C3000039A310038000CF0D1F96B466A469B88D4
:109C4000127AA380A31DE671DA77631D25622000D6
:109C5000DD77FFF787FB200005B0F0BD2C66020022
:109C60000048704716FCFFFF10B53320FEF7C6FE14
:109C7000004810BD16FCFFFF002310B504008380D0
:109C800083710D482164083020608020C000A061ED
:109C9000E0612062E3602000236163616362A3628C
:109CA000E36223636363A363E3636364110009F006
:109CB000A9FD200010BDC04644660200F0B5534F18
:109CC00097B03B6806000593002B00D08BE00B3368
:109CD0001C22212106A80AAC00F09CFF0EAD0B232C
:109CE0001D222221200000F095FF0B231B2223219F
:109CF000280000F08FFF08200CF027FB0122059BB5
:109D0000110004900AF0D0FF1D2130000AF03DFD43
:109D100000281DD0A38812ADAB80A3796020AB7161
:109D20003B4B1293A3681493237B2B73637B6B735E
:109D3000A37BAB730CF009FB05230193183300934D
:109D40002A00049B3100040001F020FE3C604AE040
:109D50003C2130000AF047FD00281CD0A38812AD3A
:109D6000AB80A3796020AB71294B1293A368149345
:109D7000237B2B73637B6B73A37BAB730CF0E5FAD4
:109D800005230193373300932A00049B310004001C
:109D900001F068FFDAE73C2130000AF0C8FC002837
:109DA0002AD0AB8812ACA380AB79A420A371184B46
:109DB0001293AB6814932B7B23736B7B6373AB7B26
:109DC000A3730CF0C2FA052305000293013B019333
:109DD000383300932200049B310001F021FC0D4B2D
:109DE0001D6044353D600B4B084A1B681068002B12
:109DF00000D0436417B0F0BD48200CF0A6FA05224D
:109E000004990400FFF738FFA0E7C046F8240020BB
:109E1000E8650200F424002082B0F0B50400EDB043
:109E20006420739372920CF097F9052210A8110028
:109E300009F0E3FA974911A8FFF7C2FB002221AB12
:109E40006CA91A605A609A600C339942F9D11922B0
:109E5000002113A80CF0C8FAA0680AF092F80026B6
:109E60000B90FF21A06800F0B9FC8B4FA06800F0B8
:109E70005FFB07960996884B9F4203D0874B9F4212
:109E800000DBFDE0A0680AF07EF8A56884491AA806
:109E9000FFF794FA78221AA9280000F0E7FB1AA825
:109EA00009F0C0F900267C4F0322099B606801334A
:109EB0001A40099209F046FC0500606809F049FC67
:109EC0000022784B05929D4210DB013205922A0058
:109ED000C8320BDBAA22042192000591954205DCD1
:109EE00002220592C82D01DD013205920022069260
:109EF000984210DB012306930300C8330BDBAA232F
:109F000004329B000692984205DC02230693C8287F
:109F100001DD0133069310A809F066FA002513ABA2
:109F2000EB5C012B08D160496B00CA185278C95C00
:109F300010A8FF23FFF7C0FA0135192DEFD16B46AA
:109F400018229A5E6B4610A81421595E099BFFF7F0
:109F5000B3FA002F01DB0F2E07D90023A06800936E
:109F600074301A0010A909F055FA01230893089BD0
:109F700005995A004C4B9B189A1E12788A4226D19A
:109F8000013B1B78069A934221D1089A6CAB9B182F
:109F9000663BFF3B0A931B78012B18D00C23079AD2
:109FA000216853431D0000220CA809F055FC21AA8A
:109FB0002B0094460CAA634423CA23C301220A9BA4
:109FC00001361A70079BF6B20133DBB20793089B88
:109FD000013308931A2BCAD164200CF0BDF8079BFB
:109FE000643F3FB2182B00D845E71A0021A91AA8F0
:109FF00009F040FE6A461DAB23CB23C21B681360E9
:10A000001A991B9A1C9B206809F00EFCE568002D2C
:10A010000CD0264912A8FFF7D1F91C231AAA12A9BD
:10A0200028000AF04FFB12A809F0FCF8A06809F01C
:10A03000AAFF11A912A8A56809F0BFF900221C4BBC
:10A04000009212A901932800130000F0B3FA12A89D
:10A0500009F0A6F9FA2080000CF07EF8A06809F05B
:10A0600092FF0B99A06800F0B9FB11A809F098F9CC
:10A0700010A809F095F96DB0F0BC08BC02B0184703
:10A08000002F02D00F2E00D00EE7A06800F050FA8B
:10A090000AE7C046BC7202008C3C0000D18AFFFF78
:10A0A0000173020058FDFFFF2173020016730200C6
:10A0B000DC050000F0B587B001930EAB1B880600ED
:10A0C00003930D9B0D000093019B02920C9F002BAC
:10A0D0003DD0002F02D1009BDB0738D528200CF0A3
:10A0E00034F90400103009F02EF96B461B89182052
:10A0F000258063800CF029F90500009B0822059358
:10A10000019B002103600C3004970CF06DF90822CC
:10A1100004A9281D0CF04CF90E4B02226B610023A0
:10A120000399E3602362636233680A43A560A280F7
:10A130005B68210030009847002806D0200009F015
:10A1400027F820000CF0FDF8034807B0F0BD0348E5
:10A15000FBE7C0469938020016FCFFFF17FCFFFF23
:10A1600070B58CB08360109B01604260C3600400D6
:10A17000184918000AF06DFA051E14D001001C22BF
:10A18000103105A80CF014F96A4608AB43CB43C262
:10A190001B68136020680599069A079B09F044FB29
:10A1A00028000CF0CEF80C4B186800280ED00B4A93
:10A1B00005AB059200220692C03202926A4622CB7B
:10A1C00022C2230003220521FFF774FF20000CB0F8
:10A1D00070BDC04616730200E8240020199E0100DD
:10A1E000F0B5040085B0637A9C46002B04D12000B2
:10A1F00009F05EFD05B0F0BDA37A266F0193102330
:10A20000019AF35600259B1801229A402900F36811
:10A2100003920293029BAB4231DDB368019A6B4318
:10A220009B1872695B00E77AD3181A785878E3793B
:10A23000012F14D15F1E3F1A10003A005B00434308
:10A24000606F8218D3189B79634500DD6346627B9B
:10A250001A4202D00123AB4019430135DAE7022F3D
:10A2600005D15F1EBA1A277A013F381AE6E7032F95
:10A27000E4D1277A013FBF1A02003800DEE711233C
:10A28000C943F356606C994023691940039B1943F5
:10A290000CF02FF8A27B072AACD8637B0C495B003B
:10A2A0006373531CDBB290004158A373022A03D896
:10A2B00008000BF046FF96E7064B200023630023BF
:10A2C0006363054BE462236414300BF0C8FD91E72F
:10A2D00070660200E1A101009B3C020010B5040081
:10A2E000044B03600BF0B3FD200005F085FE200059
:10A2F00010BDC046C06D020010B504000E4B0833FF
:10A300000360FFF74DF82000743009F049F8200091
:10A31000603009F045F82000583008F083FF200035
:10A32000503008F07FFF2000044B14306361FFF7CA
:10A33000D5FF200010BDC04690660200F46D0200FB
:10A34000F8B500250400324B858008330360857121
:10A35000143016000F0005F039FE20002D4BE56289
:10A36000636125645030FFF763F820005830FFF731
:10A370005FF820006030FFF789F820000423F25EC8
:10A3800033682667590009B2743009F036F833682B
:10A39000226FE37173680126237210236581A78001
:10A3A0002561D35691685918994204DD30009840D0
:10A3B00001330543F8E711230120D356D16859181A
:10A3C000994206DD02009A40266901333243226138
:10A3D000F6E714200BF0B9FF226900212A4301237C
:10A3E000060006F09FF9FF23220063720133A38168
:10A3F000002348326664A37320001370A366FEF73F
:10A40000B1FF0123A27920001343A371F8BDC04618
:10A4100090660200F46D0200F0B5437A85B0040046
:10A42000002B04D1200009F043FC05B0F0BD01224F
:10A43000837A11009C461023066F0025F356039281
:10A440006344994002912900F3680193019BAB4258
:10A450002CDDB36872696B4363445B00E77AD31801
:10A460001A785878E379012F10D15F1E3F1A100037
:10A470003A005B004343606F8218D3189B79002B2E
:10A4800002D0039BAB4019430135DFE7022F05D112
:10A490005F1EBA1A277A013F381AEAE7032FE8D17C
:10A4A000277A013FBF1A02003800E2E71123C943AF
:10A4B000F356606C994023691940029B19430BF0D5
:10A4C00018FF667AB31EDBB2FC2B14D8FEF7F8FE39
:10A4D0000B4B0500236300230A4863630A4BFF21EB
:10A4E000E4622364704306F0D9FB29004143200055
:10A4F00014300BF0B4FC637A012B00D995E791E797
:10A50000B13C0200B60300009B3C02001FB50123D2
:10A5100081881A00684608F020FF012303491A00C9
:10A52000684608F01AFF05B000BDC046FE030000F3
:10A530001FB5030048331A780400002A0DD000220A
:10A540001A70012381881A00684608F006FF01236B
:10A5500004491A00684608F000FF2000743008F033
:10A5600043FF1FBDFF03000010B548300378002BE8
:10A5700006D00378012B03D00121024808F05CFDCE
:10A5800010BDC046FF03000010B5012104000620E5
:10A5900008F052FD064B984208D148342378002B2E
:10A5A00004D02378012B01D020BFF7E710BDC046AF
:10A5B00016FCFFFF73B5079C0500002C1CDB060092
:10A5C00048363078002802D03078012816D1069815
:10A5D0001BB2C0B20090280012B2743008F01AFF0B
:10A5E000002C07D02B004A331C80002407234C3555
:10A5F0002C803370200076BD014CFBE7014CF9E75D
:10A6000017FCFFFF12FCFFFFF0B587B00D9C0600A2
:10A610000F0002920393002C20DBFFF7A5FF33000D
:10A6200048331D78EDB2002D1AD1390005A808F085
:10A63000C4FE0C9B01940093029A039B05A9300071
:10A64000FFF7B8FF05A808F0ABFE002C03D03000E0
:10A65000FFF79AFF2C00200007B0F0BD014CFAE78D
:10A66000014CF8E717FCFFFF11FCFFFFF8B50400F1
:10A67000171E1DDD060048363378002B02D03378D4
:10A68000012B17D12200E3795632013B13702300CE
:10A690000025200054331D80503008F022FE230096
:10A6A0004A331F80022328004C3425803370F8BDC4
:10A6B0000148FCE70148FAE717FCFFFF12FCFFFF27
:10A6C000F7B505000F00161E18DDFFF74DFF2B0034
:10A6D00048331C78E4B2002C12D1390001A808F0EC
:10A6E000F8FD320001A92800FFF7C0FF01A808F01B
:10A6F00099FD2800FFF748FF2000FEBD0148FCE758
:10A700000148FAE717FCFFFF11FCFFFFF8B5040052
:10A71000171E2DDD060048363278002A02D0327826
:10A72000012A27D15D42069BFF331FD16B1D2200FA
:10A730001BB2643213802300200066331D7060302A
:10A7400008F043FE230000226C331A70954200D0BB
:10A750003D0023004A331D80079B00205A1E934171
:10A76000013F4C34053327803370F8BD069BDEE78C
:10A770000148FAE70148F8E717FCFFFF12FCFFFF6A
:10A78000F0B587B005000F00161E03931EDDFFF71E
:10A79000EBFE2B0048331C78E4B2002C18D13900B2
:10A7A00005A808F00AFE0D9B320001930C9B05A939
:10A7B00000932800039BFFF7A9FF05A808F0F0FD10
:10A7C0002800FFF7E1FE200007B0F0BD0148FBE7DD
:10A7D0000148F9E717FCFFFF11FCFFFFFF2902D832
:10A7E0004172002070470148FCE7C04617FCFFFF9C
:10A7F00013B5040004A80078009020000BF055FB6E
:10A80000002801D1207516BD0048FCE70EFCFFFFB3
:10A8100013B5040004A80078009020000BF02DFB75
:10A82000002801D1207516BD0048FCE70EFCFFFF93
:10A830007FB50D0011000F226A4404001E1E117026
:10A8400016D0089B002B13DD012329000093FFF78E
:10A85000DFFF002802D0074804B070BD0090089BBD
:10A86000320029002000FFF7C3FF0028F4D0F2E7F0
:10A870000148F1E70EFCFFFF17FCFFFFF7B50700EB
:10A880000D1E3FD00023022604690193002C35D011
:10A89000AA88A3885340334204D1324204D1AB8802
:10A8A000334226D0646AF1E7A968A0680AF0E1F9AA
:10A8B0000028F4D02B88002B02D022889A42F1D1B4
:10A8C0006B88002B02D062889A42EBD1EB68E26879
:10A8D000934201D0002BE5D17B68002B01D02000F2
:10A8E0009847A288084B1343A380019B013301932F
:10A8F000D8E7A368AA689342D4D1DBE7019B200084
:10A90000002B00DC0148FEBD0080FFFF17FCFFFFAD
:10A91000F0B5060085B00D1E5DD001270469002C3E
:10A9200026D00221AA8800230A4202D0A3885B080D
:10A930003B40226829688A4214D1A068A968002B8C
:10A940000ED00AF096F900280CD0EB68E26893422A
:10A9500008D1A3881AB2002A06DB204805B0F0BD52
:10A960008842F2D0646ADAE75B045B0CA380F4E708
:10A9700030692A88002807D13561012318496846C3
:10A9800008F0EBFC0020E9E7010003001C8894427A
:10A9900006D25C6A1900002C0DD02300F6E72300D4
:10A9A0001C88944207D15F886C88A74203D85C6AF0
:10A9B0001900002CF3D1884209D10B889A4204D3A4
:10A9C00005D148886B88984201D96962D4E74B6AFF
:10A9D0006B624D62D1E70348C0E7C04616FCFFFF3B
:10A9E000FD03000017FCFFFF064B10B51A00040022
:10A9F00008322C33026083600830FEF721FA200011
:10AA000010BDC046A866020008B4024B9C46083838
:10AA100008BC6047E9A9010008B4024B9C4608380D
:10AA200008BC6047F94002000C4A002311002C3298
:10AA3000083110B543608381837382600361436191
:10AA40008361C383016004000830FEF7EBF9044B17
:10AA50001A68002A00D11C60200010BDA866020000
:10AA6000E8240020F7B50E00012504690192002CAE
:10AA700036D0238832889A4201D0002B23D16388B4
:10AA800072889A4201D0002B1DD1FEF73FF90123B5
:10AA9000002806D0C022A3881340C03B5A4253412D
:10AAA000DBB2019A934219D1A7883BB2002B15DB88
:10AAB00010223100A0180BF07BFC40231F4204D071
:10AAC000200009F022FB646AD1E7FEF71FF9002895
:10AAD000F6D021000348FEF7CBFAF4E70025F2E7B1
:10AAE0002800FEBD0B41020008B4024B9C4608380A
:10AAF00008BC604793420200F0B587B001930EABEB
:10AB00001B88060003930D9B0D000093019B02928E
:10AB10000C9F002B3DD0002F02D1009BDB0738D5C6
:10AB200028200BF012FC0400103008F00CFC6B46DF
:10AB30001B891820258063800BF007FC0500009B13
:10AB400008220593019B002103600C3004970BF051
:10AB50004BFC082204A9281D0BF02AFC0E4B0222F4
:10AB60006B6100230399E3602362636233680A43E5
:10AB7000A560A2805B68210030009847002806D0BD
:10AB8000200008F005FB20000BF0DBFB034807B0BA
:10AB9000F0BD0348FBE7C046CD42020016FCFFFFB4
:10ABA00017FCFFFFF0B50400160000258380164A4D
:10ABB000164B85710260218146810573186889B042
:10ABC0008C46A8421DD0124A05950492C0220292DA
:10ABD0006A4604AB82CB82C223002A006146FFF79B
:10ABE0008BFFC022094B0A49186802926A460691F7
:10ABF00006AB079582CB82C223002A003100FFF703
:10AC00007BFF200009B0F0BDEC660200E8240020C4
:10AC1000F743020030B5002403730123034D847110
:10AC20000560818082734373846030BDE8650200F3
:10AC300070B583790400DB0702D580680BF081FBD7
:10AC4000A3799B0702D5A0680BF07BFBA3795B0778
:10AC500007D5A0230021144ADB00D150A0680BF0D7
:10AC600070FBA3791B0708D5A568002D05D0280027
:10AC70000AF070F828000BF064FBA379DB0605D519
:10AC8000A068002802D00368DB6898476023A27997
:10AC90001A4205D0A068002802D003685B68984774
:10ACA0000023A360A37170BD00700040F7B50126BA
:10ACB000037B040033422AD0612385791D4017D1DC
:10ACC000FFF7B6FF18200BF040FB0E230700E356FA
:10ACD00018220093637B290001930BF085FB019AF6
:10ACE000009938000BF07AF9A379A7603343A37178
:10ACF0006023A279A0681A4202D00BF024F8FEBDAE
:10AD0000436940681B681840431E9841F7E70148B3
:10AD1000F5E7C04616FCFFFF10B5012483794173A7
:10AD20001C4004D080680BF023FA002010BD602284
:10AD3000134203D080680BF00DF8F6E70048F5E702
:10AD400016FCFFFF70B5040000250C4B0E00083305
:10AD50008580857103602100183009F0FDFB20001B
:10AD60002100203009F01BFC054BA680E5802572F0
:10AD7000E5602561656120001C6070BDFC66020015
:10AD8000FC2400208379DB0702D5C16000207047D6
:10AD90000048FCE716FCFFFF8379DB0701D5C0689C
:10ADA00070470148FCE7C04616FCFFFF70B54569D7
:10ADB0000400002D22D0037A032B21D8FFF7ECFFEB
:10ADC000A8622C200BF0C1FA2C22002105000BF008
:10ADD0000BFB002263695A622369934208D16369BD
:10ADE00023610020237A65610133237270BD130053
:10ADF0005A6A002AFBD162695A62F2E70148F5E714
:10AE00000148F3E717FCFFFF13FCFFFF144B70B57D
:10AE10005A68144C002A03D000225A600132A26002
:10AE20001A69002A17D0002119618023DB000E4D1A
:10AE3000E3582868012B0FD1A923DB00E1584942D0
:10AE4000FFF7A0FF2868FFF7B1FF2B685A69074B8F
:10AE5000E2500123A36070BDFFF794FFF9E7C046FD
:10AE6000FC10004000100040FC24002004050000FD
:10AE700003000069002809D00221054AD167426A0F
:10AE80001A611A7A013A1A72024B19607047C04669
:10AE900004E100E000E100E010B5002903DB024B13
:10AEA00019600BF052F810BD0025002070B50400A9
:10AEB0001E0004AB1D7805F0D1F820000E4B403089
:10AEC0002360FEF7B5FA230001364C33013522002A
:10AED0001E701D730023E1214E32A364636513804D
:10AEE00053809381D381013B200063644902FFF7C3
:10AEF000D3FF200070BDC04698650200F7B58027DB
:10AF00007F053D697C690822113C6C4306002100E5
:10AF100068460BF04DFA104B009A9A4219D00093F4
:10AF200000230193796930001339694309F04CFB20
:10AF3000019A0099300009F05FFB2100300009F010
:10AF400043FB7969AB08133969432200300009F0EB
:10AF500045FB0198FEBDC046FECA0000F0B50D00DD
:10AF6000A9B00D9200213022060010A80B930BF01F
:10AF70003BFA28000BF078FA431C0C93102B00D9F5
:10AF8000B5E00B9B202B00D9B1E02900300009F07F
:10AF900060FB071E50D129000C9A10A80BF008FA8C
:10AFA0000D990B9A14A80BF003FA80235B051A691C
:10AFB0005F690C92113F7A4330005D690B92FFF795
:10AFC0009DFF3022002104001CA80BF00DFA29007F
:10AFD00000270C9B13395943300009F0F5FA0D97FF
:10AFE00030257D430B9B0833ED18A74242DA290038
:10AFF00030221CA80BF0DCF910A91CA80BF02AFACF
:10B00000002827D13C49300022000E910F9409F00E
:10B01000F3FA6A46099513AB23CB23C223CB23C291
:10B0200023CB23C23000129B1099119A09F0F2FA37
:10B0300001230D930137D3E710300B9A0D990BF0D4
:10B04000A8F9040038000BF07CF9002CA3D12000F3
:10B0500029B0F0BD6A4609951FAB23CB23C223CB91
:10B0600023C223CB23C230001C991D9A1E9B09F0DA
:10B07000D1FADFE7E5433023ED1725405D430B9B15
:10B0800008355D190D9B002B1DD10C9B3021981E9E
:10B0900005F07AFDA0422CD017490134300022007F
:10B0A0000E910F9409F0A8FA6A46099513AB23CBC9
:10B0B00023C223CB23C223CB23C230001099119A81
:10B0C000129B09F0A7FA0B99300009F07DFA802352
:10B0D0005B0559690C230C9A133963434A430233C5
:10B0E000110030000B9A09F079FA0024AFE7034C05
:10B0F000ADE7034CABE7C046FECA000017FCFFFFFC
:10B1000013FCFFFF8023F0B55B051A6995B003922D
:10B110005A6905910399113A51435D69039B133DA7
:10B12000040002915D43FFF7E9FE061E3BD00027B5
:10B1300030220021083508A801950BF055F9019936
:10B14000200009F041FA049730237B43029D083523
:10B15000ED18B7421FDA2900302208A80BF028F9B1
:10B16000059908A80BF076F900280AD11949721E32
:10B1700020000691079209F03FFA0123049301375A
:10B18000E2E70C23019A2900200009F027FA019B2D
:10B1900030330193F3E7049B002B06D10D493200B5
:10B1A000200009F029FA0C4812E00299200009F069
:10B1B0000BFA80235B0559690C23039A13394A4320
:10B1C0007343110020000233029A09F007FA0020AD
:10B1D00015B0F0BDFECA00000CFCFFFF70B5040006
:10B1E000A280FA22002308000C4992000831216055
:10B1F000A3716061E260A3606382094909F029FAE2
:10B20000051E09D0010020001031022212300BF07F
:10B21000CFF828000BF095F8200070BD14670200ED
:10B220005373020030B50225837987B004002B42A6
:10B2300004D1FDF7F7FDA3791D43A571200009F0A6
:10B2400052FA00281CD06B46DD1C280009F042FA97
:10B250002B78002B17D001A809F03AFA0321019AA4
:10B26000D3170B409B189B102382FEF763F8E3680B
:10B27000A18818180123A0601A0002A808F06DF830
:10B28000002007B030BD0122064B1A60064A516803
:10B290000029FCD000215160044A12680192012269
:10B2A0005A60DBE700C00040FCC0004008C5004019
:10B2B000022802D10122014B1A707047E3270020B7
:10B2C00070B5064C05002378002B04D1044802F029
:10B2D000ADFD01232370280070BDC046E427002087
:10B2E000B1B2010070B50C0007F034FE002810D098
:10B2F0000023144DA40A2B70200009F008FA00283E
:10B3000003D00A200AF028FFF6E72B78002BFCD0A8
:10B3100070BD02210C4B0D4A99508021C9000800D4
:10B320005D58002DFCD0A121C9005C50195800299E
:10B33000FCD0002199508021C9005A58002AFCD025
:10B34000E6E7C046E327002000E0014004050000D6
:10B35000F8B50C0015001E0007F0FCFD002811D008
:10B360000023174F3B7032002900200009F0CDF96F
:10B37000002803D00A200AF0EFFEF4E73B78002B08
:10B38000FCD0F8BD01210F480F4B84461950802195
:10B39000C9005A58002AFCD080270022FF0096429C
:10B3A00007DD910068586050D9590029FCD001325E
:10B3B000F5E7002261465A50DA59002AFCD0E0E74E
:10B3C000E32700200405000000E0014008B4024B20
:10B3D0009C46443808BC604713470200FA21F8B580
:10B3E0000389C90004005943324809F058FCFA2186
:10B3F000890005F0C9FB304F2081A17A380009F09F
:10B400004EFC23002600250022894C33A072A03672
:10B410001A808C35317800232A22286808F0C0FD74
:10B42000002801D02548F8BD31781F235B22286809
:10B4300008F0B6FD0028F5D1317820235C22286879
:10B4400008F0AEFD0028EDD1317801232C222868C8
:10B4500008F0A6FD0028E5D1317801232D222868C7
:10B4600008F09EFD0028DDD1317801232E222868C6
:10B4700008F096FD0028D5D1A17A380009F00AFC21
:10B480003178C3B20E22286808F08AFD0028C9D19D
:10B49000FA21238989005943064809F0FBFB01235F
:10B4A0000343DBB231782A22286808F079FD0028AE
:10B4B000B9D0B7E7346702002C6702000EFCFFFF2B
:10B4C00008B4024B9C46443808BC6047DDB3010019
:10B4D000074B10B51A00040008323C330260436485
:10B4E000443008F05DF9200008F086F8200010BD17
:10B4F0009467020008B4024B9C46443808BC60477D
:10B50000D1B4010008B4024B9C46443808BC6047E3
:10B510001D470200F0B5042583798BB004002B424F
:10B5200004D1FDF77FFCA3791D43A5712000903065
:10B53000FFF7BCFB0026B0420FD12300A0331978DF
:10B5400020000C2307AD00938C302B0001220068F3
:10B55000FFF76EF9061E03D02C4E30000BB0F0BD85
:10B560000A2304AA9B182A785A706A781A70002253
:10B57000985EAA785A70EA781A700022995E039150
:10B580002A795A706A791A7000229F5EAA795A70D5
:10B59000EA791A7000215A5E04922A7A5A706A7AFD
:10B5A0001A7000215A5E0592AA7A5A70EA7A1F250B
:10B5B0001A7000229B5EA27A03999C46514349422D
:10B5C0005043CB172B407A435B185B11A361C31721
:10B5D0002B401818D3171D406423AD18059A5B4201
:10B5E0005343A36764236146049A40115A434B4373
:10B5F000E2676D11221DE06125622000D36708F02B
:10B6000074F82000443008F0D2F8A6E70EFCFFFFE3
:10B6100008B4024B9C46443808BC604715B501008D
:10B62000F7B51E00040008AB1B881500019309AB99
:10B6300000911A8831000AAB1F88FEF7C7F8200076
:10B640003A0031004430FEF717FB134B20001A007C
:10B650003C336364230008322260009A8C331A6002
:10B66000AB8890308380AB796A4683710B4B9288AC
:10B670000360AB68032183602B7B03736B7B437395
:10B68000AB7B83732300A0331A80FFF745FB2000B8
:10B69000FFF7A4FE2000FEBD94670200E8650200EB
:10B6A000F8B5FA260189B60004007143264809F06E
:10B6B000F6FA310005F068FA244F2081A17A3800AB
:10B6C00009F0EDFA2500A0725835297800232A22C6
:10B6D000606C08F065FC002801D01D48F8BD297891
:10B6E00010232B22606C08F05BFC0028F5D1297830
:10B6F00001232D22606C08F053FC0028EDD129783D
:10B7000001232E22606C08F04BFC0028E5D1A17AC1
:10B71000380009F0BFFA2978C3B20E22606C08F035
:10B720003FFC0028D9D121890748714309F0B2FABA
:10B7300001230343DBB229782A22606C08F030FC35
:10B740000028CBD0C9E7C046FC670200F4670200BE
:10B750000EFCFFFF10B50400034B0833036007F035
:10B760004BFF200010BDC0465C6802007FB5042579
:10B77000837904002B4204D1FDF754FBA3791D43C8
:10B78000A57120004830FFF791FA0025A8420DD19D
:10B79000230058331978062302AE009301223300A8
:10B7A000606CFFF745F8051E03D00D4D280004B06E
:10B7B00070BD022300210420F356A27ADB007156EB
:10B7C00030565343C000C900514342435B42A3611A
:10B7D0002368E16122629B6A20009847E6E7C04641
:10B7E0000EFCFFFFF8B50400150006AA168807AA8C
:10B7F0000F0012881900FDF7E9FF0F4B676408334B
:10B8000023602300AA8848339A80AA7920009A717D
:10B810000A4AA264AA6822652A7B1A736A7B5A7351
:10B82000AA7B9A730023A371230058331E80FFF76D
:10B8300037FF2000F8BDC0465C680200E8650200E2
:10B8400010B50400034B0833036007F0A9FF200084
:10B8500010BDC046F0680200F0B507005C3787B045
:10B860000400397800231022806C08F099FB03262D
:10B87000002802D01F4807B0F0BD0F2502ABED181D
:10B880000123397808220093A06C2B00FEF7D0FF2B
:10B89000184B9842EED02B78334203D06420FDF74A
:10B8A0005BFBEAE7FA262189134DB60071432800B5
:10B8B00009F0F5F9310005F067F920813978A02306
:10B8C0001122A06C08F06CFB0028D3D1A36C218955
:10B8D0000393714328003F7809F0DCF901231843F2
:10B8E000C3B210223900039808F05AFB0028C2D0D6
:10B8F000C0E7C0460EFCFFFF9068020070B5082547
:10B90000837986B004002B4204D1FDF78BFAA3792A
:10B910001D43A57120004C30FFF7C8F9061E0DD05D
:10B9200023005C331978062304AD009301222B0019
:10B93000A06CFEF77DFF061E03D0134E300006B04C
:10B9400070BD0E232A786B445A706A7820001A70F2
:10B950000022995E64224A43A263AA785A70EA7868
:10B960001A700022995E6422524251436163297920
:10B9700059706979197000215B5E5A432368E2634C
:10B980001B6A9847DAE7C0460EFCFFFFF8B50400D3
:10B99000150006AA168807AA0F0012881900FEF7DC
:10B9A0006BF90D4BA764083323602300AA884C333E
:10B9B0009A80AA7920009A71084AE264AA686265AE
:10B9C0002A7B1A736A7B5A73AA7B1E829A73FFF7CB
:10B9D00043FF2000F8BDC046F0680200E8650200A1
:10B9E000F7B5FA250189204FAD00040069433800FE
:10B9F00009F055F9290005F0C7F8A17A20811B4804
:10BA000009F04DF92600636CA07200932189583625
:10BA1000337869433800019309F03CF90723034365
:10BA2000DBB220220199009808F0BAFA002801D070
:10BA30000F48FEBD317810232222606C08F0B0FA66
:10BA40000028F5D1A17A0948656C377809F022F908
:10BA500080235B420343DBB223223900280008F035
:10BA60009FFA0028E5D0E3E7246902001C69020080
:10BA70000EFCFFFF10B50400034B0833036007F012
:10BA8000BBFD200010BDC04694690200F0B504253E
:10BA9000837985B004002B4204D1FDF7C3F9A37963
:10BAA0001D43A57120004830FFF700F9061E0DD098
:10BAB000230058331978062302AD0093A8222B00E7
:10BAC000606CFEF7B5FE061E03D0144E300005B0C4
:10BAD000F0BD1F200023EA5ED31703409B1802220B
:10BAE000A95E5B11CA170240521804216F5E521101
:10BAF000F9170140C91949112B806A80A980A07AE1
:10BB00004343424341435B42E36123685242A261A3
:10BB100021629B6A20009847D8E7C0460EFCFFFFD1
:10BB2000F8B50400150006AA168807AA0F001288A7
:10BB30001900FDF74BFE0F4B6764083323602300A9
:10BB4000AA8848339A80AA7920009A710A4AA26486
:10BB5000AA6822652A7B1A736A7B5A73AA7B9A7336
:10BB60000023A371230058331E80FFF739FF200004
:10BB7000F8BDC04694690200E8650200F7B5FA25F1
:10BB800004000189134EAD006943300009F087F8C5
:10BB9000290004F0F9FF2700A36C208100935C3793
:10BBA0003B7881B269433000019309F073F8602259
:10BBB000C3B20199009808F0F3F9002801D00648B3
:10BBC000FEBD397801236222A06C08F0E9F9002853
:10BBD000F6D0F4E7C86902000EFCFFFF10B50400C0
:10BBE000034B0833036007F0DBFD200010BDC046A7
:10BBF000F06902007FB50825837904002B4204D147
:10BC0000FDF710F9A3791D43A57120004C30FFF713
:10BC10004DF8051E0DD023005C331978062302AEC3
:10BC20000093E8223300A06CFEF702FE051E03D04D
:10BC30000B4D280004B070BD0223F25E96235B42D8
:10BC40005A4362630021725E20005343A3630423BE
:10BC5000F25E96235343E36323681B6A9847E8E741
:10BC60000EFCFFFFF8B50400150006AA168807AA07
:10BC70000F0012881900FDF7FFFF0D4BA764083372
:10BC800023602300AA884C339A80AA7920009A71F5
:10BC9000084AE264AA6862652A7B1A736A7B5A734F
:10BCA000AA7B1E829A73FFF769FF2000F8BDC04689
:10BCB000F0690200E865020010B50400054B083386
:10BCC00003601C3007F0AEFA2000183007F0AAFA23
:10BCD000200010BD1C6A0200FF23F0B52C4D8DB072
:10BCE0002B700023040069460088009303F090F94C
:10BCF000002802D16B469B782B70264E3368DB6898
:10BD0000002B07D1002320881A00190008F076FDC7
:10BD10000DB0F0BD2B78032BF4D81F4901A8FDF717
:10BD20004DFB336801A9DE6804A807F0D2FA04A924
:10BD3000300008F0C1FC0027060004A807F072FAE2
:10BD4000BE421ED031002022103104A80AF030FB80
:10BD500030000AF0F6FA297804ABC9005918082215
:10BD600002A80AF025FB20880123082202A908F076
:10BD700045FD0137002804D12088084A0C2108F02D
:10BD80003BFD01A807F04EFA002FBBD0C0E7C0462C
:10BD90008420002010250020E6730200FFFF000031
:10BDA000F0B5837991B004005B071BD5FDF7C2FAAB
:10BDB00000232269801A9941994203D1F423FF3369
:10BDC00098420FD9A068002808D0364B1D8808F08B
:10BDD000DEFF036815221B6A290098470422A37915
:10BDE0009343A371A3799B0759D52F4D2B68DB682B
:10BDF000002B50D02D4B1B78032B4CD8294B2C49B2
:10BE00001B8804A80193FDF7D9FA2B6804A9DE6802
:10BE100008A807F05EFA08A9300008F04DFC0700FA
:10BE200008A807F0FFF902AB9E1D082332003380FB
:10BE300006A9073B019808F0E3FC002F08D0390061
:10BE40002022103108A80AF0B3FA38000AF079FA73
:10BE5000164B32881B7806A9DE0008AB9E1930000D
:10BE60000AF097FA002813D0082206A930000AF039
:10BE70009FFA2B6804A9DD6805A807F02AFA202399
:10BE800008AA05A9280008F01DFC05A807F0CAF9B2
:10BE900004A807F0C7F90222A3799343A37111B054
:10BEA000F0BDC0468C2700201025002084200020F3
:10BEB000E6730200F7B5089E0500152922D8012077
:10BEC00007008F40244C27421CD0E97FCC181F2C40
:10BED00041DC69183418A14210D80021C8B283424D
:10BEE00004D9545C701884700131F7E732789A18DD
:10BEF0003270EA7F9B18EB7700202CE00878C8545A
:10BF00000139E8E73478013CE4B2A34208D10023C8
:10BF1000D9B28C42F0D9D05CF11888700133F7E7C0
:10BF2000EF7F0120FF183F1B1F2F14DC0227A01CEE
:10BF30007F423618381B0190E87F2F18BE4204D28A
:10BF40003078019FF0550136F6E7041B023CEC7790
:10BF5000280008F09FFCFEBDFC002000F0B585B075
:10BF600001930AAB1E880BAB1B78451C02930EABEA
:10BF70001B78040003930B78170003704B8A102280
:10BF80004382013128000AF013FA6B469B8826830E
:10BF900063836B461B7B002623776B4601221B7A4B
:10BFA0006761E683EB77A31CDA770C9B0C25636251
:10BFB000230020000D9A28331A705E709E702A00AC
:10BFC00031002C300AF010FA2000074BE663A3631F
:10BFD0002A00310040300AF007FA2000034B2665A2
:10BFE000E36405B0F0BDC0461748020009480200EE
:10BFF00070B50D0008F0CBFE04000368002D09D1D8
:10C000005B699847FA2080006843074904F0BCFD4B
:10C01000E08070BD9B6898478542F3D2236820007A
:10C020009B6898470500EDE771020000F0B5070036
:10C030001600A1B002C704006B4918A81D0008F043
:10C0400070FC331E03D030000AF00EFA83B20122D6
:10C050000492002203920292023201920093320073
:10C0600018A93800FFF77AFF23006049583318A851
:10C07000079308F056FC2B1E03D028000AF0F4F9B1
:10C0800083B20122049200220392029202320192B0
:10C0900000932A0018A90798FFF760FF230054496E
:10C0A000AC3318A8089308F03CFC269B002B03D067
:10C0B00018000AF0D9F983B20122049200220392F7
:10C0C0000292023201920093269A18A90898FFF76B
:10C0D00045FF631CFF33474918A8099308F021FC6A
:10C0E000279B002B03D018000AF0BEF983B201226F
:10C0F00004920022601C0392029202320192009389
:10C10000279A18A9FF30FFF729FF23005533FF3383
:10C11000394918A8099308F004FC289B002B03D088
:10C1200018000AF0A1F983B20122049200220392BE
:10C130000292023201920093289A18A90998FFF7F7
:10C140000DFF2300A933FF332C4918A80A9308F0E8
:10C15000E8FB299B002B03D018000AF085F983B275
:10C1600001220492002218AD03920292023201923F
:10C170000093299A29000A98FFF7F0FE204B1B78BC
:10C180000B93002B2DD1079B12971393089B0DAF98
:10C190001493631CFF331593099B1A4916930A9B4A
:10C1A0003800179308F0BDFB1D2149203B78102271
:10C1B0002B707B8A12AE6B8206ABC918C0180AF0CE
:10C1C000F7F806232B756B469B8D2068AB83AE6119
:10C1D00008F0E1FD036829001B6898470122084B1D
:10C1E0001A70200021B0F0BD292A0000242A000086
:10C1F000252A0000272A0000262A0000282A0000FD
:10C20000E52700200A18000070B5002504000B4B3C
:10C210008580083385710360C1601830FDF708F927
:10C2200020001C30FDF704F90123621CD377044A77
:10C23000A560656120001460A37170BD1C6A0200D6
:10C2400010250020FA2130B585B005000123022217
:10C250008900684607F081F8074C2068002809D05B
:10C2600008F098FB2988054B2268198002239179F0
:10C270000B43937105B030BD102500208C270020A2
:10C2800010B50C0007290DD8806808F080FD064B1A
:10C29000195703685B6C9847431E9841034B404213
:10C2A000184010BD0248FCE7DE73020016FCFFFFD9
:10C2B00017FCFFFFF0B5A44C0D00A5440400079344
:10C2C0009AAB1B78A14909A804930692FDF776F86A
:10C2D000200029001C3007F004F8C020800001F085
:10C2E0009BFD08200AF031F80600002100F0AEFEA8
:10C2F00015ADA66000210C220EA80AF075F82B00DF
:10C300000EAA83CA83C3924B2900EB60002330003E
:10C310002B6108F025FDA06808F039FD08220021F6
:10C32000059016A80AF060F814200AF00EF829000B
:10C330000200884B1593C8C9C8C2874B059EC360CD
:10C340000023A43603613368002B00D0F5E0306091
:10C35000A06808F020FD08220021060016A80AF0B7
:10C3600043F8142009F0F1FF7C4B1593030086CDB0
:10C3700086C37B4BC36000230361336B002B00D06B
:10C38000DDE03063A06808F002FD0822002105000E
:10C3900016A80AF029F8142009F0D7FF714B15AE42
:10C3A0001593030086CE86C36F4B9835C360002378
:10C3B00003612B68002B00D0C3E02860012504AB8B
:10C3C0001B7C04AA2B4308A92800137408F01AFA4E
:10C3D000A06808F0E4FC036864495B6A9847A068B9
:10C3E00008F0DDFC036862499B699847A06808F083
:10C3F000D6FC002302680093166804992A00B0470F
:10C40000049B002B0AD0200008F0CDFA032805DD9C
:10C41000A06808F0C4FC0368DB6898470EA808F021
:10C4200030FA2F2004ABC01808F02BFA362004ABEA
:10C43000C01808F026FA3D20042504ABC01808F007
:10C4400020FA0EAB0A93A06804AB5D7708F0A7FC56
:10C4500003680AA91B699847A06808F098FC03685C
:10C460000AA95B6D9847A06808F091FC0368002159
:10C47000DB6D9847A06808F08AFC036802219B6D79
:10C48000984700212000FFF7FBFE182009F05DFF10
:10C49000A16800F055FA374B374A1B68A16803932F
:10C4A000364B15A81B6800260293354B0CAF1B6852
:10C4B0000193069B1B685B190093324B12681B6843
:10C4C000FFF7B4FD302009F040FF079AA16800F0A3
:10C4D000F7FAA06808F05BFC036839009B6A98478C
:10C4E000294BBE80A0680C9308F051FC036839000A
:10C4F000DB6A98472900A06808F01FFA099A092109
:10C500009378A068521908F02BFAA06808F03FFC55
:10C5100032210671A068FFF76BFD04AB1B7FB342AD
:10C5200004D0A06808F033FC08F0F1F909A806F07F
:10C5300079FE95239B009D44F0BD036107E70361ED
:10C540001FE7036139E7C046ACFDFFFFCB74020073
:10C550002548020045C2010033480200D9BC010051
:10C56000414802006F4802004F4802008DC501009B
:10C57000C1C501000C250020082500200C2000204A
:10C5800004250020102000200800100013B506220A
:10C590006846FCF723FF094B1C68002C0AD069464B
:10C5A00001A806F096FE200001A908F01DFA01A8D6
:10C5B00006F038FE684606F035FE13BD1025002053
:10C5C000002373B501AE0C0031000500019302F0A9
:10C5D0001FFD002802D1B278064B1A70064B18686E
:10C5E000002806D061426141044BC9B21D8008F0A9
:10C5F00003FA73BD84200020102500208C27002022
:10C6000030B5284CA9B06A220D000DA8210009F010
:10C61000CFFE0DA903A8FCF73FFF03A906A806F06B
:10C62000CCFE01230193013BFF3B00930533FF3315
:10C63000642206A92800FEF7A3F806A806F0B0FEBB
:10C64000210019226A3106A809F0B2FE0522002451
:10C65000110006AB04A806F0D7FE04A905A806F051
:10C66000ACFE019400942300220005A92800FDF7E8
:10C67000CBFF05A806F094FE21002800FEF7AEF8D7
:10C6800005340520FCF768FCFF2CF5D1FA2080006A
:10C69000FCF762FC04A806F083FE03A806F080FE07
:10C6A00029B030BD5B730200F0B59C4B95B005928C
:10C6B0001A68082304000391D16C06A80B43D364C5
:10C6C0009749FCF77BFE974907A8FCF777FE220005
:10C6D00000250DAE30001C3206A906F011FE07AA97
:10C6E000310008A806F00CFE300006F09BFD631C2C
:10C6F000DD77A06808F04BFB03680BAF5B699847D8
:10C70000300008F0BEF82B2004ABC01808F0B9F8D0
:10C71000322004ABC01808F0B4F8392004ABC018BC
:10C7200008F0AFF88023DB00BB80A0680B9608F010
:10C730002EFB036839005B6D9847A06808F027FB63
:10C74000036829009B6D9847A06808F020FB07004C
:10C7500006000A371F222900380009F045FEFD7740
:10C76000300008F0CBF80621A06808F0E6F8089A37
:10C7700009219378A068043208F0F2F8A06808F064
:10C7800006FBC8210571A068FFF732FCA06808F01D
:10C79000FEFAFF272E000581A06808F0F8FA08F0DD
:10C7A000B6F80398FDF7C4FE2000FCF73BFB0399A5
:10C7B0002000FFF725FF0399200008F030F90495C9
:10C7C000012563691D402DD0574909A8FCF7F8FEE3
:10C7D00009A90AA806F0F1FD00220AA91300019296
:10C7E00000920398FDF710FF0AA806F0D9FD049BFC
:10C7F000002B42D1043F282F41DD0025FE2F00DC15
:10C80000049D059806F0B8FF002806D00123626950
:10C810009A431300042213436361002609A806F01B
:10C82000BFFD049504226369134233D0FF210398AE
:10C83000C826FDF7D3FF0025B600A36902229B5E40
:10C84000AB4222DD200029B2183006F06FFD002334
:10C85000010003981A007430FCF702FF3000FCF767
:10C860007BFB039807F08FFBC820FCF775FB0222C7
:10C870006369134209D10135DFE70437BBE7039849
:10C8800007F081FB002FBCDDBAE7FA208000FCF73F
:10C8900063FB0026022365691D421CD006331D4040
:10C8A00024D0224909A8FCF78BFE09A90AA806F0A2
:10C8B00084FD00220AA90192009213000398FDF75B
:10C8C000A3FE0AA806F06CFD1948FCF745FB09A871
:10C8D00006F066FD174E6420FCF73EFB164B013652
:10C8E0009E4200DC6CE706F047FB69E7134909A8A4
:10C8F000FCF766FE09A90AA806F05FFD2B002A00D6
:10C900000AA9019500950398FDF77EFE0AA806F096
:10C9100047FD09A806F044FDDDE7C0469424002049
:10C92000F2730200027402000474020049740200EF
:10C93000983A00008C0A00008B0A000086740200FE
:10C940000022594BF0B50833060003600F001000B9
:10C95000A9B0B1600BAB991801324870102AFAD116
:10C960000F3A524C1A700E32105D991A0874013A3F
:10C97000FAD2997B5A7B09020A4331000C310391A8
:10C9800025211B7813AD2B7002ABC918452302A8D3
:10C990001B186A821800102209F00AFD039B64210B
:10C9A0006B610123002402AA2B77521819930933D3
:10C9B00013701DAB1C706D2302AA9B181C706E2394
:10C9C00021009B181EA80C22EC836C621C7009F0DD
:10C9D0000BFD374B0C22210023A8AB63EC6309F05D
:10C9E00003FD344B02AAEB6446239B180322DA773B
:10C9F00022002C650595347306AD2B1901345A704D
:10CA0000102CFAD101232C482B700E33195CEA1A32
:10CA10001174013BFAD211212520AA7B6B7B1202F3
:10CA20000BAC13432A78638202ABC9182270C0187A
:10CA3000102209F0BDFC0123237505ABA36100237F
:10CA40003800A38308F0A7F9036821001B68984702
:10CA500013ABDB8BB068B38208F09DF9002203684A
:10CA60000092B18A039ADC680123A047B06808F0FD
:10CA700092F90700142009F068FC00220123040049
:10CA80000261069240C008322900079309F090FC29
:10CA90000A4BE360BB69002B03D13000BC6129B0B5
:10CAA000F0BD2361F9E7C046346A0200DF7402007A
:10CAB0001748020009480200EF7402007F4A020092
:10CAC000F0B500260400724BDDB0083303608160CE
:10CAD000C2608680867132006E4947A808F06FF800
:10CAE000230014330125042708931223009704958B
:10CAF0000193089A330047A9039602961DA8FFF7F1
:10CB00002DFA3200644947A808F059F80C23220096
:10CB10000097103215AF0495019347A9330003968F
:10CB2000029632A8FFF71AFA32005C49380008F082
:10CB300046F821001C310991042308210495019134
:10CB4000009339003300099A0396029647A8FFF72D
:10CB500005FA32005249380008F031F8542009F043
:10CB6000F4FB21001222042318310791049501924D
:10CB700000930A0033003900039602960690FFF7EF
:10CB8000EDF9069A474B1000A262D4620AA9082266
:10CB900030300A930B9609F00BFC434B069A099927
:10CBA00093632932157026610422E661079809F023
:10CBB000FFFB04220799089809F0FAFB6622032379
:10CBC00004A95218D377BA225218D3778722520079
:10CBD0005218D377069A35490232D3771DAA0C92A0
:10CBE00032AA0D9247AA0E92069AA6850F9210A815
:10CBF000320007F0E4FF3021452004AA52181378D0
:10CC0000123104AA3B705218138811397B8204AB8D
:10CC10001022C918C01809F0CBFB04230CADA06882
:10CC20003B75BD61BE8308F0B6F8036839001B6828
:10CC30009847822204AB9B181B885432238404AB90
:10CC40009B181B885432A38404AB9B181B88A068D4
:10CC5000638408F0A0F80700142009F076FB0500B3
:10CC6000134B0661082210C010A91093119609F009
:10CC70009FFB104BEB60BB69B34206D1BD61200046
:10CC8000FCF7D0F820005DB0F0BD2B61F6E7C046A0
:10CC9000406A02001F750200FF7402000F75020057
:10CCA0002F750200914B0200FD4A02003F75020001
:10CCB00021CD0100274B0200F0B504000E00150045
:10CCC00085B01F000CAB1B881030019306F03BFBB6
:10CCD00026806580182009F038FB02AE050033007D
:10CCE0000AAA03CA03C32F602800082700213A00BC
:10CCF0000C3009F079FB3A003100281D09F058FB8F
:10CD0000064B02226B61200000230199A5600A43B3
:10CD1000E360A2802362636205B0F0BD514B020064
:10CD2000F0B50B898DB00593CB68050004934B8853
:10CD3000828C9A420ED1049C049B059A9B181B1B63
:10CD4000032B39DD62882188012308A806F005FB42
:10CD50000434F1E7428C9A422ED1049C049B059A3C
:10CD60009B181B1B032B27DD238828200693638831
:10CD7000EF680793114B08930023099309F0E5FA34
:10CD8000C0236A460600029308AB03CB03C22B0004
:10CD90000699079A3000FFF78FFF3B6831005B6808
:10CDA00038009847002805D0300006F0F1F930002F
:10CDB00009F0C7FA0434D1E70DB0F0BD0F4C020002
:10CDC00070B5040090B0806807F01CFF022101409C
:10CDD0001AD1A38D002B17D00C4B6A460493102355
:10CDE000E568A1850591029304AB41CB41C20A00DD
:10CDF000230006A8FFF760FF2B6806A99B682800A0
:10CE0000984706A806F0C4F910B070BD0F4C020098
:10CE1000002815D0006041608260C36004614561F4
:10CE20008661C761444604624C464462544684624B
:10CE30005C46C462644604636E464663744684631B
:10CE4000002A06D0C46B043C043A25681560B4423D
:10CE5000F9D18C6BA6464E6BB546002B06D0CC6B39
:10CE6000043C043B1D682560B442F9D10C6BA44618
:10CE7000CC6AA3468C6AA2464C6AA1460C6AA046BC
:10CE8000CF698E694D690C69CB688A680868496802
:10CE90007047006041608260C360046145618661E3
:10CEA000C761444604624C464462544684625C4610
:10CEB000C462644604636E46466374468463C46B0E
:10CEC000043C043925680D60B442F9D1C76986690C
:10CED000456904697047006041608260C360046115
:10CEE00045618661C761444604624C4644625446CB
:10CEF00084625C46C462644604636C464463744660
:10CF0000846304697047846BA646446BA546046B32
:10CF1000A446C46AA346846AA246446AA146046A37
:10CF2000A046C769866945690469C3688268006864
:10CF30004168704710B5041E0CD009F095FA431EE5
:10CF4000E3189C4208D222781978013B21705A706C
:10CF50000134F6E7014810BD0020FCE717FCFFFF95
:10CF6000F0B585B002900C1E2AD00023C217161A05
:10CF700056400193019B30005D1C63190A215F1E1E
:10CF8000039303F071FF49423031397030000A21B8
:10CF900003F084FE47420600002F0FD1029B002BB6
:10CFA00004DA2D23019D039A02351370002320001B
:10CFB0006355FFF7BFFF380005B0F0BD0195D9E715
:10CFC000004FF8E717FCFFFF0268084B406810B5F8
:10CFD000C018C000101803009A4205D81C688C4283
:10CFE00002D31800083BF7E710BDC046FFFFFF1F44
:10CFF00070B5002817D1114D2E68002E11D10830C0
:10D0000009F0A3F9066046600D4E04003368002B5A
:10D0100002D108F0F7F8306023682C609B00F358C9
:10D020006360286870BD0122064907480B681340F9
:10D03000F8D1026043600A60F4E7C046182500207A
:10D0400024250020142500201C250020002370B575
:10D0500004000160436099420AD1064D2B68002B01
:10D0600002D108F0CFF8286023689B00EB5863607A
:10D07000200070BD24250020436810B50400002B5B
:10D0800002D1044809F06FF8606803681B6998478B
:10D0900010BDC0464F750200436810B50400002B58
:10D0A00002D1044809F05FF8606803689B699847FB
:10D0B00010BDC0464F750200436810B50400002B38
:10D0C00002D1044809F04FF8606803685B6A98472A
:10D0D00010BDC0464F75020000487047FFFF0000BA
:10D0E000F0B597B00593036807AD1B6804910393EF
:10D0F00011002B00060091C991C30024D3682100C0
:10D100000C220CA8EB602C6109F06EF922000B4B8D
:10D1100010940F9311AB1C70191901344A70102C24
:10D12000FAD15A820193059B2A00009304990CAB13
:10D130003000039CA04717B0F0BDC046BD4E0200B2
:10D1400070B5FC30046C0500002C0DD1242009F0D2
:10D15000FCF8064B44608361054B8460C460046145
:10D160004461C46103602864286C70BD2C6B0200AC
:10D17000146C020070B5FC30C56B0400002D11D199
:10D18000342009F0E2F8084B85604360074B4561A5
:10D190000361074B0562C361064BC5628362064BA0
:10D1A000E0630360E06B70BD5C6B02004C6B0200DF
:10D1B000BC6B0200CC6B0200DC6B02007FB5037914
:10D1C0001548002B22D0154E154C33782000002B2B
:10D1D0001CD102AD280007F04EFE002810D16B884C
:10D1E000592B0DD12B78AA88D91F012910D800926C
:10D1F0000C4A2021200005F045FB0123337004E098
:10D2000020220949200009F036F9200004B070BD41
:10D210000092064AEDE7C04672750200062800201B
:10D22000E6270020947502008C750200B17502009B
:10D2300010B50400024B08C007F0FDFE200010BD31
:10D240004C6B020010B50400024B08C007F008FF49
:10D25000200010BD5C6B0200064B70B5040003603B
:10D260004068002804D0056909F06BF82800F8E749
:10D27000200070BD3C6B0200064B70B504000360DB
:10D280004068002804D0056909F05BF82800F8E739
:10D29000200070BD6C6B0200064B70B5040003608B
:10D2A0004068002804D0056909F04BF82800F8E729
:10D2B000200070BD7C6B0200064B70B5040003605B
:10D2C0004068002804D0056909F03BF82800F8E719
:10D2D000200070BDBC6B0200064B70B504000360FB
:10D2E0004068002804D0056909F02BF82800F8E709
:10D2F000200070BDCC6B0200064B70B504000360CB
:10D300004068002804D0056909F01BF82800F8E7F8
:10D31000200070BD606A0200064B70B50400036017
:10D320004068002804D0056909F00BF82800F8E7E8
:10D33000200070BD706A0200064B70B504000360E7
:10D340004068002804D0056908F0FBFF2800F8E7D2
:10D35000200070BD806A0200064B70B504000360B7
:10D360004068002804D0056908F0EBFF2800F8E7C2
:10D37000200070BD906A0200064B70B50400036087
:10D380004068002804D0056908F0DBFF2800F8E7B2
:10D39000200070BD2C6B020070B5FC30046C0500E1
:10D3A000002C0DD1242008F0D0FF064B446083618F
:10D3B000054B8460C46004614461C46103602864F7
:10D3C000286C70BD2C6B0200146C0200104B10B561
:10D3D000083303600F4B0400C36080230E4A5B00D8
:10D3E000C250C018FCF77AFF20000C4BB830E36045
:10D3F000FFF7B2FF2000AC30FFF79EFF2000A03007
:10D40000FFF78AFF20006C30FFF776FF200010BD89
:10D41000406C0200886C0200F46D0200A06A0200F9
:10D42000F8B505000400AC356B68AB60A86800284F
:10D4300007D0C36821009847AB68002BF4D01B6964
:10D44000F3E72500B0352868002804D0066908F005
:10D4500078FF3000F8E72200FC212860583213786A
:10D460000B40137023005C33187020000A3007F063
:10D47000C0FE2000343007F0BCFE606E002804D0EF
:10D48000056908F05EFF2800F8E72500983560661A
:10D490002868002804D0066908F053FF3000F8E738
:10D4A0002600A43628603568002D05D02F69280095
:10D4B00008F047FF3D00F7E72000356029000C2207
:10D4C0006C3008F091FF2000074BE567A367290047
:10D4D0000C22803008F088FF2300044A8C339034FB
:10D4E00028001A602560F8BDA14E0200934E02008C
:10D4F000444AF0B50600C260A022434B16360833FA
:10D5000003600100002342820400320085B00371F1
:10D510008360037483823531137001329142FBD1F1
:10D52000802580222000AD00D201F37735841100E0
:10D5300000933830002300F039FF230021004033EE
:10D5400003931A002B0000255F31157001328A42C7
:10D55000FBD1039AFC21D577220060321380137926
:10D5600020000B401371230068331D70274B256783
:10D57000E3660C220021783008F036FF23002700F4
:10D5800088331D60224B0837FB67843700210C224B
:10D59000380008F029FF1F4B1F4AFB602300A0330F
:10D5A0003D611A601D4A5D60DA601D4A1D619A6125
:10D5B000DD61300007F01DFE039807F01AFE194BDD
:10D5C000601CE3602300C4331D705D709D70FF30EC
:10D5D00002F0FCFC8C235B00E55023001933FF3381
:10D5E0005D618023104A5B00E2502300012220008D
:10D5F000FE3352425A86023B9D63DD631D6405B0D3
:10D60000F0BDC046A06A0200406C0200606A0200E1
:10D61000A14E0200934E0200706A0200806A02006E
:10D62000906A0200886C0200F46D020070B5074C2D
:10D630002368002B07D1A020400008F086FE0500DB
:10D64000FFF756FF2560206870BDC04628250020E2
:10D6500070B50C220D000021040008F0C5FE002367
:10D660002361024B25602000E36070BDAF4E0200D5
:10D6700070B500250400254B85800360244BC560F0
:10D680008360244B85614361234B45620362234BD6
:10D690000563C362224BC563836329004430FFF7EF
:10D6A000D7FF200029005830FFF7D2FF20002900C3
:10D6B0006C30FFF7CDFF1B4B22002360230080322C
:10D6C000F83320C29342FCD126001D00E936FF3614
:10D6D000280008220021083508F086FEAE42F7D166
:10D6E0008E2300229B00E11804C6B142FCD18E2398
:10D6F00000219B00E2540C4B0C4AE318A21819803D
:10D7000002339A42FBD1200070BDC0468C6B0200F0
:10D710003C6B02004C6B02005C6B02006C6B020005
:10D720007C6B0200146D02003A02000062020000ED
:10D7300070B500200D00FFF779FF03685B6A98471A
:10D740002B780400142B1ED003D8132B0CD00020F0
:10D7500070BD152B1FD0222BF9D16B681888236957
:10D76000002BF4D09847F2E76B68012518889B7866
:10D77000646819005A08DB0629402A405B0F002C18
:10D78000E5D0A047E3E76B6818889978A368002B79
:10D79000DDD09847DBE76868827813091207120F1B
:10D7A000012A03D0022A0BD0002106E0013BDBB2A4
:10D7B0000021022B01D8064AD15C0088E368E6E725
:10D7C0000421012BF9D00131022BF6D0ECE7C04641
:10D7D000D6750200014B18787047C0460728002014
:10D7E000F0B51D000023304F87B000923A78060054
:10D7F0000C009A4204D102F025F9002803D00B2333
:10D80000180007B0F0BD002D0ED003A9222003950B
:10D8100007F07CFD002807D006230828F0D0113837
:10D82000434243410433EBE7002302AA1000137084
:10D8300000F0E8FF0028E2D101251C4902220B7804
:10D840002E40AB433343072693430193009B2C4068
:10D8500033409340AC409C46019B02AA1C431C23CE
:10D860009C4363461C430E239B181880104B0C707E
:10D870000393022303AC2371093002AB0522C018C5
:10D8800008F096FD21000B4801F026F8002807D08B
:10D8900033000428B4D0013B0828B1D00533AFE7EA
:10D8A0003D700300ACE7C04607280020852000201B
:10D8B00031D701000828002010B5074801F0E4F82E
:10D8C0000023984206D00733042803D0013B0828E0
:10D8D00000D00533180010BD08280020002373B5C0
:10D8E00001930F4B01AD1B780E0029002B7001F046
:10D8F0008FFB041E05D00423052800D00733180031
:10D9000076BD3100280001F021F823000028F6D070
:10D9100007230428F3D0013B0828F0D00533EEE7B5
:10D920000828002073B5114C0E00050005222100C7
:10D93000684608F03DFD012E03D0022E10D00223D0
:10D940000CE002222378B3439343694628002370F6
:10D9500007F0DAFC0023984200D00B33180076BDA4
:10D96000012322781343B343EFE7C046852000200C
:10D97000094B10B51A7801000923002A09D007487D
:10D9800001F01CF80023984203D003330E2800D086
:10D990000333180010BDC0460728002008280020C7
:10D9A000024B0B60092313607047C046D975020013
:10D9B00010B504000020FFF739FE03681B69984783
:10D9C0000300F3331C7086235B00C050030000216A
:10D9D000044AFC335A61044A99615A62F43008F0EF
:10D9E0003EFA10BDF95402000B550200012110B59A
:10D9F000044A080001F028FC0023984200D00B33B1
:10DA0000180010BDB1D90100F0B593B0019000200D
:10DA10000C00FFF70BFE03685B6A9847FFF7DAFE1E
:10DA200006AB00280ED000221A7105AA0692082221
:10DA300018001A730AAA9A60FFF79AFF002803D009
:10DA400013B0F0BD18711873002727732771019B5D
:10DA5000BA331B78BB4242D907237B431A00019992
:10DA6000BB32CB18BB331B788A180292022B2ED103
:10DA7000002506AE337BAB4223D9AB000393089B52
:10DA8000AA009958029807F043FC00281CD0B368FC
:10DA90009C46AB001900237B614402939A000868FE
:10DAA000A368D050029B01332373337B5A1E9542E7
:10DAB00005D00C481B1860469B001B580B6006AB3A
:10DAC0001A730137FFB2C2E70135EDB2D1E723790E
:10DAD000216802989A00013350502371F1E7002029
